:100000000C9410120C942D120C9448120C942D1276
:100010000C942D120C942D120C942D120C942D1264
:100020000C942D120C942D120C943F340C942D1220
:100030000C942D120C942D120C942D120C942D1244
:100040000C942D120C942D120C942D120C942D1234
:100050000C942D1200AF00AE000000000000000064
:100060000000000000000000000000000000000090
:100070000000000000000000000000007E0F00D41F
:10008000FFFFFFC700000078000000000000000034
:100090002A2B2800000000000000000000000000E3
:1000A00000000029000000002C1E342021222434EE
:1000B0002627252E362D3738271E1F2021222324C0
:1000C00025263333362E37381F0405060708090A5C
:1000D0000B0C0D0E0F101112131415161718191AF8
:1000E0001B1C1D2F3130232D350405060708090A76
:1000F0000B0C0D0E0F101112131415161718191AD8
:100100001B1C1D2F3130354C05010980A1018503D1
:1001100019012AB700150126B70095017510810055
:10012000C0050C0901A101850419012AA0021501CD
:1001300026A002950175108100C00660FF0961A12B
:10014000010962150026FF009520750881020963E8
:10015000150026FF00952075089102C005010906CB
:10016000A101050719E029E715002501950875018A
:1001700081029501750881030507190029FF150003
:1001800026FF009506750881000508190129051547
:10019000002501950575019102950175039103C034
:1001A0001C037600690061006C003A0066003600AE
:1001B00034006300320062003300630000000C036F
:1001C0004C0043004B003700350000000C034C008E
:1001D000790073006F003100000004030904090274
:1001E0005B00030100A0FA09040000010301010003
:1001F00009210101000122440007058103080001D3
:10020000090401000203000000092101010001228C
:100210002200070584030800010705040308000104
:10022000090402000103000000092101010001226C
:1002300032000705830308000112011001000000CD
:10024000085678636102000102030129003A003B6D
:10025000003C003D003E003F0040004100420043A2
:10026000004400450000004C00A80035001E001F9F
:100270000020002100220023002400250026002762
:10028000002D002E0000002A00AE002B0014001AE2
:10029000000800150017001C0018000C00120013C5
:1002A000002F00300000003100AC003900040016BF
:1002B00000070009000A000B000D000E000F0033BC
:1002C000003400000000002800AB00E10000001D29
:1002D000001B000600190005001100100036003751
:1002E000003800E500000052002152E000E300E287
:1002F000000000000000002C00000000000000E6EC
:1003000000E4005000000051004F00010001000116
:1003100000010001000100010001000100010001D5
:100320000001000100000001004074010001000113
:1003300000010001000100010001000100010001B5
:100340000001000100000001004600010001000161
:10035000000100007C01000100010001000100011A
:100360000001000100000001004900390001000106
:100370000001000100010001000100010001000175
:100380000001000000000001000100010000000168
:100390000001000100010001000100010001000155
:1003A0000001000100000001000100010001000146
:1003B000000000000000000100000000000000E656
:1003C0000001000100000001000100DEDF0007085D
:1003D0007F0807003E5B4F5B3E003E6B4F6B3E006D
:1003E0001C3E7C3E1C00183C7E3C18001C577D5770
:1003F0001C001C5E7F5E1C0000183C180000FFE71C
:10040000C3E7FF00001824180000FFE7DBE7FF0048
:1004100030483A060E00262979292600407F050536
:100420000700407F05253F005A3CE73C5A007F3ECD
:100430001C1C0800081C1C3E7F0014227F22140094
:100440005F5F005F5F0006097F017F00006689959E
:100450006A0060606060600094A2FFA294000804DB
:100460007E04080010207E20100008082A1C0800C6
:10047000081C2A0808001E10101010000C1E0C1E6C
:100480000C0030383E383000060E3E0E06000000EC
:100490000000000000005F000000000700070000EF
:1004A000147F147F1400242A7F2A12002313086467
:1004B0006200364956205000000807030000001C67
:1004C000224100000041221C00002A1C7F1C2A003F
:1004D00008083E080800008070300000080808087E
:1004E00008000000606000002010080402003E5177
:1004F00049453E0000427F4000007249494946009C
:100500002141494D33001814127F100027454545FD
:1005100039003C4A49493100412111090700364957
:1005200049493600464949291E00000014000000D0
:100530000040340000000008142241001414141478
:1005400014000041221408000201590906003E412E
:100550005D594E007C1211127C007F4949493600DA
:100560003E41414122007F4141413E007F4949498E
:1005700041007F09090901003E41415173007F0894
:1005800008087F0000417F4100002040413F0100FA
:100590007F08142241007F40404040007F021C023F
:1005A0007F007F0408107F003E4141413E007F09EB
:1005B000090906003E4151215E007F0919294600C4
:1005C00026494949320003017F0103003F40404072
:1005D0003F001F2040201F003F4038403F00631471
:1005E000081463000304780403006159494D430073
:1005F000007F4141410002040810200000414141B8
:100600007F0004020102040040404040400000031B
:10061000070800002054547840007F2844443800E4
:10062000384444442800384444287F003854545403
:10063000180000087E09020018A4A49C78007F0816
:100640000404780000447D4000002040403D00004C
:100650007F102844000000417F4000007C047804A3
:1006600078007C0804047800384444443800FC18BE
:100670002424180018242418FC007C080404080012
:1006800048545454240004043F4424003C40402077
:100690007C001C2040201C003C4030403C00442892
:1006A000102844004C9090907C004464544C4400CA
:1006B00000083641000000007700000000413608C5
:1006C00000000201020402003C2623263C00000038
:1006D00000000000404040F0F8F8FF38FFF8F83F15
:1006E000F8F8FF38FFF8F8F0404040000000000044
:1006F0000080C0C0C0800000C0C08000000080C07A
:10070000C000C0C0000080C0C00000000000C0C029
:10071000C0C0C000C0C00000000000000000000019
:1007200000000000000000000000000000000000C9
:1007300000000000000000000000000000000000B9
:1007400000000000000000000000000000C0F0F801
:10075000FC3E1E06010000007F4141417F007F41B9
:1007600041417F000080C0E07E5B4F5BFEC0000027
:10077000C000DCD7DEDEDED7DC00C00000000000F9
:100780000000000000000000000000000000000069
:1007900000000000494949FFFFFFFFE0DFBFBF0045
:1007A000BFBFDFE0FFFFFFFF494949000000000035
:1007B0001F3F6060E0BF1F007F7F071E381E077F5E
:1007C0007F007F7F0E1F3B716000000000007F7F75
:1007D0000C0C0C007E7E007F7E0303007F7E0303F3
:1007E0007E7E03037F7E000F3E703C063C703E0F12
:1007F00000327B49493F7E007F7E0303001E3F6934
:10080000696F2600000000000000000000030F1FB9
:100810003F3C7870600000007F4141417F007F4194
:1008200041417F00307B7F7830202030787F3B0053
:1008300003000F7F0F0F0F7F0F0003000000000069
:1008400000000000000000000000000000000000A8
:1008500000000000010101070F0F7F0F7F0F0F7EC7
:100860000F0F7F0F7F0F0F07010101000000000035
:100870000000000000010100000000000000000076
:100880000000000000000000000000000000000068
:100890000000000000000000000000000000000058
:1008A0000000000000000000000000000000000048
:1008B0000000000000000000000000000000000038
:1008C0000000000000000000000000000000000028
:1008D0000000000000000000000000000000000018
:1008E0000000000000000000000000000000000008
:1008F00000000000000000000000000000000000F8
:10090000000038465040403030404050463800DA11
:100910000281FFD9F1DB20A4A62EAF00A0C0D30036
:1009200000A1C8D30000AED580A81F408D142000C0
:10093000010001005B02351E4B1E00000200020098
:100940005702351E4B1E0000030001005C02351EDD
:100950004B1E0000040002004102351E4B1E6817AA
:10096000050001005D02351E4B1E0000060002005E
:100970004302351E4B1E0000070002005902351EBF
:100980004B1E0000080001005E02351E4B1E0000D9
:10099000120002005F02351E4B1E00001300020011
:1009A0006102351E4B1E0000140001006302351E5B
:1009B0004B1E00001500000000007117A11C000074
:1009C000FD377A585A000004E6D6B44602002101E9
:1009D00016000000742FE5A3E006D3021F5D003D62
:1009E0008889C65436C3174FE4E20379756402EF71
:1009F000D43664627C8E4B197BC541E6BBD288B08D
:100A00009F46B51DDCDC9A684AF3EADA608C1D5516
:100A1000FED4AF20FF7F5759025285A3FD8BD7220A
:100A200071A7A068287E7D18BDAB8B80931248F516
:100A30002E277008C95C65B06165DD8597A71C3CF1
:100A400081E6F62BC86281F789106E611DFDDE100C
:100A5000CBE90266F4E689A3EEFC1E1C6C8C5B1BE2
:100A60004032305F08FADE716E2BF80414092E78DC
:100A7000C7400646239001181325C4118469BA178C
:100A8000B6DD227A6EA1CDA498AE49AC1D47944F35
:100A9000E5D871EFB44733675B8371EB5C47D200F5
:100AA00009D1CFC3B34E48CD5FEF21050CBA43F552
:100AB00099F3E55D88E0AA4259C33D2BECAD7AE499
:100AC000174B10FA1AD86EA76A6D5DA0FBEC31685F
:100AD0009780E484044B26959E672B6D09DFC03513
:100AE00014861DC584647D6D25C97E13A3C35C93E4
:100AF000A14D86BF9DC507F81E5060BBCE6C2083FC
:100B00008C22A0B4B37AD51DB2178D2636E02D60A5
:100B1000B07B6D345C39B9722BEB00B48FAC0B79C0
:100B2000ABA4A9356F78507ECBFD2400788F03B835
:100B3000B74714D56042AD0F6D09FA063D8C07B179
:100B4000816B084C21D30C641A1CD95A4A37D91A24
:100B5000E3DDBA6A46498AAD9206F896D70E61D1AE
:100B6000E63D83CC1B7E881B0289B3E29BDC9ED7CB
:100B70007B44354B2FC52B7225A544204CBA594BCD
:100B8000FCD006F430DB4D359E7A5E47F77902E003
:100B900066D4FDA280DDCAFE6446619CF1FEA9DF39
:100BA00084A7E3E034354C20E4394DF27A18689E8E
:100BB000316C5CCAD554CBC83CBBAF3FFE451B3F34
:100BC0007F1DBC1F271DDBC1825F659EC705D01C32
:100BD000716B9E445C2FC58480E8A1828ABDC3B23C
:100BE00045123F3A3199316BE1EBC13D21B3311AE6
:100BF0004B5E80B7BC2C9E3D594BAC7A0D0000007B
:100C00005D5BE520F855964A0001BB04D40D000059
:100C1000362C36E7B1C467FB020000000004595AC5
:100C2000FFFFFFFFFFFFFFFFFFFFFFFFFFFFFFFFD4
:100C3000FFFFFFFFFFFFFFFFFFFFFFFFFFFFFFFFC4
:100C4000FFFF7F3F1F9FCFE763180CE1F8FCFEFF1B
:100C5000FFFFFFFFFFFFFFFFFFFFFFFFFF9F1F1FC4
:100C60009FDFFFFFFFFFFFFFFFFFFFFFFFFFFFFF14
:100C7000FFFFFFFEB00003F2F0E1C78F3F7FFFFFF1
:100C8000FFFFFFFFFFFFFFFFFFFFFFFFFFFFFFFF74
:100C9000FFFFFFFFFFFFFFFFFFFFFFFFFFFFFFFF64
:100CA000FFFFFFFFFFFFFFFFFFFFFFFFFFFFFFFF54
:100CB000FFFFFFFFFFFFFFFFFFFFFFFFFF7F0FC7EC
:100CC000F1F8FCFEFFFFFF010008FFFFFFFFFFFF41
:100CD000FFFFFFFFFFFFFFFFFFFFFFFFFF07007C9E
:100CE000FFFFFFFFFFFFFFFFFFFFFFFFFFFFFFFF14
:100CF000FFFFFFFFFF0000DFFFFFFFFFFFFEF8F138
:100D0000C71FFFFFFFFFFFFFFFFFFFFFFFFFFFFF0B
:100D1000FFFFFFFFFFFFFFFFFFFFFFFFFFFFFFFFE3
:100D2000FFFFFFFFFFFFFFFFFFFFFFFFFFFFFFFFD3
:100D3000FFFFFFFFFFFFFFFFFFFFFFFFFF001FFFA2
:100D4000F7FFF7FBFBFBFFF8E0001777F7E7EFEFA4
:100D5000EFCFDFDFDFDFDFDFDFEFE3F8FFF280BCC5
:100D6000F3E7CFDFDFDFBFDFDFDFDFEFEFEFF7F747
:100D7000F7FB7B1B83C0F0FDFFFDFFFBFFFBFB7F51
:100D80000FC0F8FFFFFFFFFFFFFFFFFFFFFFFFFFA9
:100D9000FFFFFFFFFFFFFFFFFFFFFFFFFFFFFFFF63
:100DA000FFFFFFFFFFFFFFFFFFFFFFFFFFFFFFFF53
:100DB000FFFFFFFFFFFFFFFFFFFFFFFFFFFFFEF84B
:100DC000F1F7E7CFDFDF9FBFBF3F7E7C78716367BE
:100DD0004F4F1F1F9FBF1FDFDFEFE7F7F3F9FCFC4B
:100DE000F1F7E7EFDF5F1FBF5F1F1F4F4F4F6763D5
:100DF00071787C7E7F7F3FBF9FDFCFE7E7F3F8FE10
:100E0000FFFFFFFFFFFFFFFFFFFFFFFFFFFFFFFFF2
:100E1000FFFFFFFFFFFFFFFFFFFFFFFFFFFFFFFFE2
:100E2000FFFFFFFFFFFFFFFFFFFFFFFFFFFFFFFFD2
:100E3000FFFFFFFFFFFFFFFFFFFFFFFFFFFFFFFFC2
:100E4000FF7F3F9F8FCFE7E7731104C6F1F8FCFEE9
:100E5000FFFFFFFFFFFFFFFFFFFFFFFFFFEF0F0F92
:100E60008FE7F7FFFFFFFFFFFFFFFFFFFFFFFFFF22
:100E7000FFFFFFD80109FCFCF8F1E7C7CF9F3F7FD8
:100E8000FFFFFFFFFFFFFFFFFFFFFFFFFFFFFFFF72
:100E9000FFFFFFFFFFFFFFFFFFFFFFFFFFFFFFFF62
:100EA000FFFFFFFFFFFFFFFFFFFFFFFFFFFFFFFF52
:100EB000FFFFFFFFFFFFFFFFFFFFFFFF3F0FE3F11C
:100EC000FCFE7F7FFFFF7F0500207F7FFFFFFFFF8E
:100ED000FFFFFFFFFFFFFFFFFFFFFF7F9FC3007CC0
:100EE000FFFFFFFFFFFFFFFFFFFFFFFFFFFFFFFF12
:100EF0007F7F7F7F7EB0000F7FFF7F7FFFFFFEFC45
:100F0000F1031FFFFFFFFFFFFFFFFFFFFFFFFFFFDB
:100F1000FFFFFFFFFFFFFFFFFFFFFFFFFFFFFFFFE1
:100F2000FFFFFFFFFFFFFFFFFFFFFFFFFFFFFFFFD1
:100F3000FFFFFFFFFFFFFFFFFFFFFFFFC0013FFDC0
:100F4000FEFFFFFFFFFFFFF8C0011F7FFEFEFCFD5D
:100F5000FDFBFBFBF3F7F7FBFBFDFCFEFF60003F37
:100F6000FCF9FBF7F7F7F7F7F3FBFBFDFDFEFEFEE1
:100F7000FFFF7F3F1F83C0F0FDFFFFFFFF7F3E9F0E
:100F8000C3F0FFFFFFFFFFFFFFFFFFFFFFFFFFFFBC
:100F9000FFFFFFFFFFFFFFFFFFFFFFFFFFFFFFFF61
:100FA000FFFFFFFFFFFFFFFFFFFFFFFFFFFFFFFF51
:100FB000FFFFFFFFFFFFFFFFFFFFFFFFFFFFFEFC45
:100FC000F9F3F7E7EFEFCFDF9F9FBC3C38B1B3A752
:100FD000A78F8FAF5F8F6FEFF7F7FBF9FD7E7F7EF7
:100FE0007C797377E76F0F9F5FDF8F8FAFA7A7B312
:100FF000B1B81C9CDE5F0FCFEFE7F3FBF9FCFEFFFF
:10100000FFFFFFFFFFFFFFFFFFFFFFFFFFFFFFFFF0
:10101000FFFFFFFFFFFFFFFFFFFFFFFFFFFFFFFFE0
:10102000FFFFFFFFFFFFFFFFFFFFFFFFFFFFFFFFD0
:10103000FFFFFFFFFFFFFFFFFFFFFFFFFFFFFFFFC0
:10104000FFFFFF7F3F1F8F873130C0F0FCFEFFFFA7
:10105000FFFFFFFFFFFFFFFFFFFFFFFFFF7F7F7F20
:101060007FFFFFFFFFFFFFFFFFFFFFFFFFFFFFFF10
:10107000FFFFFFFFFE00003BC080033FFFFFFFFFBD
:10108000FFFFFFFFFFFFFFFFFFFFFFFFFFFFFFFF70
:10109000FFFFFFFFFFFFFFFFFFFFFFFFFFFFFFFF60
:1010A000FFFFFFFFFFFFFFFFFFFFFFFFFFFFFFFF50
:1010B000FFFFFFFFFFFFFFFFFFFFFFFFFFFF7F1FA0
:1010C000C7F3F9FCFEFFFFC70000FFFFFFFFFFFFB4
:1010D000FFFFFFFFFFFFFFFFFFFFFFFFFFFF00001E
:1010E000FFFFFFFFFFFFFFFFFFFFFFFFFFFFFFFF10
:1010F000FFFFFFFF7F0000F8FFFFFFFEFCF1E38F23
:101100003FFFFFFFFFFFFFFFFFFFFFFFFFFFFFFFAF
:10111000FFFFFFFFFFFFFFFFFFFFFFFFFFFFFFFFDF
:10112000FFFFFFFFFFFFFFFFFFFFFFFFFFFFFFFFCF
:10113000FFFFFFFFFFFFFFFFFFFFFFFFFFC300FEFB
:10114000FFBFBFFFDFBFFFF49080073FBFFF7F7F80
:101150007F7F7F7F7F7F7F7F7F7F3FCFE3FD186330
:10116000DF9F3F7F7FFFFFFFFF7F7F7F7FBFBFBF8F
:10117000FF3F1F83C0F8FFEFEFEFEFFFEFFFEFFF41
:101180004E00FFFFFFFFFFFFFFFFFFFFFFFFFFFF1F
:10119000FFFFFFFFFFFFFFFFFFFFFFFFFFFFFFFF5F
:1011A000FFFFFFFFFFFFFFFFFFFFFFFFFFFFFFFF4F
:1011B000FFFFFFFFFFFFFFFFFFFFFFFFFFFFFCF849
:1011C000F3E7CF9F3F3FBF7F7F7FFEFCF8F3E7C78A
:1011D000CF9F1F3F3F3F7F3FBF9FDFCFE7F3F8F138
:1011E000E7CFDF9FBF3E3E3E3F3EBF9F9FCFE7E33F
:1011F000F9FCFEFFFFFFFF7F7F3FBF9FCFE7E3F9D3
:10120000FCFFFFFFFFFFFFFFFFFFFFFFFFFFFFFFF1
:10121000FFFFFFFFFFFFFFFFFFFFFFFFFFFFFFFFDE
:1012200000000000000000000000000000000000BE
:1012300000000000000000000000000000000000AE
:1012400000000000000000000080C0C0607030702E
:10125000F8FE033E78C8880C0C040603011C3C66AB
:10126000C6870303010100008080C0C0616332367D
:101270001E1C0C000000000000000080818386CC52
:101280007C061EF0000000000000000000000000CE
:10129000000000000000000000000000000000004E
:1012A000000000000000000000000000000000003E
:1012B000000000000000000000000000000000002E
:1012C0000080C060785C56D793B1A160404060F068
:1012D000FF1F0C0C3FE7C3C0C040C0C0C0C0C0C0AF
:1012E000C18383868682838381818080C0C0C0C0A1
:1012F000C0C0C0C0C0C0C0C0C080808F1B1130182B
:10130000181C0CFF7E000000000000000000000020
:1013100000000000000000000000000000000000CD
:1013200000000000000000000000000000000000BD
:1013300000008080C0C0E060703018180C0C0606F9
:10134000030100000000000000000101010101FF95
:10135000038080F81C877773D6C4083879696CC419
:10136000C4C4848484848484C4C4C4C4C46C7830F5
:101370001111191808084DADA787478F8A1818F062
:10138000F0F83F1F06000000000000000000000011
:10139000000000000000000000000000000000004D
:1013A000000000000000000000000080E070380C29
:1013B0000603030100000000000000000000000020
:1013C00080E07818181018F8E000000000FCFFCF4B
:1013D000C141CA99FDFF0E1703E1A040408080C0C3
:1013E000E0C08101010101010000000000000000D7
:1013F000004040E000000000000003BAFDEFC7031A
:1014000001000000000000000000000000000000DB
:1014100000000000000000000000000000000000CC
:1014200000000000000000000000000000000000BC
:1014300000000000000000000000000000000000AC
:1014400000000000000000000080C0C0607030702C
:10145000F8FE033E78C8880C0C040603011C3C66A9
:10146000C6870303010100008080C0C0616332367B
:101470001E1C0C000000000000000080818386CC50
:101480007C061EF0000000000000000000000000CC
:10149000000000000000000000000000000000004C
:1014A000000000000000000000000000000000003C
:1014B000000000000000000000000000000000002C
:1014C0000080C060785C56D793B1A160404060F066
:1014D000FF1F0C0C3FE7C3C0C040C0C0C0C0C0C0AD
:1014E000C18383868682838381818080C0C0C0C09F
:1014F000C0C0C0C0C0C0C0C0C080808F1B11301829
:10150000181C0CFF7E00000000000000000000001E
:1015100000000000000000000000000000000000CB
:1015200000000000000000000000000000000000BB
:1015300000008080C0C0E060703018180C0C0606F7
:10154000030100000000000000000101010101FF93
:10155000C3E070F8EC6777F3F6D4083879696CC4A7
:10156000C4C4848484848484C4C4C4C4C46C7830F3
:101570001111191808086DAD2F87478F1A1870E0E0
:10158000F8F83F1F06000000000000000000000007
:10159000000000000000000000000000000000004B
:1015A000000000000000000000000080E070380C27
:1015B000060303010000000000000000000000001E
:1015C00080E07818181018F8E000000000FCFFC751
:1015D00081F2C11CFEFE2C3F37E06040008080C0DD
:1015E000E0C0010101010101000000000000000055
:1015F000000000000000000000000302BDFEE70341
:1016000001000000000000000000000000000000D9
:1016100000000000000000000000000000000000CA
:1016200000000000000000000000000000000000BA
:1016300000000000000000000000000000000000AA
:101640000000000000000000000080C0C0E06070EA
:10165000703838181C9C9CDC7C3C0CECFCFC30D0BA
:10166000F8780E077FFCC683010100000000000629
:101670000F0F1B191930306060E0C0C08081030378
:1016800083C3E7763C3870E0C0C0F07E07FE000000
:10169000000000000000000000000000000000004A
:1016A000000000000000000000000000000000003A
:1016B000000000000000000000000000000000002A
:1016C0000080C0E060787C7E5E57D3B1A1A0A0A06E
:1016D000B098CC4E673311180E07FFFFFF000003D0
:1016E000070E0C1C181C0F878080808080808080F3
:1016F000C0404040404040404040406161634347FB
:10170000434340C0C04040C1FFFD7C0607030000CA
:1017100000000000000000000000000000000000C9
:1017200000000000000000000000000000000000B9
:1017300000008080C0C0E060703038181C0C0E06BD
:101740000703010000000000000000000000C0FFCF
:1017500003000000000000000000010FFFF7E7C0D9
:10176000E0703018181A5FDFDF1C18181819595864
:1017700018183C3C343636363636766666C6C6C6EB
:10178000C666ECBC3C5C1C060D18F0E080808080D6
:101790000000000000000000000000000000000049
:1017A0000000000000000000000080C0E030180CC5
:1017B000060301010000000000000000000000001E
:1017C00080E0781818181C0E06FEF00000FEFF00DE
:1017D00000000000000000000000000003F3FFDF35
:1017E00000E0F0787C7C773F1B1F1E1E0C000181FF
:1017F000C0C08000000000000000010505050101D7
:101800000100000000000000804020010000070FE0
:10181000F870000000000000000000000000000060
:1018200000000000000000000000000000000000B8
:1018300000000000000000000000000000000000A8
:101840000000000000000000000080C0C0E06070E8
:10185000703838181C9C9CDC7C3C0CECFCFC30D0B8
:10186000F8780E077FFCC683010100000000000627
:101870000F0F1B191930306060E0C0C08081030376
:1018800083C3E7763C3870E0C0C0F07E07FE0000FE
:101890000000000000000000000000000000000048
:1018A0000000000000000000000000000000000038
:1018B0000000000000000000000000000000000028
:1018C0000080C0E060787C7E5E57D3B1A1A0A0A06C
:1018D000B098CC4E673311180E07FFFFFF000003CE
:1018E000070E0C1C181C0F878080808080808080F1
:1018F000C0404040404040404040406161634347F9
:10190000434340C0C04040C1FFFD7C0607030000C8
:1019100000000000000000000000000000000000C7
:1019200000000000000000000000000000000000B7
:1019300000008080C0C0E060703038181C0C0E06BB
:101940000703010000000000000000000000C0FFCD
:1019500003000000000000000000010F3FD747E037
:10196000C0F03018189ADF3F1F1C18185859191862
:1019700018181C3CB4B6B63676767666C6C6C6C6A9
:10198000C6666C3C3C3C1C060D78F0C08000000034
:101990000000000000000000000000000000000047
:1019A0000000000000000000000080C0E030180CC3
:1019B000060301010000000000000000000000001C
:1019C00080E0781818181C0E06FEF00000FEFF00DC
:1019D00000000000000000000000000000E1F3FF34
:1019E0000F070706CDF8F8DDEFF71B9B0B0B050182
:1019F000008080800002000000000001010501015C
:101A00000000000000000000008000010107067CCB
:101A1000F8000000000000000000000000000000CE
:101A200000000000000000000000000000000000B6
:101A300000000000000000000000000000000000A6
:101A40000000000000000000000080C0C0E06070E6
:101A5000703838181C9C9CDC7C3C0CECFCFC30D0B6
:101A6000F8780E077FFCC683010100000000000625
:101A70000F0F1B191930306060E0C0C08081030374
:101A800083C3E7763C3870E0C0C0F07E07FE0000FC
:101A90000000000000000000000000000000000046
:101AA0000000000000000000000000000000000036
:101AB0000000000000000000000000000000000026
:101AC0000080C0E060787C7E5E57D3B1A1A0A0A06A
:101AD000B098CC4E673311180E07FFFFFF000003CC
:101AE000070E0C1C181C0F878080808080808080EF
:101AF000C0404040404040404040406161634347F7
:101B0000434340C0C04040C1FFFD7C0607030000C6
:101B100000000000000000000000000000000000C5
:101B200000000000000000000000000000000000B5
:101B300000008080C0C0E060703038181C0C0E06B9
:101B40000703010000000000000000000000C0FFCB
:101B500003000000000000000000010FFF17C7A0F5
:101B6000C0703018189ADF3F1F1C18181819591820
:101B700018181C3C3436363636367666C6C6C6C6A7
:101B8000C6666C3C3C3C1C060D78F0C080800000B2
:101B90000000000000000000000000000000000045
:101BA0000000000000000000000080C0E030180CC1
:101BB000060301010000000000000000000000001A
:101BC00080E0781818181C0E06FEF00000FEFF00DA
:101BD00000000000000000000000000000E1FEFF27
:101BE0002F0604E8F8B9CCFEF7FBFF1F0E01010039
:101BF00080C0C08000000000000000000505050155
:101C00000000000000000000000000010103073C8C
:101C1000F0000000000000000000000000000000D4
:101C200000000000000000000000000000000000B4
:101C300000000000000000000000000000000000A4
:101C40000000000000000000000080C0C0E06070E4
:101C5000703838181C1C9CDCFC7CBCFCFCFC1C0C8C
:101C6000FFFFF88C060203030100040E0E1A1A325D
:101C7000337360C0C08080010303020686C6F43C53
:101C80000903030E1CF8E080E03C0FFC000000009C
:101C90000000000000000000000000000000000044
:101CA0000000000000000000000000000000000034
:101CB0000000000000000000000000000000000024
:101CC0000080C0E060787C7E5E57D3B1A1A0A0A068
:101CD000B098CC4E663331180E7FFFE0870F0C1C96
:101CE0001C1C0F8F838080C0C0C0C0C0C0C0C0C0DB
:101CF000C0C0C0C0C1C1C3C3C6C6C6C7C3C1C0C0BF
:101D0000C0C0C0C0800FD9F0F80C0701000000006F
:101D100000000000000000000000000000000000C3
:101D200000000000000000000000000000000000B3
:101D300000008080C0C0E060703038181C0C0E06B7
:101D40000703010000000000000000000000C0FFC9
:101D50000300000000000000000001C1C3E3F73FE2
:101D60001F1F4F070F0F8F8D0C0C181818193938BB
:101D7000FC6C646464C6C6868686C6C4C4E47C38CB
:101D8000391908080D0F0F1FF3E0000000000000D4
:101D90000000000000000000000000000000000043
:101DA0000000000000000000000080C0E030180CBF
:101DB0000603010100000000000000000000000018
:101DC00080E0781818181C0E06FEF00000FEFF00D8
:101DD000000000000000000000000003E7FFFFDD3E
:101DE000F6FF1DCEF7FBCF8780000080C08080000B
:101DF000000000000000000101010100000000805F
:101E00008000008000000000010306FCF8000000D4
:101E100000000000000000000000000000000000C2
:101E200000000000000000000000000000000000B2
:101E300000000000000000000000000000000000A2
:101E40000000000000000000008080C0E0607030F2
:101E5000383818181898F8F8381C063F7CE6C38103
:101E6000010000000002060E1A327262C3C3800035
:101E700000000000030786C6E666361E0000010368
:101E8000070E9CF8F0603804FC0000000000000021
:101E90000000000000000000000000000000000042
:101EA0000000000000000000000000000000000032
:101EB0000000000000000000000000000000000022
:101EC0000080C0E0707C5E5F57D3B1A1A0A0A0A04D
:101ED000F0787C3E1F0F073BFF8EFC989888878721
:101EE00080C0C0C0C0C0C0C0C0C0C0C0C0C141432D
:101EF000464E4C4C4E47C3C1C0C0C0C0C0C0C0C09D
:101F0000C0CFDF9910D8FC3E0300000000000000A5
:101F100000000000000000000000000000000000C1
:101F200000000000000000000000000000000000B1
:101F300000008080C0C0C06060303038181C0C0EBB
:101F40000703010000000000000000000000E0FFA7
:101F5000070000000000000120CBCBCF06C4C487DF
:101F6000878C8808081919183878646464E4C4C434
:101F7000C6C6C6C6C4C4E464646438381909080413
:101F800004020F07FDFF1F0F00000000000000000B
:101F90000000000000000000000000000000000041
:101FA0000000000000000000000000C0E070180CFD
:101FB0000603030101000000000000000000000013
:101FC00080E0781818103C00FCE0000000FCFF01E5
:101FD00000000000000000000041F31FEE0EF7FBC0
:101FE000FFF7630000C00080000000000000000058
:101FF00000000000000000000000008080808000E1
:1020000000000000070FF8F80000000000000000CA
:1020100000000000000000000000000000000000C0
:1020200000000000000000000000000000000000B0
:1020300000000000000000000000000000000000A0
:102040000000000000000000008080C0C060703010
:10205000381818FCFC3E031F7CF8888C060301002E
:1020600000000C1E3666C68303000000000000005E
:1020700083C3E266343C0C040000000001010386C7
:10208000CEFCF81C0CFC000000000000000000006A
:102090000000000000000000000000000000000040
:1020A0000000000000000000000000000000000030
:1020B0000000000000000000000000000000000020
:1020C0000080E070785C5E5753D3B1A0A0A0A0F070
:1020D000F87C3F0B0F86FC8C8C0CCF87808080C0F7
:1020E000C0C0C0C0C0C0C0C1C3C7C6CCCCC6C7C3B7
:1020F000C1C0C0C0C0C0C0C0C0C0C0C0C0C0C79FF9
:1021000019101078FCCF0000000000000000000053
:1021100000000000000000000000000000000000BF
:1021200000000000000000000000000000000000AF
:102130000000808080C0C060603038181C0C0E0623
:102140000301000000000000000000010101F0FF99
:1021500003000000000101F7DFA5E7C7C7C70D08AE
:1021600008187979E4C4C4C4C68686868686C6C63D
:10217000C4E464687838380909090C0407070707BC
:102180001DF8F0791F0F00000000000000000000A3
:10219000000000000000000000000000000000003F
:1021A000000000000000000000000080E070180C3B
:1021B0000603010100000000000000000000000014
:1021C00080E03818181018F8F000000000FEFF0139
:1021D0000000000000F8EE73E2C3FDFE477320C06C
:1021E000C00000000080000000010101010100802A
:1021F000808080000080C0400000000000000004DB
:102200000FFFF100000000000000000000000000CF
:1022100000000000000000000000000000000000BE
:1022200000000000000000000000000000000000AE
:10223000000000000000000000000000000000009E
:1022400000000000000000000080C0C0607030701E
:10225000F8FE033E78C8880C0C040603011C3C669B
:10226000C6870303010100008080C0C0616332366D
:102270001E1C0C000000000000000080818386CC42
:102280007C061EF0000000000000000000000000BE
:10229000000000000000000000000000000000003E
:1022A000000000000000000000000000000000002E
:1022B000000000000000000000000000000000001E
:1022C0000080C060785C56D793B1A160404060F058
:1022D000FF1F0C0C3FE7C3C0C040C0C0C0C0C0C09F
:1022E000C18383868682838381818080C0C0C0C091
:1022F000C0C0C0C0C0C0C0C0C080808F1B1130181B
:10230000181C0CFF7E000000000000000000000010
:1023100000000000000000000000000000000000BD
:1023200000000000000000000000000000000000AD
:1023300000008080C0C0E060703018180C0C0606E9
:102340000301000000000000000001010101F9FF8D
:102350000380C060BC6F27B3E664083879696CC439
:10236000C4C4848484848484C4C4C4C4C46C7830E5
:102370001111191808080D0D0707070F1A38E0E0AA
:10238000E0F87F1F060000000000000000000000D1
:10239000000000000000000000000000000000003D
:1023A000000000000000000000000080E070380C19
:1023B0000603030100000000000000000000000010
:1023C00080E07818181018F8E000000000FE9F6404
:1023D000FEFBFCF7DCBEF7E3402060C060004080FD
:1023E000808001010101010180C0404000000080A7
:1023F00040404000000000000000009CFEFE07017D
:1024000001000000000000000000000000000000CB
:1024100000000000000000000000000000000000BC
:1024200011241FBECFE5D8E0DEBFCDBF25E0A8EF69
:10243000B0E001C01D92AC30B207E1F710E0A0E6B9
:10244000B0E0EEE8FEE602C005900D92A83FB107AD
:10245000D9F70E94CA2C0C9424370C940000A82FA2
:10246000B92F80E090E041E050EA609530E009C08B
:102470002D9182279795879510F084279527305EB8
:10248000C8F36F5FA8F30895EADF8D939D930895D5
:10249000CF93CFB7CF93DF93C395839BE9F7839B0C
:1024A00010C0839B0EC0839B0CC0839B0AC0839B80
:1024B00008C0839B06C0C091E604C395C093E604A0
:1024C0008EC06F93C091E504DD27C651DB4F2F937B
:1024D00065E5839B03C02F916F91E1CF0F931F930D
:1024E0004F9320E040E15F9300B30C7003FB27F9AA
:1024F0003F9350E03BE039C01C7040642F77012FC0
:102500005F5F1EC0406810B31C702F7752501FC011
:10251000406400B32F770C70D1F15F5F00C023C01F
:10252000406210B32F771C7091F15F5F00C025C02F
:102530000C701027515012F45D5F00001150279568
:102540002C3F10B3C8F61C700127015027952C3F73
:10255000C8F64227499300B30C7010274F731150EF
:1025600027952C3FA8F64695469510B31C7079F038
:102570000127015027952C3F98F66B5A60F3315094
:1025800000B3B0F600C010E81ABF00271CC03B50D3
:102590003195C31BD04010E81ABF0881033C21F1DC
:1025A0000B3411F12091E3041981110F1213EDCFB7
:1025B0004A81441F093679F10D3211F0013E29F7A5
:1025C0004F7009F0042F0093E9043F915F914F9100
:1025D0001F910F912F916F91CAB7C7FD5DCFDF910A
:1025E000CF91CFBFCF9118952091E904222369F3B1
:1025F0001091E704112309F049C034300AF448C0AF
:102600003093E7042093E4041091E5043BE0311B90
:102610003093E5043DC00091E7040130BCF50AE5C4
:102620004F7049F43091610034FD33C00093610074
:10263000C0ECD4E032C0433059F0443091F03091D6
:10264000CB0434FD26C00093CB04CCECD4E025C0F1
:102650003091000534FD1DC000930005C1E0D5E0B8
:102660001CC03091D70434FD14C00093D704C8EDCA
:10267000D4E013C0052710E000C0000002BB1AC060
:10268000052710E0221F1DC010E021C04AE502C04E
:1026900032ED432FC4E1D0E032E011B31C60939AD5
:1026A00002B311BB5CE020E865E320FF052702BB15
:1026B000279517951C3FF0F66695B8F7B1F720FF00
:1026C000052702BB279517951C3FD0F62795179530
:1026D00017FF052700001C3F02BBB0F629913A9571
:1026E00019F7037F1091E804110FC651D04002BBC7
:1026F00011F01093E30410E81ABF086011B3137FC0
:10270000402F437F54E05A95F1F702BB11BB42BB07
:102710005CCF0F931F93CF93DF93DC01FB01EA01A2
:102720008C9168810E941D369C93892F90E0222312
:1027300061F028812150330BA901481B590BCA01B4
:1027400057FF03C0919581959109982F8827990F7C
:10275000E80FF91F2091BE043091BF04C9018E5BC0
:1027600092402E5B304021303240D8F020E032E001
:10277000281B390B4091BC025091BD02280F391F14
:1027800001E010E08217930778F05093BD02409368
:10279000BC028C918F5F8C93DF91CF911F910F9131
:1027A000089520E032E0E6CF6491EC01C254DD4FA1
:1027B0007881671779F06883BC01C5E076956795E5
:1027C000CA95E1F7E80102C0CC0FDD1F6A95E2F778
:1027D0004C2B5D2B01963196D5CF1092B8021092FA
:1027E000BA021092B602E091AE0287E0E89FF001D3
:1027F0001124E751FF4F80818093B702818180933C
:10280000B90282818093B40208959C01FB019A95DC
:1028100081159F4120F5D901AA27B270832F8170BD
:10282000B90166277470A9014427587034FF0DC0A0
:102830008295807FAB2B09F08062672B09F0806462
:10284000452B09F0806809950895AB2B09F082604B
:10285000672B09F08460452BB1F38860F4CF80E0EA
:10286000F2CF282F92959F70963091F060F4925F8E
:102870009F70923030F481E0203F79F030F4283EB0
:1028800030F080E008959A5FF3CF243FD1F70895A8
:1028900081E0283EE0F3213FF9CF089580933F0285
:1028A000089580934002089521E030E001C0220F96
:1028B0008A95EAF780914002822B0E945114089574
:1028C00021E030E0A90102C0440F551F8A95E2F7CC
:1028D000CA0180959091400289230E945114089565
:1028E000963088F5803178F540E1949F900111246D
:1028F000280F311D877041E001C0440F8A95EAF727
:1029000083E0369527958A95E1F7F901EE0FFF1FD1
:10291000E20FF31FE452FE4F80E090E070E051912F
:10292000DF0111979B01082E02C0369527950A9466
:10293000E2F7217021952527242325272C93019642
:102940008330910561F70895963078F5803168F508
:1029500040E1949F90011124280F311D982F97700A
:1029600083E0369527958A95E1F7F901EE0FFF1F71
:10297000E20FF31FE452FE4F40E050E080E021916F
:1029800030E0092E02C0369527950A94E2F72170AF
:102990003327042E01C0220F0A94EAF7822B4F5FDF
:1029A0005F4F4330510559F7089580E008959091A5
:1029B000400221E030E0F90101C0EE0F8A95EAF70C
:1029C000D90102C0AA0FBB1F6A95E2F7EA2B01C02A
:1029D000220F4A95EAF7892F8E23E81305C0892F25
:1029E000822B0E94511408952095822F8923F9CFBC
:1029F00080916C0290916B02981301C008958F5FD3
:102A00008770FACF80913E0290916A02892B809361
:102A1000FA00E091DA01F091DB01309731F00280A9
:102A2000F381E02D8AEF90E009950895882339F02D
:102A300090913E02892B80933E020E9402150895D8
:102A4000882339F090916A02892B80936A020E9450
:102A500002150895882341F0809590916A02892398
:102A600080936A020E9402150895982F9095809194
:102A70003E02892380933E020895882321F00E941C
:102A800035150E9402150895803E9105D1F1C8F4D4
:102A90008133910509F47FC048F48932910509F426
:102AA0006FC08A32910509F47DC00895893391057C
:102AB000E1F082389105C9F08533910509F45BC0D6
:102AC0000895843E9105D1F148F4823E910531F19B
:102AD000833E910541F181EE90E00895863E910597
:102AE000C1F1873E9105E1F108952091D201237053
:102AF000211165C02091D30123FF14C089E290E029
:102B000008952091D20120FD43C03091D30130FFC0
:102B100009C024FF4EC080E090E008952091D201CA
:102B200022FDF7CF08952091D20122FD45C03091BA
:102B3000D30130FD44C024FFF5CFEDCF2091D30168
:102B400021FFF0CF8091D20184FDE5CF87EE90E0A8
:102B500008952091D20123FFE5CF24FDDCCFF6CFED
:102B60002091D20123FD2EC03091D30131FFE3CF5C
:102B700084EE90E008952091D20125FFD3CFBECFFF
:102B80002091D20125FD21C02091D30123FFCACF7E
:102B900089E390E008952091D20126FFC3CF8AE215
:102BA00090E008952091D20126FFBCCF81E390E010
:102BB000089583EE90E0089582EE90E0089580EE0F
:102BC00090E0089586EE90E0089585E390E0AACF26
:102BD0009091D20192FF10C041E0282F247124303F
:102BE00009F040E031E0282F2871283009F030E06A
:102BF000431711F02CE0822793FF10C041E0282FEB
:102C00002471243109F040E031E0282F2871283167
:102C100009F030E0431711F02CE082273091D30106
:102C200030FF10C051E0282F2171213009F050E011
:102C300041E0282F2871283009F040E0541711F0A6
:102C400029E0822731FF10C041E0282F2171213176
:102C500009F040E031E0282F2871283109F030E0F8
:102C6000431711F029E0822794FD877E08951F9372
:102C7000CF93DF930E944415EC01811520E5920764
:102C800008F048C0811540E4940708F0C2C0803EB7
:102C90009105E0F0811550E2950798F18D2F8F7125
:102CA0000E94E815182FCE0199270E944415212F64
:102CB00030E0322F222722273F71282B392BE901C0
:102CC000D062CE01DF91CF911F9108958D3C910587
:102CD00008F08BC0883A910560F4853A910508F0B8
:102CE00076C08130910569F30497813A910548F3E4
:102CF00005C0885A91094B9708F46CC0C0E0D0E039
:102D0000E0CF8F3F910511F008F071C0805E91090E
:102D10000797EDCFC03682E5D80738F5C03422E5F5
:102D2000D20708F093C0C03242E5D40738F0CF7123
:102D3000D0E0DC2FCC27C16FD06AC3CF8C2FC11558
:102D400052E5D50708F06EC08F710E94E815282F54
:102D500030E084FD9CC085E0D695C7958A95E1F763
:102D6000CF703C2BE901D069ACCFC03C82E5D807DD
:102D700008F5C03A22E5D20708F07EC0CE018056A1
:102D80009245809708F0BACF8C2F869586958770EC
:102D900050E2859FC0011124C37021E030E0A901F9
:102DA00002C0440F551FCA95E2F7EA01C82BD92B80
:102DB000DA6887CFCE01805C9245809708F09ECF7D
:102DC000DC2FCC27CC27DF71C06FD06A7ACFA497D5
:102DD000D06477CFC85AD0E0CC0FDD1FCD54DF4F81
:102DE0000990D881C02DD4646CCFD0656ACF8D2F67
:102DF0000E94E815182FCE0199270E944415212F13
:102E000030E0322F2227E901CC27DF71C82BD92BE4
:102E100058CF99270E944415CC27DF70C82BD92B97
:102E2000D06A4FCF8695869540E2849FC0011124D9
:102E3000C37021E030E0A90102C0440F551FCA95BC
:102E4000E2F7EA01C82BD92BDD683BCF8C2F8695A2
:102E50008695877050E2859FC0011124C37021E0E0
:102E600030E0A90102C0440F551FCA95E2F7EA01FC
:102E7000C82BD92BDC6825CF8C2F8F710E94E815C9
:102E8000C82FD0E0DC2FCC27CC27DF711ACF94E0FD
:102E9000220F331F9A95E1F75ECF80E00895F894F2
:102EA000E82FE295EF70F0E041A98F7021E030E06B
:102EB000B90102C0660F771F8A95E2F7CB01962F02
:102EC0009095942391AB92A9892B82AB7894089525
:102ED0008091410290914202909376008093750018
:102EE0000895A0E0B0E0E7E7F7E10C94EC35FB01D2
:102EF0008FEF9FEF4430510508F465C04091D20137
:102F000041FB882780F990E0880F991F42FBAA2493
:102F1000A0F8B12CAA0CBB1CAA0CBB1C8A299B29AB
:102F200040FB882480F8912C8829992943FBCC24E4
:102F3000C0F8D12C53E0CC0CDD1C5A95E1F78C295C
:102F40009D2944FBEE24E0F8F12C64E0EE0CFF1C1C
:102F50006A95E1F78E299F2945FB002700F910E0CB
:102F600075E0000F111F7A95E1F7802B912B46FB3E
:102F7000222720F9C22F20E0D22FA6E0CC0FDD1FA0
:102F8000AA95E1F78C2B9D2B47FB442740F920E8BD
:102F9000429FA0011124842B952B2091D301322F25
:102FA0003170932B26952170B22FBB0FA0E08A2B96
:102FB0009B2B092E000CAA0BBB0B80839183A28351
:102FC000B38380E090E0CDB7DEB7ECE00C94083638
:102FD00021B381E090E0AC0102C0440F551F6A9517
:102FE000E2F7842F8095822381BB82B3842B82BB3E
:102FF000089580B390E002C0959587956A95E2F7B1
:1030000081700895AC0123E0969587952A95E1F7A4
:103010008E719927FC01E35EFE4F0190F081E02D57
:103020004F70552721E030E002C0220F331F4A9530
:10303000E2F7662341F0E22BF32B835E9E4FDC0127
:10304000ED93FC93089520953095E223F323F5CF7B
:1030500080917700877F8093770090916A029D7FAF
:1030600090936A0284FF08C08F7E809377008091DE
:103070003E02826080933E028091770085FF08C007
:103080008F7D8093770080913E02806280933E0224
:103090000E9402150895E091DA01F091DB0130976A
:1030A00029F00190F081E02D0995089580E00895C0
:1030B000A3E0B0E0EEE5F8E10C94F6359C018091D8
:1030C0001B0190911C0182179307A1F030931C0102
:1030D00020931B01E091DA01F091DB01309751F070
:1030E00083E089833B832A830084F185E02DCE0130
:1030F000019609952396E2E00C941236A3E0B0E025
:10310000E4E8F8E10C94F6359C0180911901909166
:103110001A0182179307A1F030931A012093190125
:10312000E091DA01F091DB01309751F084E089837E
:103130003B832A830084F185E02DCE010196099519
:103140002396E2E00C9412360F931F93CF93C82F6F
:10315000882339F18CEF8C0F813AB0F50CEF10E039
:10316000F8018191C81709F121E0E230F207C9F7AF
:10317000EFEF80E0D8019D918D01C91781F0EF3FFD
:1031800019F4911101C0E82F8F5F863099F7EF3F56
:1031900031F00E2E000CFF0BE650FF4FC2830E9451
:1031A0000215CF911F910F910895ECEFF0E08191FE
:1031B000C81303C0DF0111971C9231E0E230F3071E
:1031C000B1F70E940215D4CF80E28C0F883068F4EA
:1031D000C77081E090E001C0880FCA95EAF7C091FE
:1031E0003E02C82BC0933E02DACF8BE58C0F8330B2
:1031F00038F42C2F2452330BC9010E945818D1CF18
:10320000C85ACB3170F6EC2FF0E0EE0FFF1FED54F3
:10321000FF4F808191810E947E18C3CFCF93DF93AF
:10322000EC01805E9109089720F060E275E120973B
:1032300011F466E175E1CE010E9405148C2F0E9405
:10324000A418DF91CF910895882389F19CEF980FFE
:10325000913A78F4ECEFF0E09191891303C0DF012B
:1032600011971C9291E0E230F907B1F70E94021524
:10327000089590E2980F983050F4877091E001C063
:10328000990F8A95EAF7892F0E943515EFCF9BE5B4
:10329000980F933028F480E090E00E945818089529
:1032A000885A8B3120F480E090E00E947E180895C7
:1032B000CF93DF93EC010E942419CE01805E910927
:1032C000089720F06AE275E1209711F46DE375E14B
:1032D000CE010E940514DF91CF910895A4E0B0E0E3
:1032E000E4E7F9E10C94F6358FB7F89420911501D5
:1032F00030911601409117015091180129833A83AA
:103300004B835C838FBF69817A818B819C812496FA
:10331000E2E00C9412360E946E196093AF02709333
:10332000B0028093B1029093B20220E047EB52E0EA
:1033300060E27CE088EB92E00E94891308950E948D
:103340006E196093AF027093B0028093B1029093B4
:10335000B2028091BB029091B302983210F588239B
:10336000B1F021E049EB52E060E27CE18AEB92E0CF
:103370000E94891381E02091BA029091B902291329
:1033800001C080E08093BB021092B602089520E055
:1033900047EB52E060E276E188EB92E00E9489130D
:1033A000F3CF20E0811116C049EB52E060E27CE1EE
:1033B0008AEB92E00E94891381E02091BA029091F9
:1033C000B902291380E08093BB028093B50210926A
:1033D000B802089544EB52E060E272E186EB92E0BD
:1033E0000E948913F4CFA4E0B0E0E9EFF9E10C9476
:1033F000F435462F572FBC012FB7F8948091150153
:1034000090911601A0911701B09118012FBF8C0166
:103410009D01041B150B260B370BC901B80124961F
:10342000E4E00C94103688E198E00FB6F894A89583
:1034300081BD0FBE91BDA895F894D8E0CEE528E3F4
:10344000299320E0299314BEFFCF089580911401A1
:10345000089508950895FC018381833081F130F44B
:103460008130E9F0823019F180E00895813209F469
:1034700049C08232C9F7248135812130310509F4F0
:103480005AC02230310509F45DC0232B69F78CE561
:1034900091E090930B0180930A0184E4089589E3FD
:1034A00092E090930B0180930A0182E108958EEDE2
:1034B00091E090930B0180930A018BE5089582813E
:1034C0008230E9F050F4811112C08AED91E09093BE
:1034D0000B0180930A0184E00895833029F680EA85
:1034E00091E090930B0180930A018CE108958CEC9C
:1034F00091E090930B0180930A018CE008958EEB8C
:1035000091E0F7CF848195818130910571F082300F
:10351000910571F0892B09F0A7CF80EF91E090938E
:103520000B0180930A0189E0089589E092E0F7CFCA
:1035300089E292E0F4CF2AE331E030930B0120934B
:103540000A01089588E091E090930B0180930A01AD
:1035500082E30895662329F020916A022260209375
:103560006A029C0130522115304308F499270E94C9
:103570000E1908959C012115310509F408958FE96C
:103580009FE00197F1F700C0000021503109F3CF0F
:10359000CF92DF92FF920F931F93CF93DF93EC01B3
:1035A0008B01F42E8091770082FF66C0C0903502B7
:1035B000D0903602CC16DD0619F0209709F05CC0D9
:1035C000809177008B7F80937700C1E081FD10C0F0
:1035D00080913302909134029801281B390BC1E08D
:1035E00080917500909176002817390708F4C0E0A3
:1035F000C17080917700C0FB81F9809377006C2FB8
:10360000C6010E94021880913E0281FF08C080918D
:10361000770080618093770082E00E943515809169
:103620003E0285FF08C0809177008062809377001A
:1036300080E20E9435156C2FC6010E94AA1AFF2055
:1036400031F080915C0285FF02C086FF29C0809125
:103650005F02909160020E94BA1A809135029091A7
:1036600036029C0130522115304308F499270E94FC
:1036700058190E94281810C0CE019052811590430D
:10368000B8F4CE0199270E94581980913502909183
:103690003602C817D90769F3109334020093330236
:1036A000DF91CF911F910F91FF90DF90CF90089500
:1036B000CE01E9CF0F931F93CF93DF9301E412E084
:1036C000C1EBD1E0CE010E947036F80181938F01E9
:1036D0002196C53DF1E0DF07A9F7CAE3D9E0FE0175
:1036E00085919491009711F0FC0109952C96F9E0D1
:1036F000CA3CDF07A1F7DF91CF911F910F91089589
:103700000F931F93CF93DF93823030F5663020F50F
:10371000403110F520E2629FE001112450E0440F97
:10372000551FC40FD51F30EC839FC00DD11D112430
:10373000CE0189960E947036082F10E0102F0027C6
:10374000CE018A960E9470369801282BC901DF911C
:10375000CF911F910F91089580E090E0F8CF462F10
:10376000672F2091D6013091D701232B91F4703F20
:1037700039F4403F71F48091D4019091D5010895BE
:10378000763038F4403128F4823018F40E94801BDF
:10379000089580E090E00895A0E0B0E0E2EDFBE164
:1037A0000C94F1357C010091400280913F02082B7E
:1037B000C1E0D0E010E0C8010C2E02C095958795BD
:1037C0000A94E2F780FD09C02197A8F7D12C8D2D2E
:1037D000CDB7DEB7E7E00C940D36DC2EB7018C2FA9
:1037E0000E94AF1B0E943716019771F3F0CFCF9361
:1037F000DF93D82FC92F0E94CC1B6D2F7C2F0E94E6
:10380000AF1B0E943716DF91CF910895FC01848190
:10381000882339F0808191810E94F71B0E94311426
:10382000089580E008951F93CF93DF93182FD92F29
:10383000662399F0442389F00E94CC1BC82F682F7F
:10384000812F9D2F0E947014612F7D2F8C2F0E943D
:10385000AF1BDF91CF911F9108950E94A414C82F30
:10386000F3CFFC01462F6581808191810E94131C5A
:10387000089585E290E00E947036843389F486E2F0
:1038800090E00E9470368E3C59F487E290E00E94EE
:10389000703691E0853509F090E0892F81700895A8
:1038A00080E0FCCF1F93CF93DF93182FEB010E9492
:1038B000A418209739F4812F0E942419DF91CF9109
:1038C0001F9108958FE99FE00197F1F700C0000074
:1038D0002197EFCF6091610270916202893321F0EC
:1038E00060915F02709160020E94521C08951092D4
:1038F0003E02ECEFF0E086E0DF011D928A95E9F7E9
:1039000080E090E00E94581880E090E00E947E18CD
:1039100010926A020E94021508950E94771C2FEFF0
:1039200084E39CE0215080409040E1F700C000001B
:1039300088E198E00FB6F894A89581BD0FBE91BDBF
:10394000FFCFCF92DF92EF92FF92FB018FEF9FEFBD
:103950004430510508F481C0C080D180E280F380FA
:103960000E94771CD701C601B695A79597958795B4
:103970008170282F220FD701C60181709927AA27AD
:10398000BB27822BB701A60132E076956795579544
:1039900047953A95D1F74170440F440F842BB701F6
:1039A000A601E3E07695679557954795EA95D1F797
:1039B0004170440F440F440F842BB701A601F4E07B
:1039C0007695679557954795FA95D1F74170429549
:1039D000407F842BB701A601A5E0769567955795A2
:1039E0004795AA95D1F741704295440F407E842BAC
:1039F000B701A601B6E07695679557954795BA95B4
:103A0000D1F741704295440F440F407C842BB7019D
:103A1000A60197E076956795579547959A95D1F7C2
:103A2000479544274795842B8093D201D1FA882764
:103A300080F9880F9D2D9170892B9091D3019C7FE7
:103A4000892B8093D3016091D2017091D30184E0DE
:103A500090E00E94AB3680E090E0FF90EF90DF9026
:103A6000CF9008950F931F93CF93DF9301E412E05B
:103A7000C1EBD1E0CE010E947036F80161918F0157
:103A8000861719F0CE010E948E362196C53DF1E0D1
:103A9000DF0781F7DF91CF911F910F910895E1E446
:103AA000F2E0128E138E8FEA90E09183808385E09E
:103AB000848F28E833E13383228322E330E0378B9D
:103AC000268B28EC30E0318F208F158E178E168EC6
:103AD00020E530E031A320A382A30E94321D0E9482
:103AE000771C1092D3011092D20180E08460809301
:103AF000D30160E074E084E090E00E94AB360E9465
:103B00005A1B08951F93CF93DF93C62F122F632F55
:103B10008230D8F4C630C8F44031B8F490E2C99F7E
:103B2000E001112450E0440F551FC40FD51F90EC45
:103B3000899FC00DD11D1124CE0189960E948E3619
:103B4000612FCE018A960E948E36DF91CF911F9110
:103B500008958F929F92BF92CF92DF92EF92FF9241
:103B60000F931F93CF93DF938090AE019090AF019E
:103B700081E090E09093AF018093AE01C12CD12CF5
:103B8000B12C760110E012C0FE0125913491402F36
:103B9000612F8B2D0E94821D22960F5F0031A1F7AD
:103BA00080E1E80EF11C1F5F163039F0E701CC0F01
:103BB000DD1FC55BDD4F00E0E7CF80E6C80ED11CFE
:103BC000B11003C0BB24B394DCCF0E944F1D909270
:103BD000AF018092AE01DF91CF911F910F91FF90C5
:103BE000EF90DF90CF90BF909F908F900895CF93EC
:103BF000DF93C5EDD1E060E0CE010E948E362196C4
:103C0000C11584E0D807B9F7DF91CF9108958823D3
:103C100081F064E385E290E00E948E366EEC86E2ED
:103C200090E00E948E3665E587E290E00E948E3635
:103C300008956FEF85E290E00E948E366FEF86E286
:103C400090E00E948E366FEFEFCF80E00E94071E5B
:103C500060E088E290E00E948E360E94A91D0E94DA
:103C6000F71D81E00E94071E08959C01CB01BA0157
:103C7000F9013296459154916417750748F0F9019E
:103C80003496659174910E94603680E090E00895CA
:103C90008FEF9FEF08959C01DA010296FC01459198
:103CA0005491FC0185919491A817B90758F0F90136
:103CB0003496859194910E9460360E94321D80E076
:103CC00090E008958FEF9FEF0895AB0124E630E078
:103CD000BC0188E70E9435359C0181E0232B09F067
:103CE00080E0089580917201882369F080916502D7
:103CF000882349F062E070E086E590E00E94651E4E
:103D00008111109265020895A4E0B0E0EAE8FEE1B6
:103D10000C94F635809172018823F9F00E946E1997
:103D2000DC01CB01805A9541AF4FBF4F80937301A7
:103D300090937401A0937501B09376018091650210
:103D400081110BC062E070E084E590E00E94651E86
:103D5000882319F081E0809365022496E2E00C94B8
:103D600012361F93CF93DF93282F162F8091BE0416
:103D70009091BF042A30C9F4209177018E5B924064
:103D8000622F70E00E94D235281B822F66E00E94CD
:103D90001D36C82FC15020F4DF91CF911F91089597
:103DA00060E080E20E94B11EF5CF2D30F9F49C0155
:103DB0002E5B324040917701642F70E0C9010E9470
:103DC000D235481B842FA901480F511D411552407F
:103DD00018F080E020E030E0820F932F911D825494
:103DE0009D4F9093BF048093BE04D6CF36E0FC0174
:103DF000ADE5B1E001900D923A95E1F7203E90F1EA
:103E000026E0FC0111922A95E9F7C091BE04D091F9
:103E1000BF04111132C046E050E0BE018DE591E0D3
:103E20000E9453369E012E5B3240892B89F52A5F12
:103E30003F4F40917701642F70E0C9010E94D23555
:103E4000481B463010F4240F311D211572E037074E
:103E500010F020E030E022543D4F3093BF04209317
:103E6000BE049ACFF6E02F9FB001112462537C4F1D
:103E700046E050E00E944A36C8CF9E012A5F3F4F7D
:103E8000FE012E173F0739F2808180958193F9CF8B
:103E9000C90145E0969587954A95E1F741E050E0E4
:103EA000BA0102C0660F771F8A95E2F7CB016091D5
:103EB000BC027091BD02862B972BB9016B5F7F4FBF
:103EC000E5E076956795EA95E1F702C0440F551F46
:103ED0006A95E2F7842B952B9093BD028093BC02E8
:103EE000A6CFA0E0B0E0E7E7FFE10C94EF35EC01EE
:103EF0000881002309F4A8C0013009F044C0898179
:103F0000813049F48E010E5F1F4F8A810E946A1C26
:103F1000E8012196EDCF823039F48E010E5F1F4FFC
:103F20008A810E94A418F4CF833039F48E010E5F89
:103F30001F4F8A810E942419EBCF843011F0219603
:103F4000E8CF2A81229680E090E06AE0AE014F5FE0
:103F50005F4F2053330B2A30310550F00097C9F2E0
:103F6000EFE9FFE03197F1F700C000000197F6CFCD
:103F7000689FF001699FF00D1124C9018E0F9F1FEA
:103F80002981EA01E3CFE02FF0E0E857FF4FB4903A
:103F9000202F26952695269530E0F901E858FF4F09
:103FA000E4900770F12C002E02C0F594E7940A9477
:103FB000E2F7F1E0EF22FF24F901E859FF4FC49046
:103FC000D12C002E02C0D594C7940A94E2F781E068
:103FD000C822DD24F901E85AFF4F1491E114F104DD
:103FE000A9F4C114D10409F560E070E08B2D0E94A2
:103FF000521CE12FF0E002C0F595E7950A95E2F733
:10400000E0FF87CF8CE20E946A1C83CF81EE0E9482
:10401000A418C114D10449F460E070E08B2D0E9413
:10402000521C81EE0E942419E4CF86EE0E94A4184F
:1040300060E070E08B2D0E94521C86EE0E942419D5
:10404000E114F104B1F2EDCFCDB7DEB7E9E00C94A5
:104050000B362F923F925F926F927F928F929F9238
:10406000AF92BF92CF92DF92EF92FF920F931F9386
:10407000CF93DF9300D000D000D00F92CDB7DEB742
:1040800080917201882309F45CC08EEB92E09093DA
:10409000BF048093BE042091660230916702409174
:1040A000680250916902CA01B9010E94F31969833B
:1040B0007A838B839C8361367A4E8105910508F45F
:1040C00058C00E94721E8091BC029091BD02892B43
:1040D000A9F080917201882389F08091710181118A
:1040E0000DC00E94841E2091BC023091BD0280E070
:1040F00061E070E02115310509F0EBC080916502A7
:104100008823F9F00E946E1969837A838B839C83DC
:104110008091730190917401A0917501B091760125
:1041200029813A814B815C81281B390B4A0B5B0B3F
:10413000DA01C9018F3F9F4FAF4FBF4710F40E9474
:10414000721E27960FB6F894DEBF0FBECDBFDF916B
:10415000CF911F910F91FF90EF90DF90CF90BF9084
:10416000AF909F908F907F906F905F903F902F9037
:1041700008954091AE024D83042F10E08091AF026C
:104180009091B002A091B102B091B20289839A835A
:10419000AB83BC83E7E04E9FD0011124A751BF4FF2
:1041A000BF83AE8313968C91882309F470C08091ED
:1041B000B30281113CC069817A818B819C810E940C
:1041C000F31969837A838B839C83EE81FF818481D9
:1041D00090E0A0E0B0E029813A814B815C818217B8
:1041E0009307A407B50720F40580F681E02D099513
:1041F0000E944B1881FF67CFE091AE02B7E0EB9FC2
:10420000F0011124E751FF4F238181E02827298302
:10421000EBECF3E084918F01882309F454CF69819A
:104220000E94B11E0F5F1F4FF8018491F5CF698185
:104230007A818B819C810E94F319462F572FBC01F4
:104240008091BB02882331F08091B50225E030E0F7
:10425000811102C021E030E087E0809FF001819F62
:10426000F00D1124E751FF4FA481A29FC001A39F2D
:10427000900D1124092E000CAA0BBB0B8417950777
:10428000A607B70708F0B4CF1092B502ADCF698189
:104290007A818B819C810E94F31969837A838B8355
:1042A0009C83AE81BF8114968C9190E0A0E0B0E039
:1042B00029813A814B815C8182179307A407B50756
:1042C00008F096CFAE81BF811596ED91FC918FCF0E
:1042D0008F5F082F10E01B01082E02C0220C331C38
:1042E0000A94E2F7A10142235323452B89F39091CD
:1042F000780190FD44C0980136952795369527950D
:10430000922F8295880F80763FE1380F8093650069
:1043100020936800309366009093690024E630E0B3
:1043200047E050E063E670E088E70E94EB34892BB9
:1043300009F0E4CEA80125E0440F551F2A95E1F7C6
:104340008091780180FD23C042545D4F04E610E067
:1043500020E230E060E488E70E948135892B09F093
:10436000CDCE9101209530958091BC029091BD02F7
:10437000282339233093BD022093BC02BFCE880F7F
:10438000880F880F37E0380F20E093E0BFCFEDE3D0
:10439000F1E080E2DF011D928A95E9F7E9E8F0E0BB
:1043A000FF83EE8305E810E08DE8C82E80E0D82E6C
:1043B00097E0592E77247394AE81BF818D91BF838E
:1043C000AE83F80121918F01240F352F311D225426
:1043D0003D4FE82FF0E0E35CFE4F80E090E0652C7D
:1043E000681A872C082E01C0880C0A94EAF7790114
:1043F000A12CD701BD907D01B820662D6A19677088
:1044000070E0BB2D062E01C0BB0F0A94EAF79B2E6D
:104410007195619571096770772701C0B6946A95A7
:10442000EAF79B286081962A9082A39468E0A612FE
:10443000E0CF019631968830910589F68E819F8173
:10444000C816D90609F0B8CF04E610E020E230E043
:104450004DE351E07FCF1F93CF93DF93782F162F3B
:10446000EA01888184FF1CC0898128E8822789832A
:10447000FE013296272F392FCF01710FD9012F5FFF
:104480003F4F4C914193472F421B1416BCF3612FB1
:104490000E9444121C5F1883DF91CF911F910895F1
:1044A0008AE58883E5CFCF93DF938091E70483503B
:1044B00087FD14C09091E504CCE0D0E0C91BD10980
:1044C000C651DB4F9091E404903108F06EC0883003
:1044D00009F458C01092D0011092E7048091610055
:1044E00084FF41C0809160008F3F09F43CC0C82F19
:1044F000893008F0C8E0982F9C1B90936000909141
:10450000C00428E892279093C0048823F1F080919A
:104510000A0190910B012091090126FF1BC1FC01AA
:1045200021EC34E04C2F480F5491D9015C932F5F5C
:104530003F4F31964E13F8CF01962FEF2C0F820F7D
:10454000911D90930B0180930A016C2F81EC94E0F4
:104550000E94441284E08C0FC83019F09FEF9093B2
:1045600060008093610084E190B39C70911107C05A
:1045700081508111F9CF1092E8041092E304DF9189
:10458000CF9108958091D001893108F0A3CFA82F51
:10459000B0E0A055BE4F98E0FE0101900D929A95B3
:1045A000E1F7885F8093D00197CF9D3209F0B6C0C4
:1045B000883009F091CF93EC9093C0049AE59093E2
:1045C00061001092090198819076992309F458C0EE
:1045D000903251F49981993099F140F4923029F157
:1045E000933059F1913079F080E017C09A3009F496
:1045F00043C09B30C9F78C819D81892BA9F78A81A3
:1046000080936200F1CF2C813D81232B69F72CE050
:1046100031E030930B0120930A019F81911129C051
:104620009E81981730F5892F24C085E091E0909302
:104630000B0180930A0181E0F0CF82E690E0F7CF92
:104640008A819B818115924069F48C819D81892B9F
:1046500049F481E0809308018E819F819093070146
:1046600080930601888187FF57C08E8190E89093E0
:1046700009018093600030CF8B8180930501B4CF16
:104680002A811092C904898181110BC01092CA0439
:1046900029EC34E092E030930B0120930A01892F3A
:1046A000BCCF853029F42093E80429EC34E0F3CF23
:1046B0008630C1F48B81813049F4CE010E942B1ADF
:1046C00090E4909309018F3F69F2A7CF8230A9F35C
:1046D000833099F3813289F3823279F380E48093D5
:1046E000090182CF883089F0893019F42093D101F3
:1046F000DCCF8A3071F08B30C1F68BE48093CC0430
:10470000809301058093D804D0CF21ED31E091E072
:10471000C2CF29EC34E0FBCF8FEFA8CF8091090105
:1047200087FFDACE8091060190910701892B71F005
:1047300080910801813051F4888180931401109296
:1047400007011092060110926000C6CE8EE18093A0
:104750006100C2CEDC012C2F41EC54E0FA013D9106
:1047600030834F5F5F4F21502111F8CFE5CE0F937B
:104770001F93CF93DF93162F072FD42FC5E08330DD
:10478000E9F1843049F1813059F48091CB0484FF00
:104790000CC04BEC54E06D2F812F902F0E942B22E8
:1047A000DF91CF911F910F9108950E9453228FE1C5
:1047B0009EE40197F1F700C00000C150C111E5CFA0
:1047C000EFCF0E9453228FE19EE40197F1F700C0E2
:1047D0000000C150CC2321F38091D70484FFF1CF96
:1047E00047ED54E0D8CF0E9453228FE19EE4019719
:1047F000F1F700C00000C150CC2391F28091000578
:1048000084FFF1CF40E055E0C6CFA0E0B0E0EBE0A0
:10481000F4E20C94F035F82E8B01EA016A0183E092
:10482000D694C7948A95E1F7E12C8E2D90E08C15F3
:104830009D0570F0C770CC2331F04C2F50E0B801CB
:104840008F2D0E94B723CDB7DEB7E8E00C940C366D
:1048500048E050E0B8018F2D0E94B723085F1F4F3A
:10486000E394E3CFCF93DF93D82FC92F48E050E0F4
:10487000682F792F81E00E94052488E0ED2FFC2F1E
:10488000ACE0B1E001900D928A95E1F7DF91CF9114
:104890000895BC0143E050E083E00E9405240895A0
:1048A0002FB7F8948091150190911601A0911701EE
:1048B000B09118012FBF0895A6E0B0E0E2E6F4E25F
:1048C0000C94F6359093D5018093D401811520E2A4
:1048D000920730F40E9458192696E2E00C941236A2
:1048E00080EF89838A830E9450248160BC014981C2
:1048F0005A8181E090E00E94132BEECFA4E0B0E05B
:10490000E4E8F4E20C94EE357C01DC0114968C9121
:10491000882309F45FC261E0C7010E94311C8C0149
:10492000F7018581882309F4EBC0C8019A958115A8
:104930009F4408F06CC0C80199279C01245031099C
:104940002432310518F08B970E9780F4E0913202F3
:10495000F0E0EE0FFF1FE050FE4F808191818F3F0E
:104960002FE7920719F0019691838083C80197572A
:104970008038910508F0C4C0F02E4FE0401708F4CD
:1049800029C28FEF93E00E947036811123C205ED9A
:1049900011E0F11043C08091780090917900A091CE
:1049A0007A00B0917B0089839A83AB83BC837801C2
:1049B0008FEFE81AF80AC8010E94703689831A82BC
:1049C000882309F407C2813009F094C0680192E09D
:1049D000C90ED11CC7010E947036E82E8A83882335
:1049E00009F4F8C1C6010E947036F82E8FEF8E0DC3
:1049F000833010F5FB82FF2021F0CE0101960E944A
:104A0000711F6801A3E0CA0ED11C8601D0CF0F3FF1
:104A1000110511F008F0AACFC8018FCF011554E09D
:104A2000150709F4D7C1C8010E9470360F5F1F4FE8
:104A30008111F4CFFA94ADCF8BEF8E0D833088F5D2
:104A40006801B3E0CB0ED11CFB82FF20F1F2C6015E
:104A50000E9470368C838823D9F0CB80DC80E1E023
:104A6000CE16EFEFDE0610F0DC2CCC24F6E0EF16CD
:104A7000A1F027E0C601E21649F00E94C82B809100
:104A80005F02909160020E94BA1AC6010E945C24E3
:104A9000680144E0C40ED11CB8CFC6010E94C82BE7
:104AA000F7CF54E0E512B1CF680184E0C80ED11C05
:104AB000C80103960E947036FF2009F48BC1882339
:104AC00009F488C18150990B4FEF489F9001499F8D
:104AD000300D1124AF2DA150BB0B2A0F3B1F2150CD
:104AE000310908F492CFEFE9FFE03197F1F700C008
:104AF0000000F5CFCE0101960E94711F670185CF9E
:104B000080915C0280FF1DC10E9450246C01D7017E
:104B100015968C91882309F4E9C08091770082FF73
:104B200006C040E0B60180E090E00E94C81A04315F
:104B3000BCE71B0709F44DC00531ECE71E0749F13E
:104B40000331FCE71F0709F048C0809177008160BE
:104B500080937700D70115968C91882321F01092CD
:104B6000360210923502D70115968C91882309F4EC
:104B70007AC00130BCE71B0751F003301C4709F035
:104B800072C06FEF7FEF80E090E00E94AB360E9432
:104B90008D1C90917700892F8E7F90FF816080938C
:104BA00077000E9428188091770080FF5CC0D701B1
:104BB00015968C918111DFC00737BCE71B0771F593
:104BC00081E00E94601443E062E081E00E94D7141B
:104BD00001C1809177008E7FE2CFC801905281158C
:104BE0009043E8F1F70185819091770090FFA9C08B
:104BF0000832110508F090C00E31110508F0C9C047
:104C00009801245031092A31310508F4ADC08823B8
:104C100009F4A9CF1092360210923502D7011596E9
:104C20008C91882301F10130BCE71B0709F4AFCF59
:104C30000330ECE71E0709F4A4CF0115FCE71F07BA
:104C400091F40E94771C2FEF44E35CE02150404038
:104C50005040E1F700C000000E94131ABBC0109240
:104C6000360210923502D70115968C911597CD908A
:104C7000DC90882309F40EC1C6010E94CC1B182FBA
:104C8000682FC6010E947014B601812F0E94AF1BCD
:104C90000E943716182F092FF701C580B680B294ED
:104CA0009FE0B922902F92959F70983009F4E5C14A
:104CB00008F006C1943008F0F2C0802F8F70923057
:104CC00008F40EC1902F907F903211F08295807F72
:104CD000113009F045C190916302CC2009F43AC12A
:104CE0009B1508F444C10E941615DCC08091770022
:104CF0008F7E013E110531F0053E110531F48091A2
:104D000077008F7D80937700AECFC80190528115D8
:104D1000904308F067CFA7CF09331105F8F40D329F
:104D2000110520F40B32110509F017CF90915C02A8
:104D300092FF37C0882309F471CF10923602109287
:104D40003502F70185810737FCE71F07C1F4882387
:104D500009F436CF81E00E94541435CF0436110592
:104D600029F38111EACFEDCF90915C0294FF19C035
:104D7000882309F478CF1092360210923502083752
:104D80002CE7120709F04ACF882309F481C082E09A
:104D9000E2CF90915C0293FF04C0882309F463CFB3
:104DA00039CF882309F46EC080913E02982F9D7FF1
:104DB0009923A1F0109236021092350290915C0274
:104DC00091FD0CC060E0C8010E94021860E0C801BB
:104DD0000E94AA1A2496EAE00C940A3697E0F7019A
:104DE000A7E3B2E001900D929A95E1F710923A0292
:104DF00010923902A0903502B09036020A151B05B8
:104E000081F590915C0295FF2CC0F0907700F1FA4B
:104E1000FF24F0F8FF2011F096FF23C02091330209
:104E200030913402A601421B530B483C5105C8F493
:104E300081FF08C08091770080618093770082E0D5
:104E40000E94351580913E0285FF08C08091770051
:104E500080628093770080E20E9435156F2DC50136
:104E6000B7CF1093360200933502D0923402C0922D
:104E700033028270846090917700997F892B8093B0
:104E80007700A8CF40E0B601C8010E94C81AA2CF9F
:104E900082E097CEC6010E94A414182FF5CE94305C
:104EA00009F4CEC0812F902F0E943114882309F479
:104EB0005EC0CC2009F4B8C1BB2009F465C057C05E
:104EC000993009F44BC19A5F9F70923058F7123FA6
:104ED00009F057C1802F8F71CC2009F481C14EC1D8
:104EE000D82E003118F0D29480EFD822CC20C9F00F
:104EF000DD2069F080E2810F883010F011110BC0C5
:104F000080913E028D2980933E020E940215812FDE
:104F10000E94A418C7CF80916A028D2980936A02EB
:104F2000F4CF812F0E942419DD2009F4BBCF80E249
:104F3000810F883010F0111106C08D2D0E9435159B
:104F40000E940215AFCFD09480916A028D21809388
:104F50006A02F6CFB91608F0A5CF0E943D15A2CF80
:104F6000CC20D9F1BB2041F0812F0E94A4181092CF
:104F7000AD021092AC0208C00E941615812F902F2E
:104F80000E943114882399F360E0C7010E94311C0C
:104F90008C0180916502811102C00E94841EF7017C
:104FA0008581882309F416CF0034F4E71F0751F4F4
:104FB0008091AE0290E00196817099278093AE02B5
:104FC0000E94ED130E946E1960936602709367024F
:104FD0008093680290936902FDCEBB2081F080919E
:104FE000610290916202193321F080915F029091E9
:104FF00060020E94BA1A812F0E942419B8CF0E9421
:105000003D15812F902F0E943114882309F4AFCFD2
:1050100040E0D70115966C9115978D919C910E9457
:10502000131C80915E0283FFA2CF8091AC0290910D
:10503000AD02029709F09BCF812F0E946A1C97CF87
:10504000802F869586958370882369F0813009F0DA
:1050500029CF812F902F9370C11002C080E090E083
:105060000E947E181FCF812F902F9370C11002C015
:1050700080E090E00E94581815CF802F8370811136
:1050800035C0C11028C0412F429546954770440F46
:10509000440F812F8F70042E01C0880F0A94EAF705
:1050A000212F2071222339F02FE030E001C0220FA0
:1050B0004A95EAF72095302F369536953370323081
:1050C00081F0333061F040913F02313039F0822B72
:1050D00084230E944E140E944B18E4CE842B822B12
:1050E000F8CF822B90913F028927F3CFCC2059F142
:1050F00000FFF1CF412F429546954770440F440F72
:10510000812F8F70042E01C0880F0A94EAF7212F97
:105110002071222339F02FE030E001C0220F4A95A0
:10512000EAF72095302F369536953370323089F076
:10513000333069F040914002313041F0822B8423BA
:105140000E945114C8CF823030F2D4CF842B822BEE
:10515000F7CF822B909140028927F2CFF02FFF707A
:10516000DF2ECC2039F08F2F0E945414812F0E9403
:105170001615B1CF812F0E943D158D2D0E94601410
:10518000AACF133F60F4103F99F0113F29F1CC20D2
:10519000C9F1BB20A1F1812F0E94A4189CCF133F1D
:1051A00011F1C110F6CFB11035C0802F8F71E6CF4D
:1051B00080916302CC2061F0B81608F08CCF202FCC
:1051C0002F7181E090E001C0880F2A95EAF7C2CFE5
:1051D0008B1508F480CFF3CF802F8F71CC2071F224
:1051E0000E94541478CF80E0CC2009F4A9CF81E04C
:1051F000902F9F7101C0880F9A95EAF7A1CF802F59
:105200008F71EECFBB2089F2809161029091620292
:10521000193321F080915F02909160020E94BA1AC6
:10522000812F0E94241957CFB110A1CEF1CE8091C9
:10523000AB02803178F48091AA02882359F0E09182
:105240006C0220916B023091A6024091A50257E0BA
:105250002E1301C008956E2F70E05E9FF00111249F
:10526000DF01A359BD4F14968C911497882361F1E7
:1052700011968C911197831327C08C91841324C0AD
:1052800015968C91159781111FC012968D919C9146
:10529000A091A702B091A8028A1B9B0B883C9105A4
:1052A00098F48091AB028F7080618093AB02ED58CF
:1052B000FD4F80818F708061808385EA92E00E943B
:1052C0007E240E94F8140895FB013196E770C0CF48
:1052D000ADE0B0E0EEE6F9E20C94EB358C0186E04F
:1052E000F801DE01189601900D928A95E1F7D80138
:1052F000DC901196CC90119715967C90159712968C
:10530000AD90BC9013971496FC9085EA882E82E0AD
:10531000982E8091A902811118C0FF2099F0772062
:1053200009F475C1C8010E94061C882309F46FC1E5
:1053300087E0F801A5EAB2E001900D928A95E1F7C5
:105340000E941729FF24F3943CC060E085EA92E0B4
:105350000E94311CE090AA028091A7029091A802BD
:10536000EE2009F420C1F501E81BF90BE83CF1053A
:1053700008F0DDC0FF2031F39091A602D80111960C
:105380008C919090AB02BFE0B91508F498C0F72C4F
:1053900098131CC09091A502F8018081981316C043
:1053A000711078C0892D8F7080618093AB0285EA7F
:1053B00092E00E947E248091AB02D80116968C93D5
:1053C000F12C8F2D2D96EDE00C940736711062C0F4
:1053D000E0916C0280916B02AE2F97E0A81302C09F
:1053E00097E02AC02A2F30E09A9FD0011124A359B8
:1053F000BD4F11964C911197C41207C04C91D41215
:1054000004C015964C91411109C1D9011196A7709C
:10541000E5CF2E2F30E09E9FF0011124E359FD4F80
:105420004181C41206C04081D41203C0458141119C
:10543000C7CFF9013196E7708E13EBCF8885998538
:105440000E94F71B292F22952F70903448F02A5F75
:105450002F702230C8F0C8010E947E24FE2CB1CFEC
:105460009F70223038F0992351F0F80196819031E5
:1054700030F4A7CF992319F0882309F4A2CF805ED6
:10548000883008F49ECFE7CF803F08F49ACF815F41
:105490008230F7CF8091AB0281608093AB02809124
:1054A0005E0281FD8DCF85EA92E00E947E2487E036
:1054B000E5EAF2E0DF011D928A95E9F781CF9813C2
:1054C00016C09091A502D8018C91981310C071104C
:1054D0000EC016969C92C8010E947E2487E0F801B7
:1054E000A5EAB2E001900D928A95E1F72BCFC801B1
:1054F0000E94061C882309F48AC0772009F487C01B
:105500008091AB02803208F413CF8091A502909174
:10551000A6029A838983BC82AB828091A9028D8383
:105520001E829F82CE0101960E947E2401CFE090D0
:10553000AB02BFE0BE1508F0B6CFFF2009F402CFE2
:105540009091A602F8018181981311C09091A50253
:10555000808198130CC071100AC0E682C8010E94B5
:105560007E2487E0D4011D928A95E9F7EBCEC8012D
:105570000E94061C882309F44AC0772009F447C01A
:105580008091AB02803208F4D3CE8091A502909135
:10559000A6029A838983BC82AB828091A9028D8303
:1055A0001E82EF82BFCFA81AB90AB8ECAB16B104BD
:1055B00090F5FF2009F4C6CE772049F19091A6021C
:1055C000F8018181981319C09091A50280819813E8
:1055D00014C08091AB0280FD81CF803108F47ECF72
:1055E0008683807F803F09F476CF8681982F907FD5
:1055F000905F8F70892B86836ECFC8010E94061C36
:10560000811196CE8091AB0281608093AB02C8017C
:105610000E947E2497CE87E0D4014DCF90915E0208
:1056200090FFDECE40CFABE1B0E0E9E1FBE20C94CD
:10563000F5354E8B5F8B688F798F8A8F9B8F882390
:1056400049F08091AC029091AD0201969093AD0229
:105650008093AC028B8D811110926A021D8A86E0C4
:10566000FE017696DE011F9601900D928A95E1F774
:105670008B89882329F061E0CE010F960E94311CAE
:1056800087E0FE013F96DE01189601900D928A9503
:10569000E1F7CE0108960E94682981112BC087E0AE
:1056A000FE013896DE01119601900D928A95E1F780
:1056B00020916B0240916C028C858823D9F030E0F8
:1056C000C90101968770992750E084179507E9F082
:1056D00097E0929FD001939FB00D1124A359BD4F25
:1056E000FE01319601900D929A95E1F780936B023D
:1056F0000E94F81417E080916C0290916B0289135C
:1057000012C06B96E3E00C9411360E94771C109245
:105710006B0210926C0287E0E5EAF2E0DF011D9275
:105720008A95E9F7E7CF189FC001112483599D4F4F
:105730000E946829882329F380916C0290E00196E9
:105740008770992780936C02D6CFA6E0B0E0EBEA91
:10575000FBE20C94F4350E9450248C018091D80116
:105760009091D9018017910779F019821A820E94CD
:105770005024BC0149815A8180E090E00E94132BA3
:105780001093D9010093D8012696E4E00C941036CA
:10579000A6E0B0E0EEECFBE20C94F6359093D50178
:1057A0008093D401811520E2920730F40E940E19F3
:1057B0002696E2E00C94123680EF89838A830E9459
:1057C00050248160BC0149815A8181E091E00E94AE
:1057D000132BEECF9C014FB7F89480911501909157
:1057E0001601A0911701B09118014FBF821B930BB6
:1057F00008958091E604882369F01092E6040E94DF
:1058000050249093640180936301109279018091F8
:1058100079010895809179018111F9CF8091630117
:10582000909164010E94EA2B069788F381E08093AF
:105830007901EDCFACE0B0E0E0E2FCE20C94EA35B7
:10584000FE0131968CE0DF011D928A95E9F79DE813
:10585000A92E90E0B92E8F0123E9E22E20E0F22E4E
:105860003F01CC24C394D12CF50181915F018F3F7E
:1058700009F447C0F894E82FE295EF70F0E021A911
:105880008F70A60102C0440F551F8A95E2F7CA0126
:10589000922F982B91AB92A98095892382AB789413
:1058A00000C0E3E9F0E021E030E0812C912C41914F
:1058B0004F3F09F44AC0A42FA295AF70A05DB0E09D
:1058C0008C9190E04F7002C0959587954A95E2F7CC
:1058D000817081113AC0C901882A992A220F331F89
:1058E00050E0E33AF50719F7F501319780818F3FD2
:1058F00011F00E944F1780EA8A95F1F7D8018D9236
:105900009C920E5F1F4FEA14FB0409F0ADCF4CE0F0
:1059100050E0B30185E691E00E945336892BC1F037
:105920008CE0F301A5E6B1E001900D928A95E1F7D4
:1059300081E0809304010E9450249093030180939E
:1059400002012C96EEE00C94063680E090E0C4CF85
:10595000809104018823A9F38091020190910301B1
:105960000E94EA2B0A9768F34CE050E065E671E08C
:1059700082EA91E00E945336892B49F08CE0E5E6FB
:10598000F1E0A2EAB1E001900D928A95E1F7109260
:105990000401D7CFCDB7DEB760970FB6F894DEBF5E
:1059A0000FBECDBF84B7806884BF84B7806884BFD2
:1059B0000E94502490936401809363018DE497E1E9
:1059C0009093F9008093F8000E945A1B85B7886075
:1059D00085BF8BB780688BBF8BE48093CC048093AA
:1059E00001058093D8048AE58093CB048093000559
:1059F0008093D7048B9A8FEFA895AFE9BFE01197FA
:105A0000F1F700C0000081508111F6CF8B98789497
:105A10008BE083BF8AEF8CBF82E089BF0E94391C74
:105A2000811102C00E94251EE4E9F1E088E0DF0157
:105A30001D928A95E9F781E08093930160E080E010
:105A40000E94E81761E080E00E94E817EFE8F1E0CB
:105A50003197F1F700C0000010E080919301181712
:105A600008F499C10DE810E0D8018D918D018F3FA8
:105A700011F00E944F17B0E003391B07A9F703E9A3
:105A800010E0F80181918F018F3F11F00E944F17B4
:105A9000F0E0033A1F07A9F78CE0E2EAF1E0DF014A
:105AA000282F1D922A95E9F7E5E6F1E0DF011D9226
:105AB0008A95E9F780E090E00E947836863E9E4F16
:105AC00021F40E94391C811168C066EE7EEF80E0EF
:105AD00090E00E94AB3660E082E090E00E948E365B
