:100000000C9410130C942D130C9448130C942D1372
:100010000C942D130C942D130C942D130C942D1360
:100020000C942D130C942D130C9484290C942D13E3
:100030000C942D130C942D130C942D130C942D1340
:100040000C942D130C942D130C942D130C942D1330
:100050000C942D1300AF00AE05010980A1018503AA
:1000600019012AB700150126B70095017510810006
:10007000C0050C0901A101850419012AA00215017E
:1000800026A002950175108100C005010906A10195
:10009000050719E029E7150025019508750181027A
:1000A0009501750881030507190029FF150026FF32
:1000B0000095067508810005081901290515002518
:1000C00001950575019102950175039103C00C031B
:1000D0004C0043004B003700350000000C034C007F
:1000E000790073006F003100000004030904090265
:1000F0003B00020100A0FA09040000010301010015
:1001000009210101000122440007058103080001C3
:10011000090401000103000000092101010001227E
:1001200032000705830308000112011001000000DE
:100130000856786361020001020001DEDF00070853
:100140007F0807003E5B4F5B3E003E6B4F6B3E00FF
:100150001C3E7C3E1C00183C7E3C18001C577D5702
:100160001C001C5E7F5E1C0000183C180000FFE7AE
:10017000C3E7FF00001824180000FFE7DBE7FF00DB
:1001800030483A060E00262979292600407F0505C9
:100190000700407F05253F005A3CE73C5A007F3E60
:1001A0001C1C0800081C1C3E7F0014227F22140027
:1001B0005F5F005F5F0006097F017F000066899531
:1001C0006A0060606060600094A2FFA2940008046E
:1001D0007E04080010207E20100008082A1C080059
:1001E000081C2A0808001E10101010000C1E0C1EFF
:1001F0000C0030383E383000060E3E0E060000007F
:100200000000000000005F00000000070007000081
:10021000147F147F1400242A7F2A120023130864F9
:100220006200364956205000000807030000001CF9
:10023000224100000041221C00002A1C7F1C2A00D1
:1002400008083E0808000080703000000808080810
:1002500008000000606000002010080402003E5109
:1002600049453E0000427F4000007249494946002E
:100270002141494D33001814127F10002745454590
:1002800039003C4A494931004121110907003649EA
:1002900049493600464949291E0000001400000063
:1002A000004034000000000814224100141414140B
:1002B00014000041221408000201590906003E41C1
:1002C0005D594E007C1211127C007F49494936006D
:1002D0003E41414122007F4141413E007F49494921
:1002E00041007F09090901003E41415173007F0827
:1002F00008087F0000417F4100002040413F01008D
:100300007F08142241007F40404040007F021C02D1
:100310007F007F0408107F003E4141413E007F097D
:10032000090906003E4151215E007F091929460056
:1003300026494949320003017F0103003F40404004
:100340003F001F2040201F003F4038403F00631403
:10035000081463000304780403006159494D430005
:10036000007F41414100020408102000004141414A
:100370007F000402010204004040404040000003AE
:10038000070800002054547840007F284444380077
:10039000384444442800384444287F003854545496
:1003A000180000087E09020018A4A49C78007F08A9
:1003B0000404780000447D4000002040403D0000DF
:1003C0007F102844000000417F4000007C04780436
:1003D00078007C0804047800384444443800FC1851
:1003E0002424180018242418FC007C0804040800A5
:1003F00048545454240004043F4424003C4040200A
:100400007C001C2040201C003C4030403C00442824
:10041000102844004C9090907C004464544C44005C
:100420000008364100000000770000000041360857
:1004300000000201020402003C2623263C000000CA
:1004400000000000404040F0F8F8FF38FFF8F83FA7
:10045000F8F8FF38FFF8F8F04040400000000000D6
:100460000080C0C0C0800000C0C08000000080C00C
:10047000C000C0C0000080C0C00000000000C0C0BC
:10048000C0C0C000C0C000000000000000000000AC
:10049000000000000000000000000000000000005C
:1004A000000000000000000000000000000000004C
:1004B00000000000000000000000000000C0F0F894
:1004C000FC3E1E06010000007F4141417F007F414C
:1004D00041417F000080C0E07E5B4F5BFEC00000BA
:1004E000C000DCD7DEDEDED7DC00C000000000008C
:1004F00000000000000000000000000000000000FC
:1005000000000000494949FFFFFFFFE0DFBFBF00D7
:10051000BFBFDFE0FFFFFFFF4949490000000000C7
:100520001F3F6060E0BF1F007F7F071E381E077FF0
:100530007F007F7F0E1F3B716000000000007F7F07
:100540000C0C0C007E7E007F7E0303007F7E030385
:100550007E7E03037F7E000F3E703C063C703E0FA4
:1005600000327B49493F7E007F7E0303001E3F69C6
:10057000696F2600000000000000000000030F1F4C
:100580003F3C7870600000007F4141417F007F4127
:1005900041417F00307B7F7830202030787F3B00E6
:1005A00003000F7F0F0F0F7F0F00030000000000FC
:1005B000000000000000000000000000000000003B
:1005C00000000000010101070F0F7F0F7F0F0F7E5A
:1005D0000F0F7F0F7F0F0F070101010000000000C8
:1005E0000000000000010100000000000000000009
:1005F00000000000000000000000000000000000FB
:1006000000000000000000000000000000000000EA
:1006100000000000000000000000000000000000DA
:1006200000000000000000000000000000000000CA
:1006300000000000000000000000000000000000BA
:1006400000000000000000000000000000000000AA
:10065000000000000000000000000000000000009A
:10066000000000000000000000000000000000008A
:10067000000038465040403030404050463800DAA4
:100680000281FFD9F1DB20A4A62EAF00A0C0D300C9
:1006900000A1C8D30000AED580A81F408D14200053
:1006A00029003A003B003C003D003E003F00400076
:1006B0004100420043004400450000004C00A800F7
:1006C00035001E001F00200021002200230024000E
:1006D0002500260027002D002E0000002A00AE0075
:1006E0002B0014001A000800150017001C00180049
:1006F0000C00120013002F00300000003100AC008D
:10070000390004001600070009000A000B000D0064
:100710000E000F0033003400000000002800AB0082
:10072000E10000001D001B0006001900050011007B
:100730001000360037003800E5000000520021525A
:10074000E000E300E2000000000000002C000000D8
:1007500000000000E600E4005000000051004F00DF
:100760000100010001000100010001000100010081
:1007700001000100010001000100000001004074BF
:100780000100010001000100010001000100010061
:10079000010001000100010001000000010046000D
:1007A0000100010001000100007C010001000100C6
:1007B00001000100010001000100000001004900EA
:1007C00039000100010001000100010001000100E9
:1007D0000100010001000100000000000100010013
:1007E0000100000001000100010001000100010002
:1007F00001000100010001000100000001000100F2
:1008000001000100010000000000000001000000E4
:1008100000000000E60001000100000001000100EE
:10082000FFFFFFFFFFFFFFFFFFFFFFFFFFFFFFFFD8
:10083000FFFFFFFFFFFFFFFFFFFFFFFFFFFFFFFFC8
:10084000FFFF7F3F1F9FCFE763180CE1F8FCFEFF1F
:10085000FFFFFFFFFFFFFFFFFFFFFFFFFF9F1F1FC8
:100860009FDFFFFFFFFFFFFFFFFFFFFFFFFFFFFF18
:10087000FFFFFFFEB00003F2F0E1C78F3F7FFFFFF5
:10088000FFFFFFFFFFFFFFFFFFFFFFFFFFFFFFFF78
:10089000FFFFFFFFFFFFFFFFFFFFFFFFFFFFFFFF68
:1008A000FFFFFFFFFFFFFFFFFFFFFFFFFFFFFFFF58
:1008B000FFFFFFFFFFFFFFFFFFFFFFFFFF7F0FC7F0
:1008C000F1F8FCFEFFFFFF010008FFFFFFFFFFFF45
:1008D000FFFFFFFFFFFFFFFFFFFFFFFFFF07007CA2
:1008E000FFFFFFFFFFFFFFFFFFFFFFFFFFFFFFFF18
:1008F000FFFFFFFFFF0000DFFFFFFFFFFFFEF8F13C
:10090000C71FFFFFFFFFFFFFFFFFFFFFFFFFFFFF0F
:10091000FFFFFFFFFFFFFFFFFFFFFFFFFFFFFFFFE7
:10092000FFFFFFFFFFFFFFFFFFFFFFFFFFFFFFFFD7
:10093000FFFFFFFFFFFFFFFFFFFFFFFFFF001FFFA6
:10094000F7FFF7FBFBFBFFF8E0001777F7E7EFEFA8
:10095000EFCFDFDFDFDFDFDFDFEFE3F8FFF280BCC9
:10096000F3E7CFDFDFDFBFDFDFDFDFEFEFEFF7F74B
:10097000F7FB7B1B83C0F0FDFFFDFFFBFFFBFB7F55
:100980000FC0F8FFFFFFFFFFFFFFFFFFFFFFFFFFAD
:10099000FFFFFFFFFFFFFFFFFFFFFFFFFFFFFFFF67
:1009A000FFFFFFFFFFFFFFFFFFFFFFFFFFFFFFFF57
:1009B000FFFFFFFFFFFFFFFFFFFFFFFFFFFFFEF84F
:1009C000F1F7E7CFDFDF9FBFBF3F7E7C78716367C2
:1009D0004F4F1F1F9FBF1FDFDFEFE7F7F3F9FCFC4F
:1009E000F1F7E7EFDF5F1FBF5F1F1F4F4F4F6763D9
:1009F00071787C7E7F7F3FBF9FDFCFE7E7F3F8FE14
:100A0000FFFFFFFFFFFFFFFFFFFFFFFFFFFFFFFFF6
:100A1000FFFFFFFFFFFFFFFFFFFFFFFFFFFFFFFFE6
:100A2000FFFFFFFFFFFFFFFFFFFFFFFFFFFFFFFFD6
:100A3000FFFFFFFFFFFFFFFFFFFFFFFFFFFFFFFFC6
:100A4000FF7F3F9F8FCFE7E7731104C6F1F8FCFEED
:100A5000FFFFFFFFFFFFFFFFFFFFFFFFFFEF0F0F96
:100A60008FE7F7FFFFFFFFFFFFFFFFFFFFFFFFFF26
:100A7000FFFFFFD80109FCFCF8F1E7C7CF9F3F7FDC
:100A8000FFFFFFFFFFFFFFFFFFFFFFFFFFFFFFFF76
:100A9000FFFFFFFFFFFFFFFFFFFFFFFFFFFFFFFF66
:100AA000FFFFFFFFFFFFFFFFFFFFFFFFFFFFFFFF56
:100AB000FFFFFFFFFFFFFFFFFFFFFFFF3F0FE3F120
:100AC000FCFE7F7FFFFF7F0500207F7FFFFFFFFF92
:100AD000FFFFFFFFFFFFFFFFFFFFFF7F9FC3007CC4
:100AE000FFFFFFFFFFFFFFFFFFFFFFFFFFFFFFFF16
:100AF0007F7F7F7F7EB0000F7FFF7F7FFFFFFEFC49
:100B0000F1031FFFFFFFFFFFFFFFFFFFFFFFFFFFDF
:100B1000FFFFFFFFFFFFFFFFFFFFFFFFFFFFFFFFE5
:100B2000FFFFFFFFFFFFFFFFFFFFFFFFFFFFFFFFD5
:100B3000FFFFFFFFFFFFFFFFFFFFFFFFC0013FFDC4
:100B4000FEFFFFFFFFFFFFF8C0011F7FFEFEFCFD61
:100B5000FDFBFBFBF3F7F7FBFBFDFCFEFF60003F3B
:100B6000FCF9FBF7F7F7F7F7F3FBFBFDFDFEFEFEE5
:100B7000FFFF7F3F1F83C0F0FDFFFFFFFF7F3E9F12
:100B8000C3F0FFFFFFFFFFFFFFFFFFFFFFFFFFFFC0
:100B9000FFFFFFFFFFFFFFFFFFFFFFFFFFFFFFFF65
:100BA000FFFFFFFFFFFFFFFFFFFFFFFFFFFFFFFF55
:100BB000FFFFFFFFFFFFFFFFFFFFFFFFFFFFFEFC49
:100BC000F9F3F7E7EFEFCFDF9F9FBC3C38B1B3A756
:100BD000A78F8FAF5F8F6FEFF7F7FBF9FD7E7F7EFB
:100BE0007C797377E76F0F9F5FDF8F8FAFA7A7B316
:100BF000B1B81C9CDE5F0FCFEFE7F3FBF9FCFEFF03
:100C0000FFFFFFFFFFFFFFFFFFFFFFFFFFFFFFFFF4
:100C1000FFFFFFFFFFFFFFFFFFFFFFFFFFFFFFFFE4
:100C2000FFFFFFFFFFFFFFFFFFFFFFFFFFFFFFFFD4
:100C3000FFFFFFFFFFFFFFFFFFFFFFFFFFFFFFFFC4
:100C4000FFFF7F3F3F9FCFC7E701188CE1F8FCFF14
:100C5000FFFFFFFFFFFFFFFFFFFFFFFFFFFF0F1F74
:100C60008FCFFFFFFFFFFFFFFFFFFFFFFFFFFFFF34
:100C7000FFFFFFFF0000FAF8F1E3CF9F1F3F7FFF68
:100C8000FFFFFFFFFFFFFFFFFFFFFFFFFFFFFFFF74
:100C9000FFFFFFFFFFFFFFFFFFFFFFFFFFFFFFFF64
:100CA000FFFFFFFFFFFFFFFFFFFFFFFFFFFFFFFF54
:100CB000FFFFFFFFFFFFFFFFFFFFFFFF7F1FC7F3E8
:100CC000F9FCFEFEFFFFFF5B0100FCFFFFFFFFFFE3
:100CD000FFFFFFFFFFFFFFFFFFFFFFFF1F0340F8C6
:100CE000FFFFFFFFFFFFFFFFFFFFFFFFFFFFFFFF14
:100CF000FFFFFFFF00000FFFFFFFFFFFFFFFFCF8FC
:100D0000E30FFFFFFFFFFFFFFFFFFFFFFFFFFFFFFF
:100D1000FFFFFFFFFFFFFFFFFFFFFFFFFFFFFFFFE3
:100D2000FFFFFFFFFFFFFFFFFFFFFFFFFFFFFFFFD3
:100D3000FFFFFFFFFFFFFFFFFFFFFFFFE0064FFF8B
:100D4000F7FBFBFFFBFFFFF9E0800B3FF7F7EFEF4F
:100D5000EFCFDFDFDFDFDFDFCFE7F3F8FEC0063EF8
:100D6000F1E7EFCFDF9FBFFF9FDFDFCFEFEFEFF7C1
:100D7000F7F7371F00E0FAFFFFFDFFFDFFFB7B3FAA
:100D80008FC0FEFFFFFFFFFFFFFFFFFFFFFFFFFF23
:100D9000FFFFFFFFFFFFFFFFFFFFFFFFFFFFFFFF63
:100DA000FFFFFFFFFFFFFFFFFFFFFFFFFFFFFFFF53
:100DB000FFFFFFFFFFFFFFFFFFFFFFFFFFFFFEF84B
:100DC000F9F3E7CFDFDF9FBF3F3FBE387831A3277E
:100DD000AF8F9F9F9F9F5FCFEFE7F7F3F9FCFEFE7A
:100DE000F8F3F7EFCF5F9F5F1F9F9F1F0F0F6723E2
:100DF00031303C3EBF3F3F9FDFCFE7F7F3F9FCFECA
:100E0000FFFFFFFFFFFFFFFFFFFFFFFFFFFFFFFFF2
:100E1000FFFFFFFFFFFFFFFFFFFFFFFFFFFFFFFFE2
:100E2000FFFFFFFFFFFFFFFFFFFFFFFFFFFFFFFFD2
:100E3000FFFFFFFFFFFFFFFFFFFFFFFFFFFFFFFFC2
:100E4000FFFF7F3F1F9F8FC7C3011880E1F8FEFFA0
:100E5000FFFFFFFFFFFFFFFFFFFFFFFFFFFF1F1F62
:100E60008FCFFFFFFFFFFFFFFFFFFFFFFFFFFFFF32
:100E7000FFFFFFFF0200F8F9F3E7CF9F3F7FFFFF7F
:100E8000FFFFFFFFFFFFFFFFFFFFFFFFFFFFFFFF72
:100E9000FFFFFFFFFFFFFFFFFFFFFFFFFFFFFFFF62
:100EA000FFFFFFFFFFFFFFFFFFFFFFFFFFFFFFFF52
:100EB000FFFFFFFFFFFFFFFFFFFFFFFFFF1FC7E376
:100EC000F9FCFEFEFFFFFFDB0000FCFFFFFFFFFF62
:100ED000FFFFFFFFFFFFFFFFFFFFFFFF3F0780FC5C
:100EE000FFFFFFFFFFFFFFFFFFFFFFFFFFFFFFFF12
:100EF000FFFFFFFF0000FFFFFFFFFFFFFFFEFCF90A
:100F0000E30FFFFFFFFFFFFFFFFFFFFFFFFFFFFFFD
:100F1000FFFFFFFFFFFFFFFFFFFFFFFFFFFFFFFFE1
:100F2000FFFFFFFFFFFFFFFFFFFFFFFFFFFFFFFFD1
:100F3000FFFFFFFFFFFFFFFFFFFFFFFFE0041FEFCB
:100F4000FFF7F7F7FFFFFFFFB080073FEFEFEFDF9F
:100F5000DFDFBFBFBFBFBFBF9FCFE7F1FCC20E7CCB
:100F6000F3E7CFDFBFBF7F7F7FBFBFBFDFDFDFEF35
:100F7000EF6F2F0780F0FFFFFFFBFFFBFBFFF77F0B
:100F80000FC0FFFFFFFFFFFFFFFFFFFFFFFFFFFFA0
:100F9000FFFFFFFFFFFFFFFFFFFFFFFFFFFFFFFF61
:100FA000FFFFFFFFFFFFFFFFFFFFFFFFFFFFFFFF51
:100FB000FFFFFFFFFFFFFFFFFFFFFFFFFFFFFEF849
:100FC000F3E7EFCFDF9FBFBF3F3EFE7870716367EF
:100FD0000F1F1F9F5F9F1FDFEFEFE7F3F9FDFEFC81
:100FE000F9F3E7EFCF1F9F3F3FBF1F1F1F4F47631F
:100FF00071707C3EBF3F3FBF9FDFCFE7F3F9F8FE44
:10100000FFFFFFFFFFFFFFFFFFFFFFFFFFFFFFFFF0
:10101000FFFFFFFFFFFFFFFFFFFFFFFFFFFFFFFFE0
:10102000FFFFFFFFFFFFFFFFFFFFFFFFFFFFFFFFD0
:10103000FFFFFFFFFFFFFFFFFFFFFFFFFFFFFFFFC0
:10104000FFFFFF7F3F1F8F873130C0F0FCFEFFFFA7
:10105000FFFFFFFFFFFFFFFFFFFFFFFFFF7F7F7F20
:101060007FFFFFFFFFFFFFFFFFFFFFFFFFFFFFFF10
:10107000FFFFFFFFFE00003BC080033FFFFFFFFFBD
:10108000FFFFFFFFFFFFFFFFFFFFFFFFFFFFFFFF70
:10109000FFFFFFFFFFFFFFFFFFFFFFFFFFFFFFFF60
:1010A000FFFFFFFFFFFFFFFFFFFFFFFFFFFFFFFF50
:1010B000FFFFFFFFFFFFFFFFFFFFFFFFFFFF7F1FA0
:1010C000C7F3F9FCFEFFFFC70000FFFFFFFFFFFFB4
:1010D000FFFFFFFFFFFFFFFFFFFFFFFFFFFF00001E
:1010E000FFFFFFFFFFFFFFFFFFFFFFFFFFFFFFFF10
:1010F000FFFFFFFF7F0000F8FFFFFFFEFCF1E38F23
:101100003FFFFFFFFFFFFFFFFFFFFFFFFFFFFFFFAF
:10111000FFFFFFFFFFFFFFFFFFFFFFFFFFFFFFFFDF
:10112000FFFFFFFFFFFFFFFFFFFFFFFFFFFFFFFFCF
:10113000FFFFFFFFFFFFFFFFFFFFFFFFFFC300FEFB
:10114000FFBFBFFFDFBFFFF49080073FBFFF7F7F80
:101150007F7F7F7F7F7F7F7F7F7F3FCFE3FD186330
:10116000DF9F3F7F7FFFFFFFFF7F7F7F7FBFBFBF8F
:10117000FF3F1F83C0F8FFEFEFEFEFFFEFFFEFFF41
:101180004E00FFFFFFFFFFFFFFFFFFFFFFFFFFFF1F
:10119000FFFFFFFFFFFFFFFFFFFFFFFFFFFFFFFF5F
:1011A000FFFFFFFFFFFFFFFFFFFFFFFFFFFFFFFF4F
:1011B000FFFFFFFFFFFFFFFFFFFFFFFFFFFFFCF849
:1011C000F3E7CF9F3F3FBF7F7F7FFEFCF8F3E7C78A
:1011D000CF9F1F3F3F3F7F3FBF9FDFCFE7F3F8F138
:1011E000E7CFDF9FBF3E3E3E3F3EBF9F9FCFE7E33F
:1011F000F9FCFEFFFFFFFF7F7F3FBF9FCFE7E3F9D3
:10120000FCFFFFFFFFFFFFFFFFFFFFFFFFFFFFFFF1
:10121000FFFFFFFFFFFFFFFFFFFFFFFFFFFFFFFFDE
:1012200000000000000000000000000000000000BE
:1012300000000000000000000000000000000000AE
:1012400000000000000000000080C0C0607030702E
:10125000F8FE033E78C8880C0C040603011C3C66AB
:10126000C6870303010100008080C0C0616332367D
:101270001E1C0C000000000000000080818386CC52
:101280007C061EF0000000000000000000000000CE
:10129000000000000000000000000000000000004E
:1012A000000000000000000000000000000000003E
:1012B000000000000000000000000000000000002E
:1012C0000080C060785C56D793B1A160404060F068
:1012D000FF1F0C0C3FE7C3C0C040C0C0C0C0C0C0AF
:1012E000C18383868682838381818080C0C0C0C0A1
:1012F000C0C0C0C0C0C0C0C0C080808F1B1130182B
:10130000181C0CFF7E000000000000000000000020
:1013100000000000000000000000000000000000CD
:1013200000000000000000000000000000000000BD
:1013300000008080C0C0E060703018180C0C0606F9
:101340000301000000000000000001010101F9FF9D
:101350000380C060BC6F27B3E664083879696CC449
:10136000C4C4848484848484C4C4C4C4C46C7830F5
:101370001111191808080D0D0707070F1A38E0E0BA
:10138000E0F87F1F060000000000000000000000E1
:10139000000000000000000000000000000000004D
:1013A000000000000000000000000080E070380C29
:1013B0000603030100000000000000000000000020
:1013C00080E07818181018F8E000000000FE9F6414
:1013D000FEFBFCF7DCBEF7E3402060C0600040800D
:1013E000808001010101010180C0404000000080B7
:1013F00040404000000000000000009CFEFE07018D
:1014000001000000000000000000000000000000DB
:1014100000000000000000000000000000000000CC
:1014200000000000000000000000000000000000BC
:1014300000000000000000000000000000000000AC
:1014400000000000000000000080C0C0607030702C
:10145000F8FE033E78C8880C0C040603011C3C66A9
:10146000C6870303010100008080C0C0616332367B
:101470001E1C0C000000000000000080818386CC50
:101480007C061EF0000000000000000000000000CC
:10149000000000000000000000000000000000004C
:1014A000000000000000000000000000000000003C
:1014B000000000000000000000000000000000002C
:1014C0000080C060785C56D793B1A160404060F066
:1014D000FF1F0C0C3FE7C3C0C040C0C0C0C0C0C0AD
:1014E000C18383868682838381818080C0C0C0C09F
:1014F000C0C0C0C0C0C0C0C0C080808F1B11301829
:10150000181C0CFF7E00000000000000000000001E
:1015100000000000000000000000000000000000CB
:1015200000000000000000000000000000000000BB
:1015300000008080C0C0E060703018180C0C0606F7
:10154000030100000000000000000101010101FF93
:10155000038080F81C877773D6C4083879696CC417
:10156000C4C4848484848484C4C4C4C4C46C7830F3
:101570001111191808084DADA787478F8A1818F060
:10158000F0F83F1F0600000000000000000000000F
:10159000000000000000000000000000000000004B
:1015A000000000000000000000000080E070380C27
:1015B000060303010000000000000000000000001E
:1015C00080E07818181018F8E000000000FCFFCF49
:1015D000C141CA99FDFF0E1703E1A040408080C0C1
:1015E000E0C08101010101010000000000000000D5
:1015F000004040E000000000000003BAFDEFC70318
:1016000001000000000000000000000000000000D9
:1016100000000000000000000000000000000000CA
:1016200000000000000000000000000000000000BA
:1016300000000000000000000000000000000000AA
:1016400000000000000000000080C0C0607030702A
:10165000F8FE033E78C8880C0C040603011C3C66A7
:10166000C6870303010100008080C0C06163323679
:101670001E1C0C000000000000000080818386CC4E
:101680007C061EF0000000000000000000000000CA
:10169000000000000000000000000000000000004A
:1016A000000000000000000000000000000000003A
:1016B000000000000000000000000000000000002A
:1016C0000080C060785C56D793B1A160404060F064
:1016D000FF1F0C0C3FE7C3C0C040C0C0C0C0C0C0AB
:1016E000C18383868682838381818080C0C0C0C09D
:1016F000C0C0C0C0C0C0C0C0C080808F1B11301827
:10170000181C0CFF7E00000000000000000000001C
:1017100000000000000000000000000000000000C9
:1017200000000000000000000000000000000000B9
:1017300000008080C0C0E060703018180C0C0606F5
:10174000030100000000000000000101010101FF91
:10175000C3E070F8EC6777F3F6D4083879696CC4A5
:10176000C4C4848484848484C4C4C4C4C46C7830F1
:101770001111191808086DAD2F87478F1A1870E0DE
:10178000F8F83F1F06000000000000000000000005
:101790000000000000000000000000000000000049
:1017A000000000000000000000000080E070380C25
:1017B000060303010000000000000000000000001C
:1017C00080E07818181018F8E000000000FCFFC74F
:1017D00081F2C11CFEFE2C3F37E06040008080C0DB
:1017E000E0C0010101010101000000000000000053
:1017F000000000000000000000000302BDFEE7033F
:1018000001000000000000000000000000000000D7
:1018100000000000000000000000000000000000C8
:1018200000000000000000000000000000000000B8
:1018300000000000000000000000000000000000A8
:101840000000000000000000000080C0C0E06070E8
:10185000703838181C9C9CDC7C3C0CECFCFC30D0B8
:10186000F8780E077FFCC683010100000000000627
:101870000F0F1B191930306060E0C0C08081030376
:1018800083C3E7763C3870E0C0C0F07E07FE0000FE
:101890000000000000000000000000000000000048
:1018A0000000000000000000000000000000000038
:1018B0000000000000000000000000000000000028
:1018C0000080C0E060787C7E5E57D3B1A1A0A0A06C
:1018D000B098CC4E673311180E07FFFFFF000003CE
:1018E000070E0C1C181C0F878080808080808080F1
:1018F000C0404040404040404040406161634347F9
:10190000434340C0C04040C1FFFD7C0607030000C8
:1019100000000000000000000000000000000000C7
:1019200000000000000000000000000000000000B7
:1019300000008080C0C0E060703038181C0C0E06BB
:101940000703010000000000000000000000C0FFCD
:1019500003000000000000000000010FFFF7E7C0D7
:10196000E0703018181A5FDFDF1C18181819595862
:1019700018183C3C343636363636766666C6C6C6E9
:10198000C666ECBC3C5C1C060D18F0E080808080D4
:101990000000000000000000000000000000000047
:1019A0000000000000000000000080C0E030180CC3
:1019B000060301010000000000000000000000001C
:1019C00080E0781818181C0E06FEF00000FEFF00DC
:1019D00000000000000000000000000003F3FFDF33
:1019E00000E0F0787C7C773F1B1F1E1E0C000181FD
:1019F000C0C08000000000000000010505050101D5
:101A00000100000000000000804020010000070FDE
:101A1000F87000000000000000000000000000005E
:101A200000000000000000000000000000000000B6
:101A300000000000000000000000000000000000A6
:101A40000000000000000000000080C0C0E06070E6
:101A5000703838181C9C9CDC7C3C0CECFCFC30D0B6
:101A6000F8780E077FFCC683010100000000000625
:101A70000F0F1B191930306060E0C0C08081030374
:101A800083C3E7763C3870E0C0C0F07E07FE0000FC
:101A90000000000000000000000000000000000046
:101AA0000000000000000000000000000000000036
:101AB0000000000000000000000000000000000026
:101AC0000080C0E060787C7E5E57D3B1A1A0A0A06A
:101AD000B098CC4E673311180E07FFFFFF000003CC
:101AE000070E0C1C181C0F878080808080808080EF
:101AF000C0404040404040404040406161634347F7
:101B0000434340C0C04040C1FFFD7C0607030000C6
:101B100000000000000000000000000000000000C5
:101B200000000000000000000000000000000000B5
:101B300000008080C0C0E060703038181C0C0E06B9
:101B40000703010000000000000000000000C0FFCB
:101B500003000000000000000000010F3FD747E035
:101B6000C0F03018189ADF3F1F1C18185859191860
:101B700018181C3CB4B6B63676767666C6C6C6C6A7
:101B8000C6666C3C3C3C1C060D78F0C08000000032
:101B90000000000000000000000000000000000045
:101BA0000000000000000000000080C0E030180CC1
:101BB000060301010000000000000000000000001A
:101BC00080E0781818181C0E06FEF00000FEFF00DA
:101BD00000000000000000000000000000E1F3FF32
:101BE0000F070706CDF8F8DDEFF71B9B0B0B050180
:101BF000008080800002000000000001010501015A
:101C00000000000000000000008000010107067CC9
:101C1000F8000000000000000000000000000000CC
:101C200000000000000000000000000000000000B4
:101C300000000000000000000000000000000000A4
:101C40000000000000000000000080C0C0E06070E4
:101C5000703838181C9C9CDC7C3C0CECFCFC30D0B4
:101C6000F8780E077FFCC683010100000000000623
:101C70000F0F1B191930306060E0C0C08081030372
:101C800083C3E7763C3870E0C0C0F07E07FE0000FA
:101C90000000000000000000000000000000000044
:101CA0000000000000000000000000000000000034
:101CB0000000000000000000000000000000000024
:101CC0000080C0E060787C7E5E57D3B1A1A0A0A068
:101CD000B098CC4E673311180E07FFFFFF000003CA
:101CE000070E0C1C181C0F878080808080808080ED
:101CF000C0404040404040404040406161634347F5
:101D0000434340C0C04040C1FFFD7C0607030000C4
:101D100000000000000000000000000000000000C3
:101D200000000000000000000000000000000000B3
:101D300000008080C0C0E060703038181C0C0E06B7
:101D40000703010000000000000000000000C0FFC9
:101D500003000000000000000000010FFF17C7A0F3
:101D6000C0703018189ADF3F1F1C1818181959181E
:101D700018181C3C3436363636367666C6C6C6C6A5
:101D8000C6666C3C3C3C1C060D78F0C080800000B0
:101D90000000000000000000000000000000000043
:101DA0000000000000000000000080C0E030180CBF
:101DB0000603010100000000000000000000000018
:101DC00080E0781818181C0E06FEF00000FEFF00D8
:101DD00000000000000000000000000000E1FEFF25
:101DE0002F0604E8F8B9CCFEF7FBFF1F0E01010037
:101DF00080C0C08000000000000000000505050153
:101E00000000000000000000000000010103073C8A
:101E1000F0000000000000000000000000000000D2
:101E200000000000000000000000000000000000B2
:101E300000000000000000000000000000000000A2
:101E40000000000000000000000080C0C0E06070E2
:101E5000703838181C1C9CDCFC7CBCFCFCFC1C0C8A
:101E6000FFFFF88C060203030100040E0E1A1A325B
:101E7000337360C0C08080010303020686C6F43C51
:101E80000903030E1CF8E080E03C0FFC000000009A
:101E90000000000000000000000000000000000042
:101EA0000000000000000000000000000000000032
:101EB0000000000000000000000000000000000022
:101EC0000080C0E060787C7E5E57D3B1A1A0A0A066
:101ED000B098CC4E663331180E7FFFE0870F0C1C94
:101EE0001C1C0F8F838080C0C0C0C0C0C0C0C0C0D9
:101EF000C0C0C0C0C1C1C3C3C6C6C6C7C3C1C0C0BD
:101F0000C0C0C0C0800FD9F0F80C0701000000006D
:101F100000000000000000000000000000000000C1
:101F200000000000000000000000000000000000B1
:101F300000008080C0C0E060703038181C0C0E06B5
:101F40000703010000000000000000000000C0FFC7
:101F50000300000000000000000001C1C3E3F73FE0
:101F60001F1F4F070F0F8F8D0C0C181818193938B9
:101F7000FC6C646464C6C6868686C6C4C4E47C38C9
:101F8000391908080D0F0F1FF3E0000000000000D2
:101F90000000000000000000000000000000000041
:101FA0000000000000000000000080C0E030180CBD
:101FB0000603010100000000000000000000000016
:101FC00080E0781818181C0E06FEF00000FEFF00D6
:101FD000000000000000000000000003E7FFFFDD3C
:101FE000F6FF1DCEF7FBCF8780000080C080800009
:101FF000000000000000000101010100000000805D
:102000008000008000000000010306FCF8000000D2
:1020100000000000000000000000000000000000C0
:1020200000000000000000000000000000000000B0
:1020300000000000000000000000000000000000A0
:102040000000000000000000008080C0E0607030F0
:10205000383818181898F8F8381C063F7CE6C38101
:10206000010000000002060E1A327262C3C3800033
:1020700000000000030786C6E666361E0000010366
:10208000070E9CF8F0603804FC000000000000001F
:102090000000000000000000000000000000000040
:1020A0000000000000000000000000000000000030
:1020B0000000000000000000000000000000000020
:1020C0000080C0E0707C5E5F57D3B1A1A0A0A0A04B
:1020D000F0787C3E1F0F073BFF8EFC98988887871F
:1020E00080C0C0C0C0C0C0C0C0C0C0C0C0C141432B
:1020F000464E4C4C4E47C3C1C0C0C0C0C0C0C0C09B
:10210000C0CFDF9910D8FC3E0300000000000000A3
:1021100000000000000000000000000000000000BF
:1021200000000000000000000000000000000000AF
:1021300000008080C0C0C06060303038181C0C0EB9
:102140000703010000000000000000000000E0FFA5
:10215000070000000000000120CBCBCF06C4C487DD
:10216000878C8808081919183878646464E4C4C432
:10217000C6C6C6C6C4C4E464646438381909080411
:1021800004020F07FDFF1F0F000000000000000009
:10219000000000000000000000000000000000003F
:1021A0000000000000000000000000C0E070180CFB
:1021B0000603030101000000000000000000000011
:1021C00080E0781818103C00FCE0000000FCFF01E3
:1021D00000000000000000000041F31FEE0EF7FBBE
:1021E000FFF7630000C00080000000000000000056
:1021F00000000000000000000000008080808000DF
:1022000000000000070FF8F80000000000000000C8
:1022100000000000000000000000000000000000BE
:1022200000000000000000000000000000000000AE
:10223000000000000000000000000000000000009E
:102240000000000000000000008080C0C06070300E
:10225000381818FCFC3E031F7CF8888C060301002C
:1022600000000C1E3666C68303000000000000005C
:1022700083C3E266343C0C040000000001010386C5
:10228000CEFCF81C0CFC0000000000000000000068
:10229000000000000000000000000000000000003E
:1022A000000000000000000000000000000000002E
:1022B000000000000000000000000000000000001E
:1022C0000080E070785C5E5753D3B1A0A0A0A0F06E
:1022D000F87C3F0B0F86FC8C8C0CCF87808080C0F5
:1022E000C0C0C0C0C0C0C0C1C3C7C6CCCCC6C7C3B5
:1022F000C1C0C0C0C0C0C0C0C0C0C0C0C0C0C79FF7
:1023000019101078FCCF0000000000000000000051
:1023100000000000000000000000000000000000BD
:1023200000000000000000000000000000000000AD
:102330000000808080C0C060603038181C0C0E0621
:102340000301000000000000000000010101F0FF97
:1023500003000000000101F7DFA5E7C7C7C70D08AC
:1023600008187979E4C4C4C4C68686868686C6C63B
:10237000C4E464687838380909090C0407070707BA
:102380001DF8F0791F0F00000000000000000000A1
:10239000000000000000000000000000000000003D
:1023A000000000000000000000000080E070180C39
:1023B0000603010100000000000000000000000012
:1023C00080E03818181018F8F000000000FEFF0137
:1023D0000000000000F8EE73E2C3FDFE477320C06A
:1023E000C000000000800000000101010101008028
:1023F000808080000080C0400000000000000004D9
:102400000FFFF100000000000000000000000000CD
:1024100000000000000000000000000000000000BC
:1024200000000000000000000000000000000000AC
:10243000000000000000000000000000000000009C
:1024400000000000000000000080C0C0607030701C
:10245000F8FE033E78C8880C0C040603011C3C6699
:10246000C6870303010100008080C0C0616332366B
:102470001E1C0C000000000000000080818386CC40
:102480007C061EF0000000000000000000000000BC
:10249000000000000000000000000000000000003C
:1024A000000000000000000000000000000000002C
:1024B000000000000000000000000000000000001C
:1024C0000080C060785C56D793B1A160404060F056
:1024D000FF1F0C0C3FE7C3C0C040C0C0C0C0C0C09D
:1024E000C18383868682838381818080C0C0C0C08F
:1024F000C0C0C0C0C0C0C0C0C080808F1B11301819
:10250000181C0CFF7E00000000000000000000000E
:1025100000000000000000000000000000000000BB
:1025200000000000000000000000000000000000AB
:1025300000008080C0C0E060703018180C0C0606E7
:102540000301000000000000000001010101F9FF8B
:102550000380C060BC6F27B3E664083879696CC437
:10256000C4C4848484848484C4C4C4C4C46C7830E3
:102570001111191808080D0D0707070F1A38E0E0A8
:10258000E0F87F1F060000000000000000000000CF
:10259000000000000000000000000000000000003B
:1025A000000000000000000000000080E070380C17
:1025B000060303010000000000000000000000000E
:1025C00080E07818181018F8E000000000FE9F6402
:1025D000FEFBFCF7DCBEF7E3402060C060004080FB
:1025E000808001010101010180C0404000000080A5
:1025F00040404000000000000000009CFEFE07017B
:1026000001000000000000000000000000000000C9
:1026100000000000000000000000000000000000BA
:1026200011241FBECFE5D8E0DEBFCDBF24E0A8EE69
:10263000B0E001C01D92AE38B207E1F710E0A0E6AD
:10264000B0E0ECE9F8E502C005900D92A83EB107B4
:10265000D9F70E94B8250C944C2C0C940000A82F9C
:10266000B92F80E090E041E050EA609530E009C089
:102670002D9182279795879510F084279527305EB6
:10268000C8F36F5FA8F30895EADF8D939D930895D3
:10269000CF93CFB7CF93DF93C395839BE9F7839B0A
:1026A00010C0839B0EC0839B0CC0839B0AC0839B7E
:1026B00008C0839B06C0C0916804C395C09368049A
:1026C0008EC06F93C0916704DD27C459DB4F2F93F1
:1026D00065E5839B03C02F916F91E1CF0F931F930B
:1026E0004F9320E040E15F9300B30C7003FB27F9A8
:1026F0003F9350E03BE039C01C7040642F77012FBE
:102700005F5F1EC0406810B31C702F7752501FC00F
:10271000406400B32F770C70D1F15F5F00C023C01D
:10272000406210B32F771C7091F15F5F00C025C02D
:102730000C701027515012F45D5F00001150279566
:102740002C3F10B3C8F61C700127015027952C3F71
:10275000C8F64227499300B30C7010274F731150ED
:1027600027952C3FA8F64695469510B31C7079F036
:102770000127015027952C3F98F66B5A60F3315092
:1027800000B3B0F600C010E81ABF00271CC03B50D1
:102790003195C31BD04010E81ABF0881033C21F1DA
:1027A0000B3411F1209165041981110F1213EDCF33
:1027B0004A81441F093679F10D3211F0013E29F7A3
:1027C0004F7009F0042F00936B043F915F914F917C
:1027D0001F910F912F916F91CAB7C7FD5DCFDF9108
:1027E000CF91CFBFCF91189520916B04222369F32D
:1027F00010916904112309F049C034300AF448C02B
:102800003093690420936604109167043BE0311B08
:10281000309367043DC0009169040130BCF50AE5BE
:102820004F7049F43091610034FD33C00093610072
:10283000C2E4D4E032C0433059F0443091F03091DA
:102840004D0434FD26C000934D04CEE4D4E025C0F1
:102850003091820434FD1DC000938204C3E8D4E0AB
:102860001CC03091590434FD14C000935904CAE5CA
:10287000D4E013C0052710E000C0000002BB1AC05E
:10288000052710E0221F1DC010E021C04AE502C04C
:1028900032ED432FC4E1D0E032E011B31C60939AD3
:1028A00002B311BB5CE020E865E320FF052702BB13
:1028B000279517951C3FF0F66695B8F7B1F720FFFE
:1028C000052702BB279517951C3FD0F6279517952E
:1028D00017FF052700001C3F02BBB0F629913A956F
:1028E00019F7037F10916A04110FC651D04002BB43
:1028F00011F01093650410E81ABF086011B3137F3C
:10290000402F437F54E05A95F1F702BB11BB42BB05
:102910005CCF0F931F93CF93DF93DC01FB01EA01A0
:102920008C9168810E94622B9C93892F90E02223D6
:1029300061F028812150330BA901481B590BCA01B2
:1029400057FF03C0919581959109982F8827990F7A
:10295000E80FF91F2091400430914104C9018054CF
:1029600092402054304021303240D8F020E032E014
:10297000281B390B40913E0250913F02280F391F0E
:1029800001E010E08217930778F050933F024093E4
:102990003E028C918F5F8C93DF91CF911F910F91AD
:1029A000089520E032E0E6CF6491EC01C05CDD4F99
:1029B0007881671779F06883BC01C5E076956795E3
:1029C000CA95E1F7E80102C0CC0FDD1F6A95E2F776
:1029D0004C2B5D2B01963196D5CF10923A02109276
:1029E0003C0210923802E091300287E0E89FF0014B
:1029F0001124E752FF4F80818093390281818093B7
:102A00003B0282818093360208959093E501809382
:102A1000E40108959093E7018093E601089521E091
:102A200030E002C0220F331F8A95E2F78091E60161
:102A30009091E701822B932B0E940A15089521E0C3
:102A400030E002C0220F331F8A95E2F720953095BF
:102A50008091E6019091E701822393230E940A1559
:102A60000895963080F5803170F520E1929FF00155
:102A70001124E80FF11D877041E001C0440F8A95D1
:102A8000EAF783E0F695E7958A95E1F7EE0FFF1FE9
:102A9000EE0FFF1FEF57FE4F80E090E070E0519186
:102AA000DF0111979B01082E02C0369527950A94E5
:102AB000E2F7217021952527242325272C930196C1
:102AC0008430910561F70895963070F5803160F596
:102AD00020E1929FF0011124E80FF11D982F9770CB
:102AE00083E0F695E7958A95E1F7EE0FFF1FEE0F6D
:102AF000FF1FEF57FE4F40E050E080E0219130E0B3
:102B0000092E02C0369527950A94E2F721703327E3
:102B1000042E01C0220F0A94EAF7822B4F5F5F4F09
:102B20004430510559F7089580E008958091EF01F0
:102B30009091EE01981301C008958F5F8770FACFCE
:102B400080912F029091ED01892B8093EA00E09112
:102B50007F01F0918001309731F00280F381E02D08
:102B60008AEE90E009950895882339F090912F021C
:102B7000892B80932F020E94A0150895882341F08D
:102B8000809590912F02892380932F020E94A01597
:102B900008957630C8F46031B8F48230C0F4E72F7D
:102BA000F0E096E0899FE00DF11D112484E0EE0F26
:102BB000FF1F8A95E1F7E60FF11DEE0FFF1FE056AC
:102BC000F94F85919491089580E090E0089581E017
:102BD000FCCF803E9105D1F1C8F48133910509F411
:102BE0007FC048F48932910509F46FC08A3291059B
:102BF00009F47DC0089589339105E1F0823891058B
:102C0000C9F08533910509F45BC00895843E9105B0
:102C1000D1F148F4823E910531F1833E910541F1B5
:102C200081EE90E00895863E9105C1F1873E9105C1
:102C3000E1F1089520917B012370211165C020915D
:102C40007C0123FF14C089E290E0089520917B016C
:102C500020FD43C030917C0130FF09C024FF4EC0ED
:102C600080E090E0089520917B0122FDF7CF089548
:102C700020917B0122FD45C030917C0130FD44C094
:102C800024FFF5CFEDCF20917C0121FFF0CF809183
:102C90007B0184FDE5CF87EE90E0089520917B01D4
:102CA00023FFE5CF24FDDCCFF6CF20917B0123FD70
:102CB0002EC030917C0131FFE3CF84EE90E0089587
:102CC00020917B0125FFD3CFBECF20917B0125FD35
:102CD00021C020917C0123FFCACF89E390E00895B1
:102CE00020917B0126FFC3CF8AE290E008952091D6
:102CF0007B0126FFBCCF81E390E0089583EE90E056
:102D0000089582EE90E0089580EE90E0089586EEBA
:102D100090E0089585E390E0AACF90917B0192FF27
:102D200010C041E0282F2471243009F040E031E048
:102D3000282F2871283009F030E0431711F02CE0DB
:102D4000822793FF10C041E0282F2471243109F01D
:102D500040E031E0282F2871283109F030E0431796
:102D600011F02CE0822730917C0130FF10C051E03F
:102D7000282F2171213009F050E041E0282F2871DF
:102D8000283009F040E0541711F029E0822731FF84
:102D900010C041E0282F2171213109F040E031E0DD
:102DA000282F2871283109F030E0431711F029E06D
:102DB000822794FD877E08951F93CF93DF930E940F
:102DC000E915EC01811520E5920708F048C081154E
:102DD00040E4940708F0C2C0803E9105E0F0811500
:102DE00050E2950798F18D2F8F710E948D16182F44
:102DF000CE0199270E94E915212F30E0322F22279A
:102E000022273F71282B392BE901D062CE01DF91B7
:102E1000CF911F9108958D3C910508F08BC0883AA1
:102E2000910560F4853A910508F076C081309105EE
:102E300069F30497813A910548F305C0885A9109CE
:102E40004B9708F46CC0C0E0D0E0E0CF8F3F910515
:102E500011F008F071C0805E91090797EDCFC03680
:102E600082E5D80738F5C03422E5D20708F093C0D0
:102E7000C03242E5D40738F0CF71D0E0DC2FCC2748
:102E8000C16FD06AC3CF8C2FC11552E5D50708F0AA
:102E90006EC08F710E948D16282F30E084FD9CC07B
:102EA00085E0D695C7958A95E1F7CF703C2BE9016F
:102EB000D069ACCFC03C82E5D80708F5C03A22E51E
:102EC000D20708F07EC0CE0180569245809708F068
:102ED000BACF8C2F86958695877050E2859FC0016A
:102EE0001124C37021E030E0A90102C0440F551F36
:102EF000CA95E2F7EA01C82BD92BDA6887CFCE0151
:102F0000805C9245809708F09ECFDC2FCC27CC27A1
:102F1000DF71C06FD06A7ACFA497D06477CFC85AD8
:102F2000D0E0CC0FDD1FCD55DF4F0990D881C02DEB
:102F3000D4646CCFD0656ACF8D2F0E948D16182F68
:102F4000CE0199270E94E915212F30E0322F222748
:102F5000E901CC27DF71C82BD92B58CF99270E94C4
:102F6000E915CC27DF70C82BD92BD06A4FCF8695B7
:102F7000869540E2849FC0011124C37021E030E0B7
:102F8000A90102C0440F551FCA95E2F7EA01C82BF8
:102F9000D92BDD683BCF8C2F86958695877050E2C4
:102FA000859FC0011124C37021E030E0A90102C057
:102FB000440F551FCA95E2F7EA01C82BD92BDC68EC
:102FC00025CF8C2F8F710E948D16C82FD0E0DC2F5B
:102FD000CC27CC27DF711ACF94E0220F331F9A95AC
:102FE000E1F75ECFA0E0B0E0E8EFF7E10C94342B1E
:102FF0008C01E090E601F090E7018091E40190916E
:10300000E501E82AF92ACFE0D0E0CC24C394D12C02
:10301000C6010C2E02C0880F991F0A94E2F78E2178
:103020009F21892B49F4219798F7B12C8B2DCDB78F
:10303000DEB7E9E00C94502BBC2EB8018C2F0E9417
:10304000C9150E94DC16019771F3F0CF0F931F93FF
:10305000CF93FC01858100811181882391F0662343
:1030600081F0C8010E94F217C82F682FC8010E9482
:103070003115B8018C2F0E94C915CF911F910F9166
:103080000895C8010E946415C82FF3CFCF93DF9332
:10309000D82FC92F0E94F2176D2F7C2F0E94C915BF
:1030A0000E94DC16DF91CF910895FC018481882372
:1030B000A1F0808191810E944618282F92959F70DF
:1030C000963091F060F4925F9F70923030F481E01E
:1030D000203F79F030F4283E30F080E004C09A5F61
:1030E000F3CF243FD1F7089581E0283E18F0213F27
:1030F000F9CF0895089580E00895F894E82FE295B7
:10310000EF70F0E041A98F7021E030E0B90102C01A
:10311000660F771F8A95E2F7CB01962F909594233F
:1031200091AB92A9892B82AB7894089521B381E069
:1031300090E0AC0102C0440F551F6A95E2F7842F5E
:103140008095822381BB82B3842B82BB089580B398
:1031500090E002C0959587956A95E2F78170089591
:10316000E0917F01F0918001309729F00190F0818A
:10317000E02D0995089580E00895A3E0B0E0E3EC28
:10318000F8E10C943B2B9C0180910B0190910C0178
:1031900082179307A1F030930C0120930B01E0916B
:1031A0007F01F0918001309751F083E089833B8368
:1031B0002A830084F185E02DCE010196099523969E
:1031C000E2E00C94572BA3E0B0E0E9EEF8E10C94B8
:1031D0003B2B9C018091090190910A018217930772
:1031E000A1F030930A0120930901E0917F01F09151
:1031F0008001309751F084E089833B832A830084E7
:10320000F185E02DCE01019609952396E2E00C941C
:10321000572B0F931F93CF93C82F882339F18CEF2F
:103220008C0F813AB0F50CEE10E0F8018191C817CF
:1032300009F120E0E23FF207C9F7EFEF80E0D801A3
:103240009D918D01C91781F0EF3F19F4911101C0D3
:10325000E82F8F5F863099F7EF3F31F00E2E000C8C
:10326000FF0BE651FF4FC2830E94A015CF911F9123
:103270000F910895ECEEF0E08191C81303C0DF01D7
:1032800011971C9230E0E23FF307B1F70E94A015BE
:10329000D4CF80E28C0F883068F4C77081E090E072
:1032A00001C0880FCA95EAF7C0912F02C82BC093BE
:1032B0002F02DACF8BE58C0F833038F42C2F245279
:1032C000330BC9010E94BD18D1CFC85ACB3170F65B
:1032D000EC2FF0E0EE0FFF1FED55FF4F8081918145
:1032E0000E94E318C3CF8823C1F19CEF980F913A55
:1032F00078F4ECEEF0E09191891303C0DF011197AF
:103300001C9240E0E23FF407B1F70E94A015089537
:1033100090E2980F983088F4877021E030E0A9019E
:1033200002C0440F551F8A95E2F7CA01809590911B
:103330002F02892380932F02E8CF9BE5980F9330CB
:1033400028F480E090E00E94BD180895885A8B31DF
:1033500020F480E090E00E94E3180895A4E0B0E03B
:10336000E4EBF9E10C943B2B8FB7F8942091050125
:1033700030910601409107015091080129833A8359
:103380004B835C838FBF69817A818B819C8124967A
:10339000E2E00C94572B0E94AE19609331027093B7
:1033A0003202809333029093340220E049E352E0EA
:1033B00060E278E08AE392E00E94891408950E9416
:1033C000AE1960933102709332028093330290936E
:1033D000340280913D0290913502983210F5882395
:1033E000B1F021E04BE352E060E27EE18CE392E059
:1033F0000E94891481E020913C0290913B022913A4
:1034000001C080E080933D0210923802089520E0D0
:1034100049E352E060E278E18AE392E00E94891495
:10342000F3CF20E0811116C04BE352E060E27EE171
:103430008CE392E00E94891481E020913C029091FB
:103440003B02291380E080933D0280933702109263
:103450003A02089546E352E060E272E188E392E0C6
:103460000E948914F4CFA4E0B0E0E9E3FAE10C94FF
:10347000392B462F572FBC012FB7F89480910501A7
:1034800090910601A0910701B09108012FBF8C0116
:103490009D01041B150B260B370BC901B80124969F
:1034A000E4E00C94552B809104010895089508954B
:1034B000FC018381833051F130F48130B9F08230E6
:1034C000E9F080E008958132D9F18232D1F7848128
:1034D0009581009709F446C0019799F788E590E037
:1034E0009093FB008093FA0082E3089589E291E0D3
:1034F0009093FB008093FA0082E108958EEE90E0B5
:103500009093FB008093FA008BE3089582818130D1
:1035100061F0823091F08111D4CF8AEE90E09093E7
:10352000FB008093FA0084E008958CED90E0909386
:10353000FB008093FA008CE008958EEC90E0F7CFCA
:1035400084819581009731F0019709F0BACF89E124
:1035500091E002C080E091E09093FB008093FA003C
:1035600089E008958AE890E09093FB008093FA0048
:1035700084E40895ECEEF0E086E0DF011D928A9588
:10358000E9F780E090E00E94BD1880E090E00E94A2
:10359000E3181092ED010E94A015089510922F02D9
:1035A0000E94BA1A2FEF84E39CE0215080409040A3
:1035B000E1F700C0000088E198E00FB6F894A89504
:1035C00081BD0FBE91BDFFCFAB0124E630E0BC0151
:1035D00088E70E947A2A9C0181E0232B09F080E091
:1035E000089580914201882369F08091E801882341
:1035F00049F062E070E086E590E00E94E41A8111F3
:103600001092E8010895A4E0B0E0E9E0FBE10C9439
:103610003B2B809142018823F9F00E94AE19DC0116
:10362000CB01805A9541AF4FBF4F80934301909398
:103630004401A0934501B09346018091E8018111B6
:103640000BC062E070E084E590E00E94E41A8823F9
:1036500019F081E08093E8012496E2E00C94572B66
:10366000EF92FF920F931F93CF93DF938C01DC01B6
:1036700014968C91882309F480C061E0C8010E94EF
:1036800026189C01F8018581882309F49CC0C90192
:103690009A9581159F4440F5C9019927AC01445082
:1036A00051094432510508F47AC08B970E9708F0FF
:1036B00042C0E091E301F0E0EE0FFF1FEF54FE4F38
:1036C000808191818F3F4FE7940719F00196918394
:1036D00080832330FCE73F0771F56FEF7FEF80E0D9
:1036E00090E00E94D32B6DC02F3F310511F008F000
:1036F00063C0C90104978432910580F087970E97C3
:1037000008F440C0F801E080F180C7010E94F21780
:10371000C82F682FC7010E9431155BC0E091E301FB
:10372000F0E0EE0FFF1FEF54FE4F808191818F3F3D
:103730005FE7950759F621153C4721F710922F02B4
:103740000E94BA1A5FEF84E39CE0515080409040A1
:10375000E1F700C0000088E198E00FB6F894A89562
:1037600081BD0FBE91BDA895F894D8E0CEE528E3C1
:10377000299320E0299314BEFFCFCDB7DEB7E6E052
:103780000C94532BE091E301F0E0EE0FFF1FEF5498
:10379000FE4F808191818F3FAFE79A07CBCFE091B9
:1037A000E301F0E0EE0FFF1FEF54FE4F80819181A7
:1037B0008F3FBFE79B07BECF2130ECE73E0709F004
:1037C00088CF0E94CE1AE080F180C7010E94641564
:1037D000C82FB7018C2F0E94C9150E94DC16C82F74
:1037E000D80115962C91159716963C9132953F70FD
:1037F000492F42954F70483009F4C8C008F043C0C3
:103800004430A8F4892F8F70423008F44CC0907F68
:10381000903211F08295807FC13009F085C022235B
:1038200009F47CC0363030F40E94B41503C0443033
:1038300009F491C060E0C8010E942618EC01809153
:10384000E801811102C00E94031BD80115968C91DA
:10385000882309F492CFC034D44751F480913002C8
:1038600090E0019681709927809330020E94ED14B8
:103870000E94AE196093E9017093EA018093EB0115
:103880009093EC017ACF493009F412C14A5F4F702E
:10389000423080F6823F09F01CC1892F8F712223AC
:1038A00009F443C113C1D82F903110F0D295D07FC5
:1038B0002223C9F0DD2369F080E28C0F883010F0FC
:1038C000C1110BC080912F028D2B80932F020E947B
:1038D000A0158C2F0E940919ADCF8091ED018D2B81
:1038E0008093ED01F4CF8C2F0E947319DD2309F42E
:1038F000A1CFD09580E28C0F883010F0C11108C0A4
:1039000080912F028D2380932F020E94A01592CFC9
:103910008091ED018D238093ED01F7CF353008F0D4
:1039200089CF0E94BE1586CF222321F0332309F4CC
:103930007BCFCFCF3323A9F3C93349F4BFEFE7EEF1
:10394000F3E0B150E040F040E1F700C000008C2F00
:103950000E9473196FCF892F86958695837088236F
:1039600061F0813009F066CF8C2F9370211102C075
:1039700080E090E00E94E3185DCF8C2F93702111BE
:1039800002C080E090E00E94BD1854CF892F837060
:10399000811145C0211130C08C2F8295869587708A
:1039A000880F880F2C2F2F7030E0082E02C0220FB6
:1039B000331F0A94E2F740E050E0C4FF09C04FE033
:1039C00050E002C0440F551F8A95E2F7409550958C
:1039D0009695969593709230C1F0933091F06091E6
:1039E000E4017091E501913051F0C901842B952BD0
:1039F000862397230E9405150E94B0181BCF262B03
:103A0000372BC901842B952BF5CFC901842B952B1E
:103A10002091E4013091E50182279327EBCF222307
:103A200099F190FFE9CF8C2F829586958770880F4A
:103A3000880F2C2F2F7030E0082E02C0220F331F6A
:103A40000A94E2F740E050E0C4FF09C04FE050E0C4
:103A500002C0440F551F8A95E2F740955095969500
:103A6000969593709230D1F09330A1F06091E60179
:103A70007091E701913061F0C901842B952B862369
:103A800097230E940A15B8CF823008F4B5CFCBCF68
:103A9000262B372BC901842B952BF3CFC901842BFF
:103AA000952B2091E6013091E70182279327E9CFFA
:103AB000D92FDF70222339F08D2F0E940F158C2F04
:103AC0000E94B41599CF0E94BE158D2F0E941F151C
:103AD00093CF833F60F4803F99F0813F11F122231F
:103AE000D1F13323A9F18C2F0E94091985CF833F8F
:103AF000F9F02111F6CF31113BC0892F8F71E6CF3C
:103B0000222369F0353008F077CF292F2F7181E01B
:103B100090E002C0880F991F2A95E2F7C2CF353096
:103B2000F2CF892F8F71222389F20E940F1564CF63
:103B3000222359F09F7121E030E0A90102C0440F17
:103B4000551F9A95E2F7CA019CCF80E090E099CF8B
:103B5000892F8F71EACF332381F2893349F45FEFE4
:103B600087EE93E0515080409040E1F700C00000A4
:103B70008C2F0E94731940CF80912E02803178F4EF
:103B800080912D02882359F0E091EF012091EE0100
:103B9000309129024091280257E02E1301C0089568
:103BA0006E2F70E05E9FF0011124DF01A051BE4F27
:103BB00014968C911497882361F111968C9111972A
:103BC000831327C08C91841324C015968C9115976C
:103BD00081111FC012968D919C91A0912A02B091E3
:103BE0002B028A1B9B0B883C910598F480912E0236
:103BF0008F70806180932E02EA50FE4F80818F701B
:103C00008061808388E292E00E94301B0E949615BA
:103C10000895FB013196E770C0CFADE0B0E0E3E17D
:103C2000FEE10C94312B8C0186E0F801DE01189640
:103C300001900D928A95E1F7D8019C911596DC9040
:103C400015971296AD90BC9013971496FC9014970C
:103C500088E2882E82E0982EC0902C02C11020C0ED
:103C6000FF20D9F0DD2009F453C1C8010E94551886
:103C7000882309F44DC187E0F801D40101900D9229
:103C80008A95E1F7B1E0FB1206C08091280290917D
:103C900029020E9446180E94BC1DFF24F39432C0E2
:103CA000E0902D0220912A0230912B02F501E21BB7
:103CB000F30BEE2009F4FCC0E83CF10508F0DAC093
:103CC000FF2059F33091290211962C911197809180
:103CD0002E02803108F093C0FD2C231318C03091C0
:103CE0002802391314C0D11084C08F708061809372
:103CF0002E0288E292E00E94301B80912E02F80191
:103D00008683F12C8F2D2D96ECE00C944D2BD11049
:103D100070C0E091EF018091EE01AE2F37E0A81363
:103D200017C037E08E1337C0888599850E944618E2
:103D3000292F22952F70903408F441C02A5F2F70EC
:103D4000223008F450C0C8010E94301BFE2CDACF8C
:103D50004A2F50E03A9FD0011124A051BE4F119636
:103D60006C911197261307C06C91961304C0159699
:103D70006C91611104C0DA011196A770D0CF88E26E
:103D800092E00E94301B87E0E8E2F2E0DF011D9242
:103D90008A95E9F7B6CF4E2F50E03E9FF0011124EF
:103DA000E051FE4F6181261306C06081961303C067
:103DB00065816111A6CFFA013196E770B3CF9F708C
:103DC000223038F0992351F0F8019681903130F487
:103DD00099CF992319F0882309F494CF805E883015
:103DE00008F490CFB0CF803F08F48CCF815F823051
:103DF000F7CF80912E02816080932E0282CF231311
:103E000014C020912802291310C0D1100EC016969C
:103E10008C93C8010E94301B87E0F801A8E2B2E051
:103E200001900D928A95E1F738CFC8010E9455188C
:103E3000882309F46DC0DD2009F46AC080912E0248
:103E4000803278F020912802309129023A83298328
:103E5000BC82AB82CD821E828F83CE0101960E94EE
:103E6000301B87E0F801A8E2B2E001900D928A953C
:103E7000E1F711CF80912E02803108F480CFFF202E
:103E800009F40BCF30912902F80121813213CDCFF3
:103E9000209128022913C9CFD110C7CF8683C8012A
:103EA0000E94301B87E0D4011D928A95E9F7F5CE78
:103EB000E83CF10588F5FF2009F4EFCEDD2041F163
:103EC00020912902F8018181281318C080912802CD
:103ED000891314C080912E0280FD9ECF803108F49A
:103EE0009BCF8683807F803F09F493CF8681982F74
:103EF000907F905F8F70892B86838BCFC8010E9443
:103F000055188111AECF80912E02816080932E02D0
:103F1000C8010E94301BC1CE87E0D40138CFABE18D
:103F2000B0E0E5E9FFE10C943A2B4E8B5F8B688F94
:103F3000798F8A8F9B8F91111092ED011D8A86E0F7
:103F4000FE017696DE011F9601900D928A95E1F7AB
:103F50008B89882329F061E0CE010F960E942618F4
:103F600087E0FE013F96DE01189601900D928A953A
:103F7000E1F7CE0108960E940D1E81112BC087E04B
:103F8000FE013896DE01119601900D928A95E1F7B7
:103F90002091EE014091EF018C858823D9F030E02B
:103FA000C90101968770992750E084179507E9F0B9
:103FB00097E0929FD001939FB00D1124A051BE4F66
:103FC000FE01319601900D929A95E1F78093EE01F2
:103FD0000E94961517E08091EF019091EE018913F0
:103FE00014C06B96E3E00C94562B10922F020E94A3
:103FF000BA1A1092EE011092EF0187E0E8E2F2E0C7
:10400000DF011D928A95E9F7E5CF189FC0011124C1
:1040100080519E4F0E940D1E882319F38091EF015D
:1040200090E00196877099278093EF01D4CF1F937A
:10403000CF93DF93282F162F809140049091410455
:104040002A30C9F42091470180549240622F70E0D9
:104050000E94172B281B822F66E00E94622BC82F1C
:10406000C15020F4DF91CF911F91089560E080E26C
:104070000E941720F5CF2D30F9F49C0120543240D6
:1040800040914701642F70E0C9010E94172B481B23
:10409000842FA901480F511D4115524018F080E0AE
:1040A00020E030E0820F932F911D805C9D4F909314
:1040B000410480934004D6CF36E0FC01ADE2B1E08C
:1040C00001900D923A95E1F7203E90F126E0FC0137
:1040D00011922A95E9F7C0914004D0914104111141
:1040E00032C046E050E0BE018DE291E00E948B2B91
:1040F0009E0120543240892B89F52A5F3F4F409121
:104100004701642F70E0C9010E94172B481B4630FD
:1041100010F4240F311D211572E0370710F020E054
:1041200030E0205C3D4F30934104209340049ACF0F
:10413000F6E02F9FB0011124625C7E4F46E050E014
:104140000E94822BC8CF9E012A5F3F4FFE012E178F
:104150003F0739F2808180958193F9CFC90145E00D
:10416000969587954A95E1F741E050E0BA0102C083
:10417000660F771F8A95E2F7CB0160913E0270913E
:104180003F02862B972BB9016B5F7F4FE5E0769559
:104190006795EA95E1F702C0440F551F6A95E2F76B
:1041A000842B952B90933F0280933E02A6CF2F92B3
:1041B0003F925F926F927F928F929F92AF92BF9247
:1041C000CF92DF92EF92FF920F931F93CF93DF93E3
:1041D00000D000D000D00F92CDB7DEB78091420161
:1041E000882309F45CC080E492E0909341048093BA
:1041F00040042091E9013091EA014091EB01509196
:10420000EC01CA01B9010E94331A69837A838B8356
:104210009C8361367A4E8105910508F458C00E944E
:10422000F11A80913E0290913F02892BA9F0809172
:104230004201882389F08091410181110DC00E94C3
:10424000031B20913E0230913F0280E061E070E06C
:104250002115310509F0EBC08091E8018823F9F0C0
:104260000E94AE1969837A838B839C83809143017A
:1042700090914401A0914501B091460129813A8174
:104280004B815C81281B390B4A0B5B0BDA01C9019E
:104290008F3F9F4FAF4FBF4710F40E94F11A2796F0
:1042A0000FB6F894DEBF0FBECDBFDF91CF911F9147
:1042B0000F91FF90EF90DF90CF90BF90AF909F90C5
:1042C0008F907F906F905F903F902F9008954091D6
:1042D00030024D83042F10E0809131029091320220
:1042E000A0913302B091340289839A83AB83BC835B
:1042F000E7E04E9FD0011124A752BF4FBF83AE838A
:1043000013968C91882309F470C080913502811135
:104310003CC069817A818B819C810E94331A6983B8
:104320007A838B839C83EE81FF81848190E0A0E07F
:10433000B0E029813A814B815C8182179307A40701
:10434000B50720F40580F681E02D09950E94B0188C
:1043500081FF67CFE0913002B7E0EB9FF0011124BD
:10436000E752FF4F238181E028272983EBE3F1E027
:1043700084918F01882309F454CF69810E9417200A
:104380000F5F1F4FF8018491F5CF69817A818B818E
:104390009C810E94331A462F572FBC0180913D0209
:1043A000882331F08091370225E030E0811102C08E
:1043B00021E030E087E0809FF001819FF00D112423
:1043C000E752FF4FA481A29FC001A39F900D11242B
:1043D000092E000CAA0BBB0B84179507A607B7077D
:1043E00008F0B4CF10923702ADCF69817A818B810A
:1043F0009C810E94331A69837A838B839C83AE816C
:10440000BF8114968C9190E0A0E0B0E029813A81C0
:104410004B815C8182179307A407B50708F096CFFC
:10442000AE81BF811596ED91FC918FCF8F5F082FE4
:1044300010E01B01082E02C0220C331C0A94E2F784
:10444000A10142235323452B89F39091480190FD0C
:1044500044C098013695279536952795922F8295D9
:10446000880F80763FE1380F8093650020936800C5
:10447000309366009093690024E630E047E050E016
:1044800063E670E088E70E94302A892B09F0E4CEC9
:10449000A80125E0440F551F2A95E1F780914801B6
:1044A00080FD23C0405C5D4F04E610E020E230E078
:1044B00060E488E70E94C62A892B09F0CDCE9101DD
:1044C0002095309580913E0290913F022823392318
:1044D00030933F0220933E02BFCE880F880F880F93
:1044E00037E0380F20E093E0BFCFEDE0F1E080E26D
:1044F000DF011D928A95E9F7E9E7F0E0FF83EE839B
:1045000005E710E08DE7C82E80E0D82E97E0592E01
:1045100077247394AE81BF818D91BF83AE83F80100
:1045200021918F01240F352F311D205C3D4FE82F45
:10453000F0E0E35FFE4F80E090E0652C681A872C86
:10454000082E01C0880C0A94EAF77901A12CD70142
:10455000BD907D01B820662D6A19677070E0BB2D93
:10456000062E01C0BB0F0A94EAF79B2E7195619548
:1045700071096770772701C0B6946A95EAF79B289E
:104580006081962A9082A39468E0A612E0CF0196FB
:1045900031968830910589F68E819F81C816D9069B
:1045A00009F0B8CF04E610E020E230E04DE051E041
:1045B0007FCF1F93CF93DF93782F162FEA01888147
:1045C00084FF1CC0898128E882278983FE013296F6
:1045D000272F392FCF01710FD9012F5F3F4F4C91FA
:1045E0004193472F421B1416BCF3612F0E944413C2
:1045F0001C5F1883DF91CF911F9108958AE588830E
:10460000E5CFCF93DF9380916904835087FD75C018
:1046100090916704CCE0D0E0C91BD109C459DB4FAD
:1046200090916604903108F466C09D3209F00CC187
:10463000883009F060C093EC909342049AE590931F
:1046400061001092F90098819076992309F4ADC029
:10465000903251F49981993099F140F4923029F1D6
:10466000933059F1913079F080E017C09A3009F415
:1046700098C09B30C9F78C819D81892BA9F78A81CD
:1046800080936200F1CF2C813D81232B69F72CEFC1
:1046900030E03093FB002093FA009F81911129C0F4
:1046A0009E81981730F5892F24C085EF90E0909374
:1046B000FB008093FA0081E0F0CF82E690E0F7CF34
:1046C0008A819B818115924069F48C819D81892B1F
:1046D00049F481E08093F8008E819F819093F700E8
:1046E0008093F600888187FFADC08E8190E890931B
:1046F000F90080936000109269048091610084FF4A
:1047000041C0809160008F3F09F43CC0C82F8930C0
:1047100008F0C8E0982F9C1B909360009091420491
:1047200028E89227909342048823F1F08091FA00C0
:104730009091FB002091F90026FFA2C0FC0123E428
:1047400034E04C2F480F5491D9015C932F5F3F4FB9
:1047500031964E13F8CF01962FEF2C0F820F911D3B
:104760009093FB008093FA006C2F83E494E00E9406
:10477000441384E08C0FC83019F09FEF90936000D1
:104780008093610084E190B39C70911107C08150C7
:104790008111F9CF10926A0410926504DF91CF91D4
:1047A00008958B818093F5005FCF2A8110924B048E
:1047B000898181110BC010924C042BE434E092E00B
:1047C0003093FB002093FA00892F67CF853029F4BE
:1047D00020936A042BE434E0F3CF8630C9F48B8154
:1047E000813051F4CE010E94581A90E49093F90060
:1047F0008F3F09F477CF51CF8230A1F3833091F30B
:10480000813281F3823271F380E48093F9002CCFFE
:10481000883089F0893019F420937A01DBCF8A300F
:1048200071F08B30B9F68BE480934E04809383044F
:1048300080935A04CFCF2AE731E091E0C1CF2BE437
:1048400034E0FBCF8FEF52CF8091F90087FF53CF39
:104850008091F6009091F700892B71F08091F8001B
:10486000813051F48881809304011092F7001092F6
:10487000F600109260003FCF8EE1809361003BCF45
:10488000DC012C2F43E454E0FA013D9130834F5F6B
:104890005F4F21502111F8CF5ECF1F93CF93DF934D
:1048A000EC018091620015E0811122C080914D04DD
:1048B00084FF07C04DE454E068E0CE010E94D92295
:1048C0000BC00E9401238FE19EE40197F1F700C025
:1048D000000011501111EACF88E0FE01ACEFB0E00A
:1048E00001900D928A95E1F7DF91CF911F91089584
:1048F00080914D0484FDDECF0E9401238FE19EE470
:104900000197F1F700C0000011501111F1CFE4CF71
:104910001F93CF93DF93D82F192FC5E08091820486
:1049200084FF0BC042E854E063E08D2F912F0E947A
:10493000D922DF91CF911F9108950E9401238FE129
:104940009EE40197F1F700C00000C150C111E6CF0D
:10495000F0CF2FB7F8948091050190910601A091B6
:104960000701B09108012FBF0895A6E0B0E0EBEB7E
:10497000F4E20C94392B0E94A9248C0180917D01D2
:1049800090917E018017910779F019821A820E9416
:10499000A924BC0149815A8180E090E00E948F1FC8
:1049A00010937E0100937D012696E4E00C94552B34
:1049B0009C014FB7F8948091050190910601A09158
:1049C0000701B09108014FBF821B930B089580919E
:1049D0006804882369F0109268040E94A9249093C7
:1049E0003401809333011092490180914901089567
:1049F000809149018111F9CF809133019091340167
:104A00000E94D824069788F381E080934901EDCF76
:104A1000ACE0B0E0EEE0F5E20C942F2BFE01319615
:104A20008CE0DF011D928A95E9F79DE7A92E90E0C1
:104A3000B92E8F0123E8E22E20E0F22E3F01CC2494
:104A4000C394D12CF50181915F018F3F09F447C0D8
:104A5000F894E82FE295EF70F0E021A98F70A6019D
:104A600002C0440F551F8A95E2F7CA01922F982B76
:104A700091AB92A98095892382AB789400C0E3E83A
:104A8000F0E021E030E0812C912C41914F3F09F47E
:104A90004AC0A42FA295AF70A05DB0E08C9190E0C9
:104AA0004F7002C0959587954A95E2F78170811104
:104AB0003AC0C901882A992A220F331F50E0E339EE
:104AC000F50719F7F501319780818F3F11F00E94AA
:104AD0007D1880EA8A95F1F7D8018D929C920E5F3D
:104AE0001F4FEA14FB0409F0ADCF4CE050E0B301D6
:104AF00085E391E00E948B2B892BC1F08CE0F301C0
:104B0000A5E3B1E001900D928A95E1F781E08093F1
:104B1000F4000E94A9249093F3008093F2002C9655
:104B2000EEE00C944B2B80E090E0C4CF8091F40039
:104B30008823A9F38091F2009091F3000E94D82479
:104B40000A9768F34CE050E065E371E08AE491E095
:104B50000E948B2B892B49F08CE0E5E3F1E0AAE47D
:104B6000B1E001900D928A95E1F71092F400D7CF51
:104B7000CDB7DEB760970FB6F894DEBF0FBECDBFDE
:104B800084B7806884BF84B7806884BF0E94A924EA
:104B900090933401809333018BE798E19093E9007F
:104BA0008093E80085B7886085BF8BB780688BBF2E
:104BB0008BE480934E048093830480935A048AE5A7
:104BC00080934D0480938204809359048B9A8FEFD5
:104BD000A895AFE9BFE01197F1F700C00000815040
:104BE0008111F6CF8B9878948BE083BF8AEF8CBFCE
:104BF00082E089BFE0E7F1E088E0DF011D928A955D
:104C0000E9F781E080936F0160E080E00E949618F0
:104C100061E080E00E949618EFE8F1E03197F1F74B
:104C200000C0000010E080916F01181708F47BC1EC
:104C30000DE710E0E3E8EE2EE0E0FE2ED8018D91C6
:104C40008D018F3F11F00E947D18E016F106B1F73B
:104C500003E810E0F80181918F018F3F11F00E946D
:104C60007D18F0E003391F07A9F78CE0EAE4F1E0D2
:104C7000DF01282F1D922A95E9F7E5E3F1E0DF0136
:104C80001D928A95E9F780E090E00E94A02B863E75
:104C90009E4F09F466C066EE7EEF80E090E00E94D1
:104CA000D32B60E082E090E00E94B62B81E090E0A0
:104CB0009093E5018093E40161E083E090E00E943D
:104CC000B62B60E074E184E090E00E94D32B60E0BA
:104CD00086E090E00E94B62B60E087E090E00E94C2
:104CE000B62B40E050E0BA0188E090E00E94C72B6C
:104CF00060E084E290E00E94B62B60E087E190E003
:104D00000E94B62B60E08CE090E00E94B62B60E041
:104D10008DE090E00E94B62B19821A821B821C82C1
:104D20001D821E821F82188648E050E068E170E014
:104D3000CE0101960E94A62B40E050E0BA0180E22D
:104D400090E00E94C72B40E050E0BA018FE090E075
:104D50000E94C72B40E050E0BA0183E190E00E943E
:104D6000C72B82E090E00E94982B8093560184E04C
:104D700090E00E94A02B90937C0180937B0183E0C4
:104D800090E00E94982B90E00E94051582E08093AD
:104D9000480180E8809347010E94F4296BE070E0AD
:104DA00085E996E00E94E41A882309F443C08091C3
:104DB000480165E070E081FDC8C080E996E00E948E
:104DC000E41A8823B9F16DE070E08EE796E00E9466
:104DD000E41A882379F10E94AE1969877A878B8754
:104DE0009C87DC01CB01805A9541AF4FBF4F809328
:104DF000430190934401A0934501B0934601E0E440
:104E0000F2E080E092E0DF019C011D9221503040F1
:104E1000E1F7F0934104E09340048FEF9FEF90930C
:104E20003F0280933E0281E0809342018093E8013B
:104E3000109241010E94ED148AE690E09093800167
:104E400080937F013FEF40E782E031504040804057
:104E5000E1F700C0000073E6272E71E0372E0E94B4
:104E6000E724811186C00E94012380917A01882362
:104E7000B1F380914D0484FFF2CF0E94082557E5DD
:104E8000A52E51E0B52E6AE4862E61E0962ED4015F
:104E9000F501219131918D919D912E163F0609F4D6
:104EA0008DC028173907A9F3712CD401ED90FD901E
:104EB0004D01F501C190D1905F01CE14DF0459F18D
:104EC000CE24DF24612C01E010E0C6018023912371
:104ED000892BB9F069827A820E94A9249C838B83F2
:104EE000F1E0FD8391E0970120233123232B09F486
:104EF00090E09E8349815A816B817C818D810E94E3
:104F00008F1F6394000F111F20E16212DECFF501A5
:104F10003297F182E082739436E07312C6CF0E941A
:104F2000AE1901E052C060E0812F0E94A718082F3F
:104F300061E0812F0E94A718E12FF0E0E259FE4FB7
:104F4000880F802B80831F5F6ECE8BE896E037CF73
:104F50008091490181110E94F11A0E940825EAE41A
:104F6000F1E081919191892B79F491E0E635F9078F
:104F7000C1F70E94E7248111EBCF10922F020E940B
:104F8000BA1A0E94B0186FCFF89491B3939A892FF0
:104F90008C6081BB82B32CE0822782BBAFE7B8E391
:104FA000E1E0A150B040E040E1F700C0000082B372
:104FB000822782BB91BB93987894DBCF281739075F
:104FC00009F072CF0E94B52400E0C090B101D090EA
:104FD000B2010D2C000CEE08FF0810917400A12EF8
:104FE000B12CE1EBF1E081E090E03296A816B90631
:104FF0000CF0F9C08091690190916A01A0916B0158
:10500000B0916C01BC01CD010E94331A2B013C010F
:105010009601A701F7FE04C020E030E040E050E038
:10502000A0E6BAEE0E94082C69877A878B879C8756
:1050300088EC8A9D90018B9D300D1124032E000C6D
:10504000440B550B240D351D461D571DA5E0B0E042
:105050000E94082C6D877E878F87988B69857A855B
:105060008B859C852D853E854F8558890E941B2CFC
:1050700049015A01213F31054105510510F030EF3A
:10508000832EA9EC4A165104610471040CF180913D
:10509000E30190E0019669E170E00E946E2B80933D
:1050A000E301880F991FFC01EF54FE4F118210821B
:1050B000183108F017E11F5F109374000E94AE19B9
:1050C0006093690170936A0180936B0190936C0106
:1050D000B2E0CB16D104E104F10484F4CA94CD28E3
:1050E000CE28CF2841F01092E30110927400109264
:1050F000B2011092B101812C912C54018091650173
:1051000090916601A0916701B0916801BC01CD0149
:105110000E94331A6B017C0195E6C916D104E104A3
:10512000F10484F00E94AE196093650170936601EA
:1051300080936701909368018091350280936401A8
:105140008092630110916401A0916301A11BBB0BCC
:10515000A70196010E94132C69877A878B879C8709
:1051600024E630E040E050E00E94E92B120F10935B
:10517000350280917801882351F08091720110925C
:105180007801809373018091700180937101E12C0B
:1051900010917201F090730180916F01E81678F11F
:1051A00090E08091730120917201281709F493C057
:1051B000E82FF0E0EC58FE4F90818F5F8370809372
:1051C0007301809171018F5F8093710197FD75C0AC
:1051D0008AEA0E940919AFE3BCE91197F1F700C010
:1051E00000008AEA74C040815181052E000C660BD4
:1051F000770BC40ED51EE61EF71E0196F6CE61E0B3
:105200008E2D0E94A718D82E60E08E2D0E94A71820
:10521000DD0C8D292E2D30E0D901A259BE4FEC9125
:105220009E2F93708917A9F1EE0FEE0FE82BEC93E8
:10523000EF70F0E0ED56FF4F23593E4F8081D901CA
:105240009C91890F8C93823034F1412F50E0EF2DE7
:10525000E150FF0BBF01637077274617570781F0B6
:1052600040595E4F9E2D9F77DA0114969C931F5FE5
:10527000137010937201909170019F5F9093700171
:10528000082E000C990B62E070E00E946E2BF90171
:105290008083E3947DCF8F3F9CF7412F50E0EF2D2B
:1052A000E150FF0BBF01637077274617570741F3A3
:1052B00040595E4F9E2D9068D7CF89EA0E94091908
:1052C0008FE39CE90197F1F700C0000089EA0E9492
:1052D000731991E066CF992339F00E94AE190E94AC
:1052E000D7200E94031B04C00E94D7200111F9CFD0
:1052F0000E94B01890917901891709F4B0CD80937C
:1053000079010E94AE19ABCD78941F921FB61F92FF
:1053100011248F939F93AF93BF9380910501909138
:105320000601A0910701B09108010196A11DB11DD0
:105330008093050190930601A0930701B0930801A3
:10534000BF91AF919F918F911F901FBE1F90189595
:10535000FF920F931F93CF93DF93182FEB0116BE8D
:1053600084EA86BF0E94A924082FF92E06B607FEFC
:1053700022C081B1887F883021F081B1887F80315F
:1053800081F513B984E886BF0E94A924182F092F3C
:1053900006B607FE1EC021B1287F80E090E02831CC
:1053A00099F081E090E0203411F480E090E0919554
:1053B0008195910909C0802F9F2D0E94D824C8177C
:1053C000D907A0F68EEF9FEFCDB7DEB7E5E00C94DE
:1053D000542B812F902F0E94D824C817D907C0F6CC
:1053E000F1CF8FEF9FEFF0CF11B88CE080B985B38C
:1053F000836085BB86B7846086BF86B7816086BFC1
:1054000086B7806486BF08950F931F93CF93DF9371
:10541000EB0183B984E886BF0E94A924182F092FC5
:1054200006B607FE10C021B1287F81E090E0283247
:1054300011F480E090E0919581959109DF91CF91F1
:105440001F910F910895CF3FDC0751F3812F902FCB
:105450000E94D824C817D90718F78EEF9FEFEECF18
:10546000A0E0B0E0E6E3FAE20C94302B782E5B018A
:105470006A0189010E94A9244C010431110558F1E7
:105480000F3F100761F1C80164E170E00E94172B23
:10549000F62EE72E6F2D7E2D872D0E94A829EC0178
:1054A00097FF09C00F3F1007A9F3C4010E94D82439
:1054B0000817190778F77501CA0CDB1CEC14FD04FA
:1054C00011F0D7FF0FC084E986BFCE01CDB7DEB79C
:1054D000EDE00C944C2BFF24F394E12CDBCF85E022
:1054E000F82EFBCFB801F70181917F010E94042AB9
:1054F000EC01E4CFA0E0B0E0E0E8FAE20C94302B5D
:10550000782E5B016A0189010E94A9244C010431B3
:10551000110558F10F3F100761F1C80164E170E017
:105520000E94172BF62EE72E6F2D7E2D872D0E94C1
:10553000A829EC0197FF09C00F3F1007A9F3C40188
:105540000E94D8240817190778F77501CA0CDB1CCC
:10555000EC14FD0411F0D7FF0FC084E986BFCE0123
:10556000CDB7DEB7EDE00C944C2BFF24F394E12C87
:10557000DBCF85E0F82EFBCFF7018491B8010E94C4
:10558000042AEC01FFEFEF1AFF0AE2CFA0E0B0E03F
:10559000ECECFAE20C942F2B682E962E5A0169013E
:1055A00078010E94A924782E892E0431110528F152
:1055B0000F3F100729F1C80164E170E00E94172B2A
:1055C000162F072F612F702F862D0E94A829EC011E
:1055D00097FF18C0FFEFEF16FF06A1F3872D982D58
:1055E0000E94D824E816F90668F784E986BFCE0140
:1055F000CDB7DEB7EEE00C944B2B11E000E0E2CF2C
:1056000015E0FCCFB701892D0E94042AEC01850129
:10561000CA0CDB1C0C151D0541F3D7FDE6CFB70105
:10562000F80181918F010E94042AEC01F3CFAA1B9B
:10563000BB1B51E107C0AA1FBB1FA617B70710F07D
:10564000A61BB70B881F991F5A95A9F780959095AF
:10565000BC01CD0108952F923F924F925F926F92BD
:105660007F928F929F92AF92BF92CF92DF92EF92F2
:10567000FF920F931F93CF93DF93CDB7DEB7CA1B73
:10568000DB0B0FB6F894DEBF0FBECDBF09942A889E
:10569000398848885F846E847D848C849B84AA8446
:1056A000B984C884DF80EE80FD800C811B81AA81D3
:1056B000B981CE0FD11D0FB6F894DEBF0FBECDBF9E
:1056C000ED010895991B79E004C0991F961708F021
:1056D000961B881F7A95C9F78095089597FB072E2A
:1056E00016F4009407D077FD09D00E94172B07FC11
:1056F00005D03EF4909581959F4F089570956195E2
:105700007F4F0895FB01DC0102C005900D924150CE
:105710005040D8F70895FB01DC0104C08D91019041
:10572000801921F441505040C8F7881B990B089507
:10573000E199FECF9FBB8EBBE09A99278DB3089568
:10574000A8E1B0E042E050E00C94DB2BDC01A40FB8
:10575000B51F4150504048F0CB01840F951F2E914A
:105760000E94B72B41505040D0F70895262FE19961
:10577000FECF9FBB8EBBE09A01970DB2021631F0AF
:105780002DBB0FB6F894E29AE19A0FBE08950396E6
:10579000272F0E94B72B0E94B62B252F0E94B72BD4
:1057A000242F0C94B72B0196272F0E94B72B0C9413
:1057B000B62BDC01CB01FC01E199FECF06C0FFBB9B
:1057C000EEBBE09A31960DB20D9241505040B8F7C1
:1057D0000895052E97FB1EF400940E94002C57FD9F
:1057E00007D00E941B2C07FC03D04EF40C94002C15
:1057F00050954095309521953F4F4F4F5F4F0895FD
:1058000090958095709561957F4F8F4F9F4F08952C
:105810000E943D2CA59F900DB49F900DA49F800DDC
:10582000911D11240895B7FF0C94082C0E94082C98
:10583000821B930B0895A1E21A2EAA1BBB1BFD012C
:105840000DC0AA1FBB1FEE1FFF1FA217B307E4075F
:10585000F50720F0A21BB30BE40BF50B661F771FB7
:10586000881F991F1A9469F7609570958095909597
:105870009B01AC01BD01CF010895A29FB001B39F70
:10588000C001A39F700D811D1124911DB29F700D49
:0C589000811D1124911D0895F894FFCF94
:10589C00FF5A010021007F220003531A4D24561A8F
:1058AC00571A8824010008101818100800323337D2
:1058BC0034363590609161926293639464959697B7
:1058CC0007060500FF0100010000FFFF00000100BA
:1058DC0001FF00E200E900EA00B500B600B700CD18
:1058EC00008301CC008A019201940121022302243D
:1058FC00022502260227022A02B300B4006F0070B0
:10590C00009F01CB019F02A0020304020196DF1944
:08591C0003000000FACB1900A2
:00000001FF
