:100000000C94130D0C94300D0C944B0D0C94300D7E
:100010000C94300D0C94300D0C94300D0C94300D6C
:100020000C94300D0C94300D0C949C220C94300DDB
:100030000C94300D0C94300D0C94300D0C94300D4C
:100040000C94300D0C94300D0C94300D0C94300D3C
:100050000C94300D00AF00AE07087F0807003E5B30
:100060004F5B3E003E6B4F6B3E001C3E7C3E1C00D7
:10007000183C7E3C18001C577D571C001C5E7F5EA0
:100080001C0000183C180000FFE7C3E7FF00001841
:1000900024180000FFE7DBE7FF0030483A060E00B7
:1000A000262979292600407F05050700407F052580
:1000B0003F005A3CE73C5A007F3E1C1C0800081CCD
:1000C0001C3E7F0014227F2214005F5F005F5F00F0
:1000D00006097F017F00006689956A0060606060A4
:1000E000600094A2FFA2940008047E04080010207F
:1000F0007E20100008082A1C0800081C2A08080096
:100100001E10101010000C1E0C1E0C0030383E3853
:100110003000060E3E0E0600000000000000000049
:100120005F000000000700070000147F147F140028
:10013000242A7F2A120023130864620036495620BD
:100140005000000807030000001C2241000000418D
:10015000221C00002A1C7F1C2A0008083E080800F8
:100160000080703000000808080808000000606087
:1001700000002010080402003E5149453E000042A4
:100180007F4000007249494946002141494D3300F2
:100190001814127F10002745454539003C4A49494B
:1001A00031004121110907003649494936004649C5
:1001B00049291E0000001400000000403400000027
:1001C00000081422410014141414140000412214D5
:1001D00008000201590906003E415D594E007C129B
:1001E00011127C007F49494936003E4141412200BD
:1001F0007F4141413E007F49494941007F0909094A
:1002000001003E41415173007F0808087F00004112
:100210007F4100002040413F01007F08142241003F
:100220007F40404040007F021C027F007F04081096
:100230007F003E4141413E007F09090906003E41E1
:1002400051215E007F09192946002649494932009B
:1002500003017F0103003F4040403F001F2040203A
:100260001F003F4038403F0063140814630003043C
:10027000780403006159494D4300007F414141002A
:10028000020408102000004141417F0004020102E5
:100290000400404040404000000307080000205494
:1002A000547840007F2844443800384444442800AF
:1002B000384444287F0038545454180000087E09FC
:1002C000020018A4A49C78007F080404780000446D
:1002D0007D4000002040403D00007F102844000089
:1002E00000417F4000007C04780478007C0804040E
:1002F0007800384444443800FC182424180018249A
:100300002418FC007C0804040800485454542400B9
:1003100004043F4424003C4040207C001C2040203A
:100320001C003C4030403C004428102844004C90C5
:1003300090907C004464544C440000083641000016
:1003400000007700000000413608000002010204AE
:1003500002003C2623263C00000000000000404034
:1003600040F0F8F8FF38FFF8F83FF8F8FF38FFF8EA
:10037000F8F040404000000000000080C0C0C08095
:100380000000C0C08000000080C0C000C0C00000ED
:1003900080C0C00000000000C0C0C0C0C000C0C01D
:1003A000000000000000000000000000000000004D
:1003B000000000000000000000000000000000003D
:1003C000000000000000000000000000000000002D
:1003D00000000000000000C0F0F8FC3E1E06010016
:1003E00000007F4141417F007F4141417F0000800B
:1003F000C0E07E5B4F5BFEC00000C000DCD7DEDEED
:10040000DED7DC00C000000000000000000000009B
:10041000000000000000000000000000000049494A
:1004200049FFFFFFFFE0DFBFBF00BFBFDFE0FFFF0F
:10043000FFFF49494900000000001F3F6060E0BF26
:100440001F007F7F071E381E077F7F007F7F0E1FE4
:100450003B716000000000007F7F0C0C0C007E7E72
:10046000007F7E0303007F7E03037E7E03037F7E87
:10047000000F3E703C063C703E0F00327B49493F06
:100480007E007F7E0303001E3F69696F2600000027
:1004900000000000000000030F1F3F3C7870600068
:1004A00000007F4141417F007F4141417F00307B1F
:1004B0007F7830202030787F3B0003000F7F0F0FC4
:1004C0000F7F0F000300000000000000000000008C
:1004D000000000000000000000000000000001011A
:1004E00001070F0F7F0F7F0F0F7E0F0F7F0F7F0F03
:1004F0000F070101010000000000000000000001E2
:1005000001000000000000000000000000000000EA
:1005100000000000000000000000000000000000DB
:1005200000000000000000000000000000000000CB
:1005300000000000000000000000000000000000BB
:1005400000000000000000000000000000000000AB
:10055000000000000000000000000000000000009B
:10056000000000000000000000000000000000008B
:10057000000000000000000000000000000000007B
:10058000000000000000000000000000384650405D
:10059000403030404050463805010980A1018503B4
:1005A00019012AB700150126B700950175108100C1
:1005B000C0050C0901A101850419012AA002150139
:1005C00026A002950175108100C005010906A10150
:1005D000050719E029E71500250195087501810235
:1005E0009501750881030507190029FF150026FFED
:1005F00000950675088100050819012905150025D3
:1006000001950575019102950175039103C01003D1
:100610004C0043004B0037003500720032000000F0
:100620000C034C00790073006F00310000000403DC
:10063000090409023B00020100A0FA0904000001BC
:100640000301010009210101000122440007058185
:100650000308000109040100010300000009210151
:100660000100012232000705830308000112011076
:100670000100000008567863610200010200014396
:100680006170730000DA0281FFD9F1DB20A4A62E8D
:10069000AF00A0C0D30000A1C8D30000AED580A891
:1006A0001F408D14200029003A003B003C003D0013
:1006B0003E003F004000410042004300440045002E
:1006C00000004C00A80035001E001F002000210083
:1006D0002200230024002500260027002D002E00E4
:1006E00000002A00AE002B0014001A0008001500BC
:1006F00017001C0018000C00120013002F0030001F
:1007000000003100AC0039000400160007000900A9
:100710000A000B000D000E000F0033003400000033
:1007200000002800AB00E10000001D001B000600D7
:100730001900050011001000360037003800E500F0
:10074000000052002152E000E300E200000000003F
:1007500000002C00000000000000E600E400500053
:10076000000051004F0001000100010001000100E4
:100770000100010001000100010001000100010071
:1007800000000100407401000100010001000100AF
:100790000100010001000100010001000100010051
:1007A0000000010046000100010001000100007C82
:1007B0000100010001000100010001000100010031
:1007C00000000100490039000100010001000100A2
:1007D0000100010001000100010001000100000012
:1007E0000000010001000100000001000100010003
:1007F00001000100010001000100010001000100F1
:1008000000000100010001000100010000000000E3
:1008100000000100000000000000E60001000100EF
:1008200000000100010000000000000000000000C6
:1008300000000000000000000000000000000000B8
:100840000000000000000000000000000000008028
:10085000C0C060703070F8FE033E78C8880C0C048D
:100860000603011C3C66C68703030101000080806B
:10087000C0C0616332361E1C0C0000000000000086
:100880000080818386CC7C061EF000000000000002
:100890000000000000000000000000000000000058
:1008A0000000000000000000000000000000000048
:1008B0000000000000000000000000000000000038
:1008C0000000000000000080C060785C56D793B143
:1008D000A160404060F0FF1F0C0C3FE7C3C0C04068
:1008E000C0C0C0C0C0C0C18383868682838381812B
:1008F0008080C0C0C0C0C0C0C0C0C0C0C0C0C080B8
:10090000808F1B113018181C0CFF7E0000000000A7
:1009100000000000000000000000000000000000D7
:1009200000000000000000000000000000000000C7
:1009300000000000000000008080C0C0E060703057
:1009400018180C0C0606030100000000000000004F
:100950000101010101FF038080F81C877773D6C471
:10096000083879696CC4C4C4848484848484C4C40D
:10097000C4C4C46C78301111191808084DADA7878C
:10098000478F8A1818F0F0F83F1F0600000000009B
:100990000000000000000000000000000000000057
:1009A0000000000000000000000000000000000047
:1009B0000080E070380C0603030100000000000016
:1009C00000000000000080E07818181018F8E0001F
:1009D000000000FCFFCFC141CA99FDFF0E1703E1E3
:1009E000A040408080C0E0C0810101010101000001
:1009F000000000000000004040E000000000000097
:100A000003BAFDEFC7030100000000000000000072
:100A100000000000000000000000000000000000D6
:100A200000000000000000000000000000000000C6
:100A300000000000000000000000000000000000B6
:100A40000000000000000000000000000000008026
:100A5000C0C060703070F8FE033E78C8880C0C048B
:100A60000603011C3C66C687030301010000808069
:100A7000C0C0616332361E1C0C0000000000000084
:100A80000080818386CC7C061EF000000000000000
:100A90000000000000000000000000000000000056
:100AA0000000000000000000000000000000000046
:100AB0000000000000000000000000000000000036
:100AC0000000000000000080C060785C56D793B141
:100AD000A160404060F0FF1F0C0C3FE7C3C0C04066
:100AE000C0C0C0C0C0C0C183838686828383818129
:100AF0008080C0C0C0C0C0C0C0C0C0C0C0C0C080B6
:100B0000808F1B113018181C0CFF7E0000000000A5
:100B100000000000000000000000000000000000D5
:100B200000000000000000000000000000000000C5
:100B300000000000000000008080C0C0E060703055
:100B400018180C0C0606030100000000000000004D
:100B50000101010101FFC3E070F8EC6777F3F6D4FF
:100B6000083879696CC4C4C4848484848484C4C40B
:100B7000C4C4C46C78301111191808086DAD2F87E2
:100B8000478F1A1870E0F8F83F1F060000000000B9
:100B90000000000000000000000000000000000055
:100BA0000000000000000000000000000000000045
:100BB0000080E070380C0603030100000000000014
:100BC00000000000000080E07818181018F8E0001D
:100BD000000000FCFFC781F2C11CFEFE2C3F37E085
:100BE0006040008080C0E0C00101010101010000FF
:100BF00000000000000000000000000000000000F5
:100C00000302BDFEE7030100000000000000000039
:100C100000000000000000000000000000000000D4
:100C200000000000000000000000000000000000C4
:100C300000000000000000000000000000000000B4
:100C400000000000000000000000000000000000A4
:100C500080C0C0E06070703838181C9C9CDC7C3C04
:100C60000CECFCFC30D0F8780E077FFCC683010149
:100C70000000000000060F0F1B191930306060E003
:100C8000C0C08081030383C3E7763C3870E0C0C0F6
:100C9000F07E07FE000000000000000000000000E1
:100CA0000000000000000000000000000000000044
:100CB0000000000000000000000000000000000034
:100CC0000000000000000080C0E060787C7E5E577D
:100CD000D3B1A1A0A0A0B098CC4E673311180E07D5
:100CE000FFFFFF000003070E0C1C181C0F878080FD
:100CF000808080808080C0404040404040404040F4
:100D0000406161634347434340C0C04040C1FFFD71
:100D10007C06070300000000000000000000000047
:100D200000000000000000000000000000000000C3
:100D300000000000000000008080C0C0E060703053
:100D400038181C0C0E06070301000000000000000C
:100D500000000000C0FF03000000000000000000D1
:100D6000010FFFF7E7C0E0703018181A5FDFDF1CD3
:100D700018181819595818183C3C34363636363677
:100D8000766666C6C6C6C666ECBC3C5C1C060D181C
:100D9000F0E0808080800000000000000000000083
:100DA0000000000000000000000000000000000043
:100DB00080C0E030180C06030101000000000000B4
:100DC00000000000000080E0781818181C0E06FED5
:100DD000F00000FEFF000000000000000000000026
:100DE000000003F3FFDF00E0F0787C7C773F1B1FFF
:100DF0001E1E0C000181C0C0800000000000000029
:100E0000010505050101010000000000000080400F
:100E100020010000070FF870000000000000000033
:100E200000000000000000000000000000000000C2
:100E300000000000000000000000000000000000B2
:100E400000000000000000000000000000000000A2
:100E500080C0C0E06070703838181C9C9CDC7C3C02
:100E60000CECFCFC30D0F8780E077FFCC683010147
:100E70000000000000060F0F1B191930306060E001
:100E8000C0C08081030383C3E7763C3870E0C0C0F4
:100E9000F07E07FE000000000000000000000000DF
:100EA0000000000000000000000000000000000042
:100EB0000000000000000000000000000000000032
:100EC0000000000000000080C0E060787C7E5E577B
:100ED000D3B1A1A0A0A0B098CC4E673311180E07D3
:100EE000FFFFFF000003070E0C1C181C0F878080FB
:100EF000808080808080C0404040404040404040F2
:100F0000406161634347434340C0C04040C1FFFD6F
:100F10007C06070300000000000000000000000045
:100F200000000000000000000000000000000000C1
:100F300000000000000000008080C0C0E060703051
:100F400038181C0C0E06070301000000000000000A
:100F500000000000C0FF03000000000000000000CF
:100F6000010F3FD747E0C0F03018189ADF3F1F1C31
:100F700018185859191818181C3CB4B6B636767695
:100F80007666C6C6C6C6C6666C3C3C3C1C060D787A
:100F9000F0C0800000000000000000000000000021
:100FA0000000000000000000000000000000000041
:100FB00080C0E030180C06030101000000000000B2
:100FC00000000000000080E0781818181C0E06FED3
:100FD000F00000FEFF000000000000000000000024
:100FE000000000E1F3FF0F070706CDF8F8DDEFF78B
:100FF0001B9B0B0B0501008080800002000000009D
:101000000001010501010000000000000000008057
:1010100000010107067CF80000000000000000004D
:1010200000000000000000000000000000000000C0
:1010300000000000000000000000000000000000B0
:1010400000000000000000000000000000000000A0
:1010500080C0C0E06070703838181C9C9CDC7C3C00
:101060000CECFCFC30D0F8780E077FFCC683010145
:101070000000000000060F0F1B191930306060E0FF
:10108000C0C08081030383C3E7763C3870E0C0C0F2
:10109000F07E07FE000000000000000000000000DD
:1010A0000000000000000000000000000000000040
:1010B0000000000000000000000000000000000030
:1010C0000000000000000080C0E060787C7E5E5779
:1010D000D3B1A1A0A0A0B098CC4E673311180E07D1
:1010E000FFFFFF000003070E0C1C181C0F878080F9
:1010F000808080808080C0404040404040404040F0
:10110000406161634347434340C0C04040C1FFFD6D
:101110007C06070300000000000000000000000043
:1011200000000000000000000000000000000000BF
:1011300000000000000000008080C0C0E06070304F
:1011400038181C0C0E060703010000000000000008
:1011500000000000C0FF03000000000000000000CD
:10116000010FFF17C7A0C0703018189ADF3F1F1C6F
:1011700018181819591818181C3C343636363636D3
:101180007666C6C6C6C6C6666C3C3C3C1C060D7878
:10119000F0C080800000000000000000000000009F
:1011A000000000000000000000000000000000003F
:1011B00080C0E030180C06030101000000000000B0
:1011C00000000000000080E0781818181C0E06FED1
:1011D000F00000FEFF000000000000000000000022
:1011E000000000E1FEFF2F0604E8F8B9CCFEF7FB93
:1011F000FF1F0E01010080C0C08000000000000041
:1012000000000505050100000000000000000000CE
:1012100000010103073CF000000000000000000096
:1012200000000000000000000000000000000000BE
:1012300000000000000000000000000000000000AE
:10124000000000000000000000000000000000009E
:1012500080C0C0E06070703838181C1C9CDCFC7CBE
:10126000BCFCFCFC1C0CFFFFF88C06020303010015
:10127000040E0E1A1A32337360C0C080800103035B
:10128000020686C6F43C0903030E1CF8E080E03C2D
:101290000FFC000000000000000000000000000043
:1012A000000000000000000000000000000000003E
:1012B000000000000000000000000000000000002E
:1012C0000000000000000080C0E060787C7E5E5777
:1012D000D3B1A1A0A0A0B098CC4E663331180E7F38
:1012E000FFE0870F0C1C1C1C0F8F838080C0C0C0C8
:1012F000C0C0C0C0C0C0C0C0C0C0C1C1C3C3C6C6DA
:10130000C6C7C3C1C0C0C0C0C0C0800FD9F0F80CF0
:1013100007010000000000000000000000000000C5
:1013200000000000000000000000000000000000BD
:1013300000000000000000008080C0C0E06070304D
:1013400038181C0C0E060703010000000000000006
:1013500000000000C0FF03000000000000000000CB
:1013600001C1C3E3F73F1F1F4F070F0F8F8D0C0CF9
:10137000181818193938FC6C646464C6C6868686E9
:10138000C6C4C4E47C38391908080D0F0F1FF3E0F8
:10139000000000000000000000000000000000004D
:1013A000000000000000000000000000000000003D
:1013B00080C0E030180C06030101000000000000AE
:1013C00000000000000080E0781818181C0E06FECF
:1013D000F00000FEFF000000000000000000000020
:1013E0000003E7FFFFDDF6FF1DCEF7FBCF87800090
:1013F0000080C080800000000000000000010101AA
:101400000100000000808000008000000000010357
:1014100006FCF800000000000000000000000000D2
:1014200000000000000000000000000000000000BC
:1014300000000000000000000000000000000000AC
:10144000000000000000000000000000000000801C
:1014500080C0E0607030383818181898F8F8381CD8
:10146000063F7CE6C381010000000002060E1A322E
:101470007262C3C3800000000000030786C6E666F0
:10148000361E00000103070E9CF8F0603804FC00D3
:10149000000000000000000000000000000000004C
:1014A000000000000000000000000000000000003C
:1014B000000000000000000000000000000000002C
:1014C0000000000000000080C0E0707C5E5F57D329
:1014D000B1A1A0A0A0A0F0787C3E1F0F073BFF8E1B
:1014E000FC989888878780C0C0C0C0C0C0C0C0C0FA
:1014F000C0C0C0C14143464E4C4C4E47C3C1C0C0A2
:10150000C0C0C0C0C0C0C0CFDF9910D8FC3E03002F
:1015100000000000000000000000000000000000CB
:1015200000000000000000000000000000000000BB
:1015300000000000000000008080C0C0C06060307B
:101540003038181C0C0E07030100000000000000DA
:1015500000000000E0FF070000000000000120CBB9
:10156000CBCF06C4C487878C880808191918387827
:10157000646464E4C4C4C6C6C6C6C4C4E464646423
:1015800038381909080404020F07FDFF1F0F000077
:10159000000000000000000000000000000000004B
:1015A000000000000000000000000000000000003B
:1015B00000C0E070180C06030301010000000000E9
:1015C00000000000000080E0781818103C00FCE0EB
:1015D000000000FCFF0100000000000000000041CE
:1015E000F31FEE0EF7FBFFF7630000C00080000062
:1015F00000000000000000000000000000000000EB
:1016000000808080800000000000070FF8F80000D4
:1016100000000000000000000000000000000000CA
:1016200000000000000000000000000000000000BA
:1016300000000000000000000000000000000000AA
:10164000000000000000000000000000000000801A
:1016500080C0C0607030381818FCFC3E031F7CF856
:10166000888C0603010000000C1E3666C68303004A
:1016700000000000000083C3E266343C0C0400005C
:10168000000001010386CEFCF81C0CFC00000000E9
:10169000000000000000000000000000000000004A
:1016A000000000000000000000000000000000003A
:1016B000000000000000000000000000000000002A
:1016C0000000000000000080E070785C5E5753D39B
:1016D000B1A0A0A0A0F0F87C3F0B0F86FC8C8C0C76
:1016E000CF87808080C0C0C0C0C0C0C0C0C1C3C7D9
:1016F000C6CCCCC6C7C3C1C0C0C0C0C0C0C0C0C0BB
:10170000C0C0C0C0C79F19101078FCCF00000000F7
:1017100000000000000000000000000000000000C9
:1017200000000000000000000000000000000000B9
:101730000000000000000000808080C0C0606030B9
:1017400038181C0C0E060301000000000000000009
:1017500000010101F0FF03000000000101F7DFA517
:10176000E7C7C7C70D0808187979E4C4C4C4C6869A
:1017700086868686C6C6C4E464687838380909094E
:101780000C04070707071DF8F0791F0F0000000081
:101790000000000000000000000000000000000049
:1017A0000000000000000000000000000000000039
:1017B0000080E070180C060301010000000000002A
:1017C00000000000000080E03818181018F8F00041
:1017D000000000FEFF010000000000F8EE73E2C30D
:1017E000FDFE477320C0C000000000800000000123
:1017F000010101010080808080000080C040000065
:101800000000000000040FFFF100000000000000D5
:1018100000000000000000000000000000000000C8
:1018200000000000000000000000000000000000B8
:1018300000000000000000000000000000000000A8
:101840000000000000000000000000000000008018
:10185000C0C060703070F8FE033E78C8880C0C047D
:101860000603011C3C66C68703030101000080805B
:10187000C0C0616332361E1C0C0000000000000076
:101880000080818386CC7C061EF0000000000000F2
:101890000000000000000000000000000000000048
:1018A0000000000000000000000000000000000038
:1018B0000000000000000000000000000000000028
:1018C0000000000000000080C060785C56D793B133
:1018D000A160404060F0FF1F0C0C3FE7C3C0C04058
:1018E000C0C0C0C0C0C0C18383868682838381811B
:1018F0008080C0C0C0C0C0C0C0C0C0C0C0C0C080A8
:10190000808F1B113018181C0CFF7E000000000097
:1019100000000000000000000000000000000000C7
:1019200000000000000000000000000000000000B7
:1019300000000000000000008080C0C0E060703047
:1019400018180C0C0606030100000000000000003F
:1019500001010101F9FF0380C060BC6F27B3E66499
:10196000083879696CC4C4C4848484848484C4C4FD
:10197000C4C4C46C78301111191808080D0D07077C
:10198000070F1A38E0E0E0F87F1F060000000000B3
:101990000000000000000000000000000000000047
:1019A0000000000000000000000000000000000037
:1019B0000080E070380C0603030100000000000006
:1019C00000000000000080E07818181018F8E0000F
:1019D000000000FE9F64FEFBFCF7DCBEF7E3402046
:1019E00060C060004080808001010101010180C071
:1019F0004040000000804040400000000000000027
:101A0000009CFEFE07010100000000000000000035
:101A100000000000000000000000000000000000C6
:101A200000000000000011241FBECFE5D8E0DEBF9B
:101A3000CDBF24E0AEEDB0E001C01D92AC37B207DF
:101A4000E1F710E0A0E6B0E0ECECFAE402C00590AB
:101A50000D92AE3DB107D9F70E94D21E0C946425B9
:101A60000C940000A82FB92F80E090E041E050EAEC
:101A7000609530E009C02D9182279795879510F0E9
:101A800084279527305EC8F36F5FA8F30895EADFD7
:101A90008D939D930895CF93CFB7CF93DF93C39545
:101AA000839BE9F7839B10C0839B0EC0839B0CC074
:101AB000839B0AC0839B08C0839B06C0C0915604C9
:101AC000C395C09356048EC06F93C0915504DD2713
:101AD000C65ADB4F2F9365E5839B03C02F916F910F
:101AE000E1CF0F931F934F9320E040E15F9300B34A
:101AF0000C7003FB27F93F9350E03BE039C01C70AA
:101B000040642F77012F5F5F1EC0406810B31C70C8
:101B10002F7752501FC0406400B32F770C70D1F163
:101B20005F5F00C023C0406210B32F771C7091F13B
:101B30005F5F00C025C00C701027515012F45D5F2C
:101B40000000115027952C3F10B3C8F61C700127D8
:101B5000015027952C3FC8F64227499300B30C70DB
:101B600010274F73115027952C3FA8F646954695A0
:101B700010B31C7079F00127015027952C3F98F67F
:101B80006B5A60F3315000B3B0F600C010E81ABFD2
:101B900000271CC03B503195C31BD04010E81ABF32
:101BA0000881033C21F10B3411F120915304198178
:101BB000110F1213EDCF4A81441F093679F10D320E
:101BC00011F0013E29F74F7009F0042F00935904DA
:101BD0003F915F914F911F910F912F916F91CAB7D4
:101BE000C7FD5DCFDF91CF91CFBFCF9118952091E9
:101BF0005904222369F310915704112309F049C0B5
:101C000034300AF448C030935704209354041091A0
:101C100055043BE0311B309355043DC000915704FF
:101C20000130BCF50AE54F7049F43091610034FD94
:101C300033C000936100C0E3D4E032C0433059F0B8
:101C4000443091F030913B0434FD26C000933B04B6
:101C5000CCE3D4E025C03091700434FD1DC0009366
:101C60007004C1E7D4E01CC03091470434FD14C0B7
:101C700000934704C8E4D4E013C0052710E000C077
:101C8000000002BB1AC0052710E0221F1DC010E093
:101C900021C04AE502C032ED432FC4E1D0E032E07A
:101CA00011B31C60939A02B311BB5CE020E865E3BA
:101CB00020FF052702BB279517951C3FF0F6669578
:101CC000B8F7B1F720FF052702BB279517951C3FF2
:101CD000D0F62795179517FF052700001C3F02BB7C
:101CE000B0F629913A9519F7037F10915804110F16
:101CF000C651D04002BB11F01093530410E81ABF34
:101D0000086011B3137F402F437F54E05A95F1F7D9
:101D100002BB11BB42BB5CCF0F931F93CF93DF93EA
:101D2000DC01FB01EA018C9168810E947A249C937A
:101D3000892F90E0222361F028812150330BA901E3
:101D4000481B590BCA0157FF03C091958195910912
:101D5000982F8827990FE80FF91F20912E043091B2
:101D60002F04C9018E5292402E5230402130324011
:101D7000D8F020E032E0281B390B40912C02509122
:101D80002D02280F391F01E010E08217930778F029
:101D900050932D0240932C028C918F5F8C93DF9196
:101DA000CF911F910F91089520E032E0E6CF64912A
:101DB000EC01C25DDD4F7881671779F06883BC0163
:101DC000C5E076956795CA95E1F7E80102C0CC0FAA
:101DD000DD1F6A95E2F74C2B5D2B01963196D5CF2E
:101DE0009093DB018093DA0108959093DD01809355
:101DF000DC01089521E030E002C0220F331F8A95F4
:101E0000E2F78091DC019091DD01822B932B0E94FF
:101E1000F50E089521E030E002C0220F331F8A95AD
:101E2000E2F7209530958091DC019091DD018223CD
:101E300093230E94F50E0895963080F5803170F559
:101E400020E1929FF0011124E80FF11D877041E01D
:101E500001C0440F8A95EAF783E0F695E7958A95E5
:101E6000E1F7EE0FFF1FEE0FFF1FE958FE4F80E076
:101E700090E070E05191DF0111979B01082E02C0A4
:101E8000369527950A94E2F721702195252724237A
:101E900025272C9301968430910561F7089596309B
:101EA00070F5803160F520E1929FF0011124E80F78
:101EB000F11D982F977083E0F695E7958A95E1F7E5
:101EC000EE0FFF1FEE0FFF1FE958FE4F40E050E0FE
:101ED00080E0219130E0092E02C0369527950A94C2
:101EE000E2F721703327042E01C0220F0A94EAF78B
:101EF000822B4F5F5F4F4430510559F7089580E0C2
:101F000008958091E1019091E001981301C0089536
:101F10008F5F8770FACF809121029091DF01892B2A
:101F20008093E000E0917501F0917601309731F0F7
:101F30000280F381E02D80EE90E0099508958823DA
:101F400039F090912102892B809321020E948B0FFE
:101F50000895882341F080959091210289238093F0
:101F600021020E948B0F08957630C8F46031B8F4D6
:101F70008230C0F4E72FF0E096E0899FE00DF11D7C
:101F8000112484E0EE0FFF1F8A95E1F7E60FF11DA3
:101F9000EE0FFF1FEA55F94F85919491089580E067
:101FA00090E0089581E0FCCF803E9105D1F1C8F426
:101FB0008133910509F47FC048F48932910509F411
:101FC0006FC08A32910509F47DC008958933910567
:101FD000E1F082389105C9F08533910509F45BC0C1
:101FE0000895843E9105D1F148F4823E910531F186
:101FF000833E910541F181EE90E00895863E910582
:10200000C1F1873E9105E1F108952091710123709E
:10201000211165C02091720123FF14C089E290E074
:1020200008952091710120FD43C03091720130FF6D
:1020300009C024FF4EC080E090E008952091710116
:1020400022FDF7CF08952091710122FD45C0309106
:10205000720130FD44C024FFF5CFEDCF2091720115
:1020600021FFF0CF8091710184FDE5CF87EE90E0F4
:1020700008952091710123FFE5CF24FDDCCFF6CF39
:102080002091710123FD2EC03091720131FFE3CF09
:1020900084EE90E008952091710125FFD3CFBECF4B
:1020A0002091710125FD21C02091720123FFCACF2B
:1020B00089E390E008952091710126FFC3CF8AE261
:1020C00090E008952091710126FFBCCF81E390E05C
:1020D000089583EE90E0089582EE90E0089580EEFA
:1020E00090E0089586EE90E0089585E390E0AACF11
:1020F0009091710192FF10C041E0282F247124308B
:1021000009F040E031E0282F2871283009F030E054
:10211000431711F02CE0822793FF10C041E0282FD5
:102120002471243109F040E031E0282F2871283152
:1021300009F030E0431711F02CE082273091720152
:1021400030FF10C051E0282F2171213009F050E0FC
:1021500041E0282F2871283009F040E0541711F091
:1021600029E0822731FF10C041E0282F2171213161
:1021700009F040E031E0282F2871283109F030E0E3
:10218000431711F029E0822794FD877E08951F935D
:10219000CF93DF930E94D40FEC01811520E59207C5
:1021A00008F048C0811540E4940708F0C2C0803EA2
:1021B0009105E0F0811550E2950798F18D2F8F7110
:1021C0000E947810182FCE0199270E94D40F212F3A
:1021D00030E0322F222722273F71282B392BE901AB
:1021E000D062CE01DF91CF911F9108958D3C910572
:1021F00008F08BC0883A910560F4853A910508F0A3
:1022000076C08130910569F30497813A910548F3CE
:1022100005C0885A91094B9708F46CC0C0E0D0E023
:10222000E0CF8F3F910511F008F071C0805E9109F9
:102230000797EDCFC03682E5D80738F5C03422E5E0
:10224000D20708F093C0C03242E5D40738F0CF710E
:10225000D0E0DC2FCC27C16FD06AC3CF8C2FC11543
:1022600052E5D50708F06EC08F710E947810282FB4
:1022700030E084FD9CC085E0D695C7958A95E1F74E
:10228000CF703C2BE901D069ACCFC03C82E5D807C8
:1022900008F5C03A22E5D20708F07EC0CE0180568C
:1022A0009245809708F0BACF8C2F869586958770D7
:1022B00050E2859FC0011124C37021E030E0A901E4
:1022C00002C0440F551FCA95E2F7EA01C82BD92B6B
:1022D000DA6887CFCE01805C9245809708F09ECF68
:1022E000DC2FCC27CC27DF71C06FD06A7ACFA497C0
:1022F000D06477CFC85AD0E0CC0FDD1FCD55DF4F6B
:102300000990D881C02DD4646CCFD0656ACF8D2F51
:102310000E947810182FCE0199270E94D40F212FE8
:1023200030E0322F2227E901CC27DF71C82BD92BCF
:1023300058CF99270E94D40FCC27DF70C82BD92BF8
:10234000D06A4FCF8695869540E2849FC0011124C4
:10235000C37021E030E0A90102C0440F551FCA95A7
:10236000E2F7EA01C82BD92BDD683BCF8C2F86958D
:102370008695877050E2859FC0011124C37021E0CB
:1023800030E0A90102C0440F551FCA95E2F7EA01E7
:10239000C82BD92BDC6825CF8C2F8F710E94781029
:1023A000C82FD0E0DC2FCC27CC27DF711ACF94E0E8
:1023B000220F331F9A95E1F75ECFA0E0B0E0E3EE85
:1023C000F1E10C944C248C01E090DC01F090DD01F3
:1023D0008091DA019091DB01E82AF92ACFE0D0E080
:1023E000CC24C394D12CC6010C2E02C0880F991F97
:1023F0000A94E2F78E219F21892B49F4219798F7BF
:10240000B12C8B2DCDB7DEB7E9E00C946824BC2E3F
:10241000B8018C2F0E94B40F0E94C710019771F36E
:10242000F0CF0F931F93CF93FC0185810081118121
:10243000882391F0662381F0C8010E94DD11C82F26
:10244000682FC8010E941C0FB8018C2F0E94B40F86
:10245000CF911F910F910895C8010E944F0FC82F6F
:10246000F3CFCF93DF93D82FC92F0E94DD116D2FAB
:102470007C2F0E94B40F0E94C710DF91CF91089566
:10248000FC0184818823A1F0808191810E94311216
:10249000282F92959F70963091F060F4925F9F7014
:1024A000923030F481E0203F79F030F4283E30F073
:1024B00080E004C09A5FF3CF243FD1F7089581E014
:1024C000283E18F0213FF9CF0895089580E008953F
:1024D000F894E82FE295EF70F0E041A98F7021E0C9
:1024E00030E0B90102C0660F771F8A95E2F7CB0191
:1024F000962F9095942391AB92A9892B82AB7894D7
:10250000089521B381E090E0AC0102C0440F551F53
:102510006A95E2F7842F8095822381BB82B3842B56
:1025200082BB089580B390E002C0959587956A9527
:10253000E2F781700895E0917501F091760130978E
:1025400029F00190F081E02D0995089580E008952B
:10255000A3E0B0E0EEEAF2E10C9453249C018091F8
:1025600007019091080182179307A1F030930801A9
:1025700020930701E0917501F0917601309751F0B9
:1025800083E089833B832A830084F185E02DCE019B
:10259000019609952396E2E00C946F24A3E0B0E045
:1025A000E4EDF2E10C9453249C018091050190919B
:1025B000060182179307A1F03093060120930501CD
:1025C000E0917501F0917601309751F084E08983B4
:1025D0003B832A830084F185E02DCE010196099585
:1025E0002396E2E00C946F240F931F93CF93C82F90
:1025F000882339F18CEF8C0F813AB0F502EE10E0B0
:10260000F8018191C81709F120E0E83EF207C9F707
:10261000EFEF80E0D8019D918D01C91781F0EF3F68
:1026200019F4911101C0E82F8F5F863099F7EF3FC1
:1026300031F00E2E000CFF0BE052FF4FC2830E94C0
:102640008B0FCF911F910F910895E2EEF0E08191F1
:10265000C81303C0DF0111971C9230E0E83EF30776
:10266000B1F70E948B0FD4CF80E28C0F883068F4D2
:10267000C77081E090E001C0880FCA95EAF7C09169
:102680002102C82BC0932102DACF8BE58C0F833057
:1026900038F42C2F2452330BC9010E94A812D1CF39
:1026A000C85ACB3170F6EC2FF0E0EE0FFF1FED555E
:1026B000FF4F808191810E94CE12C3CF8823C1F148
:1026C0009CEF980F913A78F4E2EEF0E09191891343
:1026D00003C0DF0111971C9240E0E83EF407B1F718
:1026E0000E948B0F089590E2980F983088F48770BD
:1026F00021E030E0A90102C0440F551F8A95E2F79E
:10270000CA01809590912102892380932102E8CF0C
:102710009BE5980F933028F480E090E00E94A81287
:102720000895885A8B3120F480E090E00E94CE1208
:102730000895A4E0B0E0EFE9F3E10C9453248FB7DF
:10274000F8942091010130910201409103015091D0
:10275000040129833A834B835C838FBF69817A812B
:102760008B819C812496E2E00C946F240E94991343
:102770006093220270932302809324029093250297
:1027800080912B0290912602983200F58823A1F0C7
:1027900021E04AED50E066E272E18AE292E00E94B6
:1027A0008C0E81E090912A02943009F480E08093AD
:1027B0002B0210922802089520E049ED50E066E2D5
:1027C0007CE089E292E00E948C0EF3CF20E0811140
:1027D00015C04AED50E066E272E18AE292E00E94A2
:1027E0008C0E81E090912A02943009F080E0809371
:1027F0002B02809327021092290208954BED50E09E
:1028000066E278E088E292E00E948C0EF4CFA4E0C9
:10281000B0E0EDE0F4E10C945124462F572FBC01B9
:102820002FB7F8948091010190910201A0910301CA
:10283000B09104012FBF8C019D01041B150B260BC9
:10284000370BC901B8012496E4E00C946D24809103
:102850000001089508950895FC018381833059F1A2
:1028600030F48130C1F08230F1F080E0089581329F
:1028700009F440C08232C9F784819581009709F438
:102880004BC0019791F788E995E09093F70080930A
:10289000F60082E308958DE696E09093F70080932A
:1028A000F60082E1089582E396E09093F70080932A
:1028B000F6008BE308958281813061F0823091F0DF
:1028C0008111D3CF8EE296E09093F7008093F600CB
:1028D00084E0089580E296E09093F7008093F600FC
:1028E0008CE008958EE096E09093F7008093F600D8
:1028F00080E1089584819581009731F0019709F076
:10290000B4CF8DE596E002C084E496E09093F700A2
:102910008093F60089E008958AEC95E09093F700A3
:102920008093F60084E40895E091E1019091E00144
:1029300027E0E91302C080E00895AE2FB0E02E9F9B
:10294000F0011124EE51FE4F3181361306C0308163
:10295000381303C03581341304C0FD013196E7708C
:10296000E8CF81E00895E2EEF0E086E0DF011D921D
:102970008A95E9F780E090E00E94A81280E090E05C
:102980000E94CE121092DF010E948B0F08951092C8
:1029900021020E94B3142FEF84E39CE02150804079
:1029A0009040E1F700C0000088E198E00FB6F8948D
:1029B000A89581BD0FBE91BDFFCFAB0124E630E0ED
:1029C000BC0188E70E9492239C0181E0232B09F03F
:1029D00080E0089580913801882369F08091DE01BC
:1029E000882349F062E070E086E590E00E94DD1403
:1029F00081111092DE010895A4E0B0E0E2E0F5E17B
:102A00000C945324809138018823F9F00E94991383
:102A1000DC01CB01805A9541AF4FBF4F8093390104
:102A200090933A01A0933B01B0933C018091DE0169
:102A300081110BC062E070E084E590E00E94DD143B
:102A4000882319F081E08093DE012496E2E00C9463
:102A50006F24EF92FF920F931F93CF93DF938C011C
:102A6000FC018481882309F480C061E0C8010E94D0
:102A700011129C01F8018581882309F48FC0C901D6
:102A80009A9581159F4440F5C9019927AC0144509E
:102A900051094432510508F46DC08B970E9708F028
:102AA00042C0E091D901F0E0EE0FFF1FE955FE4F63
:102AB000808191818F3F4FE7940719F001969183B0
:102AC000808323309CE7390771F56FEF7FEF80E05B
:102AD00090E00E94EB2460C02F3F310511F008F018
:102AE00056C0C90104978432910508F443C0879702
:102AF0000E9760F0F801E080F180C7010E94DD11BF
:102B0000C82F682FC7010E941C0F4EC0E091D90149
:102B1000F0E0EE0FFF1FE955FE4F808191818F3F5E
:102B20004FE7940759F621153C4721F710922102EF
:102B30000E94B314FFEF24E34CE0F15020404040EA
:102B4000E1F700C0000088E198E00FB6F894A8957E
:102B500081BD0FBE91BDA895F894D8E0CEE528E3DD
:102B6000299320E0299314BEFFCFCDB7DEB7E6E06E
:102B70000C946B24E091D901F0E0EE0FFF1FE955B2
:102B8000FE4F808191818F3F5FE79507CBCF21304A
:102B90008CE7380709F095CF0E94C714E080F180D8
:102BA000C7010E944F0FC82FB7018C2F0E94B40F8E
:102BB0000E94C710C82FF8012581368132953F70D9
:102BC000492F42954F70483009F4A8C020F5443091
:102BD000A0F4892F8F70423070F1907F903211F005
:102BE0008295807FC13009F067C0222309F45EC05E
:102BF000363030F40E949F0F03C0443009F473C094
:102C000060E0C8010E9411128091DE018111ADCFF8
:102C10000E94FC14AACF493009F412C14A5F4F70D8
:102C2000423070F7823F09F01CC1892F8F71222337
:102C300009F443C113C1D82F903110F0D295D07F41
:102C40002223C9F0DD2369F080E28C0F883010F078
:102C5000C1110BC0809121028D2B809321020E9413
:102C60008B0F8C2F0E94F412CBCF8091DF018D2B24
:102C70008093DF01F4CF8C2F0E945E13DD2309F4D3
:102C8000BFCFD09580E28C0F883010F0C11108C002
:102C9000809121028D23809321020E948B0FB0CF5F
:102CA0008091DF018D238093DF01F7CF353008F06D
:102CB000A7CF0E94A90FA4CF222321F0332309F428
:102CC00099CFCFCF3323A9F3C93349F4FFEF27EED0
:102CD00043E0F15020404040E1F700C000008C2F5D
:102CE0000E945E138DCF892F8695869583708823E9
:102CF00061F0813009F084CF8C2F9370211102C0D4
:102D000080E090E00E94CE127BCF8C2F9370211137
:102D100002C080E090E00E94A81272CF892F8370D9
:102D2000811145C0211130C08C2F82958695877006
:102D3000880F880F2C2F2F7030E0082E02C0220F32
:102D4000331F0A94E2F740E050E0C4FF09C04FE0AF
:102D500050E002C0440F551F8A95E2F74095509508
:102D60009695969593709230C1F0933091F0609162
:102D7000DA017091DB01913051F0C901842B952B60
:102D8000862397230E94F00E0E949B1239CF262B98
:102D9000372BC901842B952BF5CFC901842B952B9B
:102DA0002091DA013091DB0182279327EBCF222398
:102DB00099F190FFE9CF8C2F829586958770880FC7
:102DC000880F2C2F2F7030E0082E02C0220F331FE7
:102DD0000A94E2F740E050E0C4FF09C04FE050E041
:102DE00002C0440F551F8A95E2F74095509596957D
:102DF000969593709230D1F09330A1F06091DC0100
:102E00007091DD01913061F0C901842B952B8623EF
:102E100097230E94F50EB8CF823008F4B5CFCBCF00
:102E2000262B372BC901842B952BF3CFC901842B7B
:102E3000952B2091DC013091DD0182279327E9CF8A
:102E4000D92FDF70222339F08D2F0E94FA0E8C2F9C
:102E50000E949F0F99CF0E94A90F8D2F0E940A0FE9
:102E600093CF833F60F4803F99F0813F11F122239B
:102E7000D1F13323A9F18C2F0E94F41285CF833F27
:102E8000F9F02111F6CF31113BC0892F8F71E6CFB8
:102E9000222369F0353008F077CF292F2F7181E098
:102EA00090E002C0880F991F2A95E2F7C2CF353013
:102EB000F2CF892F8F71222389F20E94FA0E64CFFC
:102EC000222359F09F7121E030E0F90102C0EE0F9A
:102ED000FF1F9A95E2F7CF019CCF80E090E099CF59
:102EE000892F8F71EACF332381F2893349F4FFEFC1
:102EF00027EE43E0F15020404040E1F700C00000E1
:102F00008C2F0E945E1340CF80912002803178F494
:102F100080911F02882359F0E091E1012091E001A6
:102F200030911B0240911A0257E02E1301C0089500
:102F30006E2F70E05E9FF0011124DF01AE51BE4F95
:102F400014968C911497882361F111968C911197A6
:102F5000831327C08C91841324C015968C911597E8
:102F600081111FC012968D919C91A0911C02B0916D
:102F70001D028A1B9B0B883C910598F480912002CE
:102F80008F70806180932002E851FE4F80818F70A6
:102F9000806180838AE192E00E9429150E94810F5E
:102FA0000895FB013196E770C0CFADE0B0E0EBEDE6
:102FB000F7E10C9448248C0186E0F801DE011896B4
:102FC00001900D928A95E1F7F801E080F580A280EA
:102FD000B380C4808AE1882E82E0982E70901E0211
:102FE000711020C0CC20D9F0FF2009F419C1C8010C
:102FF0000E944012882309F413C187E0F801D4012C
:1030000001900D928A95E1F7F1E0CF1206C0809110
:103010001A0290911B020E9431120E948417FF2411
:10302000F39451C0D0901F0280911C0290911D0218
:103030009501281B390BDD2009F4BAC0283C310565
:1030400008F090C0CC2059F390911B02C180809170
:103050002002803108F058C0C91214C090911A02A1
:103060009E1110C0F1104AC08F70806180932002C1
:103070008AE192E00E94291580912002F80186835E
:10308000F12C21C0F1103AC040E06C2D8E2D0E9431
:10309000941440E06C2D8E2D0E949414F82E811112
:1030A000EFCF888599850E943112292F22952F70A4
:1030B000903470F49F702230A0F09923B1F0F801A1
:1030C0009681903190F48F2D2D96EDE00C94642430
:1030D0002A5F2F70223068F0C8010E942915FD2C4C
:1030E000F2CF992311F0882371F3805E883058F372
:1030F000F3CF803F40F3815F8230F9CF809120028F
:10310000816080932002BCCFC91207C090911A023F
:103110009E1103C0FF2009F46CC0C8010E94401238
:10312000882309F47DC0FF2009F47AC08091200231
:10313000803278F020911A0230911B023A83298361
:10314000BC82AB827D821E828F83CE0101960E945B
:10315000291587E0F801AAE1B2E001900D928A9565
:10316000E1F75BCF80912002803150F48AE192E058
:103170000E94291587E0F40111928A95E9F780CF22
:10318000CC2009F44CCF20911B0291812913C5CF8B
:1031900090911A029E11C1CFF110BFCF8683C80152
:1031A0000E94291587E0F40111928A95E9F737CF3B
:1031B000283C3105F8F6CC2009F431CFFF2081F10D
:1031C00090911B028181981321C080911A028E1167
:1031D0001DC08091200280FD10C0803170F0868378
:1031E000807F803F39F08681982F907F905F8F702D
:1031F000892B8683C8010E94291587E0F801AAE17E
:10320000B2E001900D928A95E1F709CFC8010E94C2
:10321000401281119ECF8091200281608093200214
:10322000C8010E942915FBCEABE1B0E0EAE1F9E16B
:103230000C9452244E8B5F8B688F798F8A8F9B8F73
:1032400091111092DF011D8A86E0FE017696DE0163
:103250001F9601900D928A95E1F78B89882329F0BA
:1032600061E0CE010F960E94111287E0FE013F96A9
:10327000DE01189601900D928A95E1F7CE0108962D
:103280000E94D51781112BC087E0FE013896DE0120
:10329000119601900D928A95E1F72091E0014091FD
:1032A000E1018C858823D9F030E0C901019687704F
:1032B000992750E084179507E9F097E0929FD00195
:1032C000939FB00D1124AE51BE4FFE013196019077
:1032D0000D929A95E1F78093E0010E94810F17E02B
:1032E0008091E1019091E001891314C06B96E3E0B5
:1032F0000C946E24109221020E94B3141092E001EB
:103300001092E10187E0EAE1F2E0DF011D928A9587
:10331000E9F7E5CF189FC00111248E519E4F0E94FE
:10332000D517882319F38091E10190E00196877009
:1033300099278093E101D4CF1F93CF93DF93782F08
:10334000162FEA01888184FF1CC0898128E8822722
:103350008983FE013296272F392FCF01710FD901B2
:103360002F5F3F4F4C914193472F421B1416BCF3E4
:10337000612F0E94470D1C5F1883DF91CF911F9131
:1033800008958AE58883E5CFCF93DF938091570432
:10339000835087FD75C090915504CCE0D0E0C91BE7
:1033A000D109C65ADB4F90915404903108F466C09D
:1033B0009D3209F00CC1883009F060C093EC909305
:1033C00030049AE5909361001092F5009881907610
:1033D000992309F4ADC0903251F49981993099F153
:1033E00040F4923029F1933059F1913079F080E036
:1033F00017C09A3009F498C09B30C9F78C819D8121
:10340000892BA9F78A8180936200F1CF2C813D81BD
:10341000232B69F728EF30E03093F7002093F60074
:103420009F81911129C09E81981730F5892F24C062
:1034300081EF90E09093F7008093F60081E0F0CF69
:1034400082E690E0F7CF8A819B818115924069F4F2
:103450008C819D81892B49F481E08093F4008E81D9
:103460009F819093F3008093F200888187FFADC025
:103470008E8190E89093F50080936000109257043D
:103480008091610084FF41C0809160008F3F09F40A
:103490003CC0C82F893008F0C8E0982F9C1B90933F
:1034A00060009091300428E892279093300488239C
:1034B000F1F08091F6009091F7002091F50026FF41
:1034C000A2C0FC0121E334E04C2F480F5491D901F4
:1034D0005C932F5F3F4F31964E13F8CF01962FEF3D
:1034E0002C0F820F911D9093F7008093F6006C2FA4
:1034F00081E394E00E94470D84E08C0FC83019F0FE
:103500009FEF909360008093610084E190B39C7082
:10351000911107C081508111F9CF10925804109277
:103520005304DF91CF9108958B818093F1005FCF99
:103530002A8110923904898181110BC010923A04BA
:1035400029E334E092E03093F7002093F600892FCE
:1035500067CF853029F42093580429E334E0F3CF72
:103560008630C9F48B81813051F4CE010E942C1435
:1035700090E49093F5008F3F09F477CF51CF8230DC
:10358000A1F3833091F3813281F3823271F380E4CD
:103590008093F5002CCF883089F0893019F420937E
:1035A0007001DBCF8A3071F08B30B9F68BE48093F9
:1035B0003C048093710480934804CFCF20E731E02E
:1035C00091E0C1CF29E334E0FBCF8FEF52CF809160
:1035D000F50087FF53CF8091F2009091F300892B83
:1035E00071F08091F400813051F488818093000162
:1035F0001092F3001092F200109260003FCF8EE123
:10360000809361003BCFDC012C2F41E354E0FA01B1
:103610003D9130834F5F5F4F21502111F8CF5ECF36
:103620001F93CF93DF93EC018091620015E081112D
:1036300022C080913B0484FF07C04BE354E068E064
:10364000CE010E949C190BC00E94C4198FE19EE418
:103650000197F1F700C0000011501111EACF88E086
:10366000FE01A8EFB0E001900D928A95E1F7DF919D
:10367000CF911F91089580913B0484FDDECF0E947D
:10368000C4198FE19EE40197F1F700C000001150CA
:103690001111F1CFE4CF1F93CF93DF93D82F192FC0
:1036A000C5E08091700484FF0BC040E754E063E004
:1036B0008D2F912F0E949C19DF91CF911F9108951A
:1036C0000E94C4198FE19EE40197F1F700C0000049
:1036D000C150C111E6CFF0CFCF93DF93682F809117
:1036E0002E0490912F046A30B9F420913D018E523E
:1036F0009240622F70E00E942F24281B822F66E0E8
:103700000E947A24C82FC15018F4DF91CF910895F8
:1037100080E20E946C1BF7CF6D30F9F49C012E52B1
:10372000324040913D01642F70E0C9010E942F2476
:10373000481B842FA901480F511D4115524018F014
:1037400080E020E030E0820F932F911D825D9D4F3D
:1037500090932F0480932E04D8CF26E0FC01ABEE8B
:10376000B0E001900D922A95E1F7603E08F458C050
:1037700026E0FC0111922A95E9F7C0912E04D09120
:103780002F0446E050E0BE018BEE90E00E94A3249F
:103790009E012E523240892B41F1C90145E0969598
:1037A00087954A95E1F741E050E0BA0102C0660F03
:1037B000771F8A95E2F7CB0160912C0270912D0260
:1037C000862B972BB9016B5F7F4FE5E07695679568
:1037D000EA95E1F702C0440F551F6A95E2F7842B82
:1037E000952B90932D0280932C022A5F3F4F40919E
:1037F0003D01642F70E0C9010E942F24481B463010
:1038000010F4240F311D211572E0370710F020E06D
:1038100030E0225D3D4F30932F0420932E0475CF6E
:10382000F6E06F9FB0011124685A7F4F46E050E0E8
:103830000E949A24A2CF2F923F925F926F927F9222
:103840008F929F92AF92BF92CF92DF92EF92FF92B0
:103850000F931F93CF93DF9300D000D000D0CDB74C
:10386000DEB780913801882309F455C08EE292E0DA
:1038700090932F0480932E0460E070E0CB010E94AF
:10388000071469837A838B839C8361367A4E810522
:10389000910508F458C00E94EA1480912C0290917E
:1038A0002D02892BA9F080913801882389F080911D
:1038B000370181110DC00E94FC1420912C0230911F
:1038C0002D0280E061E070E02115310509F099C01A
:1038D0008091DE018823F9F00E94991369837A832D
:1038E0008B839C838091390190913A01A0913B0197
:1038F000B0913C0129813A814B815C81281B390BB5
:103900004A0B5B0BDA01C9018F3F9F4FAF4FBF4797
:1039100010F40E94EA140F900F900F900F900F90E8
:103920000F90DF91CF911F910F91FF90EF90DF905B
:10393000CF90BF90AF909F908F907F906F905F904F
:103940003F902F9008958091220290912302A091A0
:103950002402B091250289839A83AB83BC83809132
:103960002602811126C069817A818B819C810E9407
:10397000071469837A838B839C836739710581057A
:10398000910510F00E94B6130E949B1281FF85CF13
:10399000EFE7F6E08491FA83E983882309F47DCF89
:1039A0000E946C1BE981FA813196FA83E983849144
:1039B000F4CF69817A818B819C810E940714462F04
:1039C000572FBC0180912B02882331F08091270270
:1039D00025E030E0811102C021E030E0E6E9E29F1D
:1039E000C001E39F900D1124092E000CAA0BBB0B04
:1039F00084179507A607B70738F610922702C2CF9B
:103A00008F5F082F10E01B01082E02C0220C331C10
:103A10000A94E2F7A10142235323452B89F39091A5
:103A20003E0190FD44C0980136952795369527951F
:103A3000922F8295880F80763FE1380F8093650042
:103A400020936800309366009093690024E630E08C
:103A500047E050E063E670E088E70E944823892B46
:103A600009F036CFA80125E0440F551F2A95E1F74C
:103A700080913E0180FD23C0425D5D4F04E610E071
:103A800020E230E060E488E70E94DE23892B09F021
:103A90001FCF91012095309580912C0290912D029D
:103AA0002823392330932D0220932C0211CF880F25
:103AB000880F880F37E0380F20E093E0BFCFE9E0B0
:103AC000F1E080E2DF011D928A95E9F7E9E7F0E095
:103AD000FE83ED8305E710E08DE7C82E80E0D82E49
:103AE00097E0592E77247394AD81BE818D91BE836A
:103AF000AD83F80121918F01240F352F311D225DF7
:103B00003D4FE82FF0E0E75FFE4F80E090E0652C4E
:103B1000681A872C082E01C0880C0A94EAF77901EC
:103B2000A12CD701BD907D01B820662D6A19677060
:103B300070E0BB2D062E01C0BB0F0A94EAF79B2E46
:103B40007195619571096770772701C0B6946A9580
:103B5000EAF79B286081962A9082A39468E0A612D7
:103B6000E0CF019631968830910589F68D819E814E
:103B7000C816D90609F0B8CF04E610E020E230E01C
:103B800049E051E07FCF2FB7F894809101019091E7
:103B90000201A0910301B09104012FBF0895A6E096
:103BA000B0E0E5EDFDE10C9451240E94C31D8C01B1
:103BB00080917301909174018017910779F01982B7
:103BC0001A820E94C31DBC0149815A8180E090E0A5
:103BD0000E94141910937401009373012696E4E077
:103BE0000C946D249C014FB7F89480910101909141
:103BF0000201A0910301B09104014FBF821B930BFE
:103C0000089580915604882369F0109256040E940A
:103C1000C31D90932A018093290110923F01809146
:103C20003F01089580913F018111F9CF80912901D1
:103C300090912A010E94F21D069788F381E08093FB
:103C40003F01EDCFACE0B0E0E8E2FEE10C944724A8
:103C5000FE0131968CE0DF011D928A95E9F79DE720
:103C6000A92E90E0B92E8F0123E8E22E20E0F22E5B
:103C70003F01CC24C394D12CF50181915F018F3F8A
:103C800009F447C0F894E82FE295EF70F0E021A91D
:103C90008F70A60102C0440F551F8A95E2F7CA0132
:103CA000922F982B91AB92A98095892382AB78941F
:103CB00000C0E3E8F0E021E030E0812C912C41915C
:103CC0004F3F09F44AC0A42FA295AF70A05DB0E0A9
:103CD0008C9190E04F7002C0959587954A95E2F7D8
:103CE000817081113AC0C901882A992A220F331F95
:103CF00050E0E339F50719F7F501319780818F3FDF
:103D000011F00E94681280EA8A95F1F7D8018D922D
:103D10009C920E5F1F4FEA14FB0409F0ADCF4CE0FC
:103D200050E0B3018BE291E00E94A324892BC1F003
:103D30008CE0F301ABE2B1E001900D928A95E1F7DE
:103D400081E08093EA000E94C31D9093E900809374
:103D5000E8002C96EEE00C94632480E090E0C4CF61
:103D60008091EA008823A9F38091E8009091E9000E
:103D70000E94F21D059768F34CE050E06BE271E0A1
:103D800080E491E00E94A324892B49F08CE0EBE2CF
:103D9000F1E0A0E4B1E001900D928A95E1F7109274
:103DA000EA00D7CFCDB7DEB760970FB6F894DEBF85
:103DB0000FBECDBF84B7806884BF84B7806884BFDE
:103DC0000E94C31D90932A018093290186E692E107
:103DD0009093DF008093DE0085B7886085BF8BB746
:103DE00080688BBF8BE480933C0480937104809344
:103DF00048048AE580933B048093700480934704D1
:103E00008B9A8FEFA895AFE9BFE01197F1F700C04B
:103E1000000081508111F6CF8B9878948BE083BF9E
:103E20008AEF8CBF82E089BFE6E6F1E088E0DF013F
:103E30001D928A95E9F781E08093650160E080E05A
:103E40000E94811261E080E00E948112EFE8F1E0BF
:103E50003197F1F700C0000010E08091650118175C
:103E600008F479C10DE710E0E3E8EE2EE0E0FE2E65
:103E7000D8018D918D018F3F11F00E946812E016DC
:103E8000F106B1F703E810E0F80181918F018F3F4F
:103E900011F00E946812F0E003391F07A9F78CE0C7
:103EA000E0E4F1E0DF01282F1D922A95E9F7EBE22B
:103EB000F1E0DF011D928A95E9F780E090E00E9431
:103EC000B824863E9E4F09F466C066EE7EEF80E021
:103ED00090E00E94EB2460E082E090E00E94CE241B
:103EE00081E090E09093DB018093DA0161E083E070
:103EF00090E00E94CE2460E074E184E090E00E94B3
:103F0000EB2460E086E090E00E94CE2460E087E051
:103F100090E00E94CE2440E050E0BA0188E090E0BA
:103F20000E94DF2460E084E290E00E94CE2460E002
:103F300087E190E00E94CE2460E08CE090E00E9457
:103F4000CE2460E08DE090E00E94CE2419821A8297
:103F50001B821C821D821E821F82188648E050E050
:103F600068E170E0CE0101960E94BE2440E050E07E
:103F7000BA0180E290E00E94DF2440E050E0BA0104
:103F80008FE090E00E94DF2440E050E0BA0183E13E
:103F900090E00E94DF2482E090E00E94B0248093B1
:103FA0004C0184E090E00E94B824909372018093C9
:103FB000710183E090E00E94B02490E00E94F00E36
:103FC00082E080933E0180E880933D010E940C23B3
:103FD0006BE070E08BE996E00E94DD14882309F421
:103FE00043C080913E0165E070E081FDC6C086E976
:103FF00096E00E94DD148823B9F16DE070E084E85A
:1040000096E00E94DD14882379F10E949913698754
:104010007A878B879C87DC01CB01805A9541AF4F13
:10402000BF4F8093390190933A01A0933B01B09325
:104030003C01EEE2F2E080E092E0DF019C011D92A3
:1040400021503040E1F7F0932F04E0932E048FEFDE
:104050009FEF90932D0280932C0281E08093380192
:104060008093DE01109237018AE690E0909376010A
:10407000809375013FEF40E782E03150404080403F
:10408000E1F700C0000079E5272E71E0372E0E948D
:10409000011E811186C00E94C4198091700188237D
:1040A000B1F380913B0484FFF2CF0E94221E5DE4B5
:1040B000A52E51E0B52E60E4862E61E0962ED40147
:1040C000F501219131918D919D912E163F0609F4B4
:1040D0008DC028173907A9F3712CD401ED90FD90FC
:1040E0004D01F501C190D1905F01CE14DF0459F16B
:1040F000CE24DF24612C01E010E0C601802391234F
:10410000892BB9F069827A820E94C31D9C838B83BC
:10411000F1E0FD8391E0970120233123232B09F463
:1041200090E09E8349815A816B817C818D810E94C0
:1041300014196394000F111F20E16212DECFF50104
:104140003297F182E082739436E07312C6CF0E94F8
:10415000991301E052C060E0812F0E949212082F53
:1041600061E0812F0E949212E12FF0E0EC59FE4FA6
:10417000880F802B80831F5F70CE81E996E039CF56
:1041800080913F0181110E94EA140E94221EE0E406
:10419000F1E081919191892B79F491E0EC34F90768
:1041A000C1F70E94011E8111EBCF109221020E94E3
:1041B000B3140E949B126FCFF89491B3939A892FF6
:1041C0008C6081BB82B32CE0822782BBAFE7B8E36F
:1041D000E1E0A150B040E040E1F700C0000082B350
:1041E000822782BB91BB93987894DBCF281739073D
:1041F00009F072CF0E94CF1D00E0C090A701D090BF
:10420000A8010D2C000CEE08FF0810917400A12EDF
:10421000B12CE7EAF1E081E090E03296A816B90609
:104220000CF0F9C080915F0190916001A091610153
:10423000B0916201BC01CD010E9407142B013C0129
:104240009601A701F7FE04C020E030E040E050E016
:10425000A0E6BAEE0E94202569877A878B879C8723
:1042600088EC8A9D90018B9D300D1124032E000C4B
:10427000440B550B240D351D461D571DA5E0B0E020
:104280000E9420256D877E878F87988B69857A8528
:104290008B859C852D853E854F8558890E943325C9
:1042A00049015A01213F31054105510510F030EF18
:1042B000832EA9EC4A165104610471040CF180911B
:1042C000D90190E0019669E170E00E948624809314
:1042D000D901880F991FFC01E955FE4F1182108208
:1042E000183108F017E11F5F109374000E949913B2
:1042F00060935F017093600180936101909362010C
:10430000B2E0CB16D104E104F10484F4CA94CD28C0
:10431000CE28CF2841F01092D9011092740010924B
:10432000A8011092A701812C912C540180915B016E
:1043300090915C01A0915D01B0915E01BC01CD0145
:104340000E9407146B017C0195E6C916D104E104B3
:10435000F10484F00E94991360935B0170935C01F7
:1043600080935D0190935E018091260280935A01B3
:104370008092590110915A01A0915901A11BBB0BC8
:10438000A70196010E942B2569877A878B879C87D6
:1043900024E630E040E050E00E940125120F109327
:1043A000260280916E01882351F08091680110925D
:1043B0006E01809369018091660180936701E12C11
:1043C00010916801F090690180916501E81678F11B
:1043D00090E08091690120916801281709F493C049
:1043E000E82FF0E0E659FE4F90818F5F8370809355
:1043F0006901809167018F5F8093670197FD75C0A8
:104400008AEA0E94F412AFE3BCE91197F1F700C009
:1044100000008AEA74C040815181052E000C660BB1
:10442000770BC40ED51EE61EF71E0196F6CE61E090
:104430008E2D0E949212D82E60E08E2D0E94921234
:10444000DD0C8D292E2D30E0D901AC59BE4FEC91F9
:104450009E2F93708917A9F1EE0FEE0FE82BEC93C6
:10446000EF70F0E0ED56FF4F2D593E4F8081D9019E
:104470009C91890F8C93823034F1412F50E0EF2DC5
:10448000E150FF0BBF01637077274617570781F094
:104490004A595E4F9E2D9F77DA0114969C931F5FB9
:1044A000137010936801909166019F5F909366016D
:1044B000082E000C990B62E070E00E948624F9013E
:1044C0008083E3947DCF8F3F9CF7412F50E0EF2D09
:1044D000E150FF0BBF01637077274617570741F381
:1044E0004A595E4F9E2D9068D7CF89EA0E94F412F8
:1044F0008FE39CE90197F1F700C0000089EA0E9470
:104500005E1391E066CF992339F00E9499130E94BF
:104510001B1C0E94FC1404C00E941B1C0111F9CF3B
:104520000E949B1290916F01891709F4B0CD80937E
:104530006F010E949913ABCD78941F921FB61F9202
:1045400011248F939F93AF93BF938091010190911A
:104550000201A0910301B09104010196A11DB11DBA
:104560008093010190930201A0930301B093040191
:10457000BF91AF919F918F911F901FBE1F90189573
:10458000FF920F931F93CF93DF93182FEB0116BE6B
:1045900084EA86BF0E94C31D082FF92E06B607FEC7
:1045A00022C081B1887F883021F081B1887F80313D
:1045B00081F513B984E886BF0E94C31D182F092F07
:1045C00006B607FE1EC021B1287F80E090E02831AA
:1045D00099F081E090E0203411F480E090E0919532
:1045E0008195910909C0802F9F2D0E94F21DC81747
:1045F000D907A0F68EEF9FEFCDB7DEB7E5E00C94BC
:104600006C24812F902F0E94F21DC817D907C0F685
:10461000F1CF8FEF9FEFF0CF11B88CE080B985B369
:10462000836085BB86B7846086BF86B7816086BF9E
:1046300086B7806486BF08950F931F93CF93DF934F
:10464000EB0183B984E886BF0E94C31D182F092F90
:1046500006B607FE10C021B1287F81E090E0283225
:1046600011F480E090E0919581959109DF91CF91CF
:104670001F910F910895CF3FDC0751F3812F902FA9
:104680000E94F21DC817D90718F78EEF9FEFEECFE3
:10469000A0E0B0E0EEE4F3E20C944824782E5B0155
:1046A0006A0189010E94C31D4C010431110558F1B2
:1046B0000F3F100761F1C80164E170E00E942F24F0
:1046C000F62EE72E6F2D7E2D872D0E94C022EC0145
:1046D00097FF09C00F3F1007A9F3C4010E94F21D04
:1046E0000817190778F77501CA0CDB1CEC14FD04D8
:1046F00011F0D7FF0FC084E986BFCE01CDB7DEB77A
:10470000EDE00C946424FF24F394E12CDBCF85E0EE
:10471000F82EFBCFB801F70181917F010E941C2385
:10472000EC01E4CFA0E0B0E0E8E9F3E20C94482427
:10473000782E5B016A0189010E94C31D4C0104317E
:10474000110558F10F3F100761F1C80164E170E0F5
:104750000E942F24F62EE72E6F2D7E2D872D0E948E
:10476000C022EC0197FF09C00F3F1007A9F3C40155
:104770000E94F21D0817190778F77501CA0CDB1C97
:10478000EC14FD0411F0D7FF0FC084E986BFCE0101
:10479000CDB7DEB7EDE00C946424FF24F394E12C54
:1047A000DBCF85E0F82EFBCFF7018491B8010E94A2
:1047B0001C23EC01FFEFEF1AFF0AE2CFA0E0B0E00C
:1047C000E4EEF3E20C944724682E962E5A01690118
:1047D00078010E94C31D782E892E0431110528F11D
:1047E0000F3F100729F1C80164E170E00E942F24F7
:1047F000162F072F612F702F862D0E94C022EC01EB
:1048000097FF18C0FFEFEF16FF06A1F3872D982D35
:104810000E94F21DE816F90668F784E986BFCE010A
:10482000CDB7DEB7EEE00C94632411E000E0E2CFF8
:1048300015E0FCCFB701892D0E941C23EC018501F6
:10484000CA0CDB1C0C151D0541F3D7FDE6CFB701E3
:10485000F80181918F010E941C23EC01F3CFAA1B68
:10486000BB1B51E107C0AA1FBB1FA617B70710F05B
:10487000A61BB70B881F991F5A95A9F7809590958D
:10488000BC01CD0108952F923F924F925F926F929B
:104890007F928F929F92AF92BF92CF92DF92EF92D0
:1048A000FF920F931F93CF93DF93CDB7DEB7CA1B51
:1048B000DB0B0FB6F894DEBF0FBECDBF09942A887C
:1048C000398848885F846E847D848C849B84AA8424
:1048D000B984C884DF80EE80FD800C811B81AA81B1
:1048E000B981CE0FD11D0FB6F894DEBF0FBECDBF7C
:1048F000ED010895991B79E004C0991F961708F0FF
:10490000961B881F7A95C9F78095089597FB072E07
:1049100016F4009407D077FD09D00E942F2407FCDD
:1049200005D03EF4909581959F4F089570956195BF
:104930007F4F0895FB01DC0102C005900D924150AC
:104940005040D8F70895FB01DC0104C08D9101901F
:10495000801921F441505040C8F7881B990B0895E5
:10496000E199FECF9FBB8EBBE09A99278DB3089546
:10497000A8E1B0E042E050E00C94F324DC01A40F85
:10498000B51F4150504048F0CB01840F951F2E9128
:104990000E94CF2441505040D0F70895262FE1992E
:1049A000FECF9FBB8EBBE09A01970DB2021631F08D
:1049B0002DBB0FB6F894E29AE19A0FBE08950396C4
:1049C000272F0E94CF240E94CE24252F0E94CF247F
:1049D000242F0C94CF240196272F0E94CF240C94CF
:1049E000CE24DC01CB01FC01E199FECF06C0FFBB68
:1049F000EEBBE09A31960DB20D9241505040B8F79F
:104A00000895052E97FB1EF400940E94182557FD6B
:104A100007D00E94332507FC03D04EF40C941825D0
:104A200050954095309521953F4F4F4F5F4F0895DA
:104A300090958095709561957F4F8F4F9F4F08950A
:104A40000E945525A59F900DB49F900DA49F800DA9
:104A5000911D11240895B7FF0C9420250E94202554
:104A6000821B930B0895A1E21A2EAA1BBB1BFD010A
:104A70000DC0AA1FBB1FEE1FFF1FA217B307E4073D
:104A8000F50720F0A21BB30BE40BF50B661F771F95
:104A9000881F991F1A9469F7609570958095909575
:104AA0009B01AC01BD01CF010895A29FB001B39F4E
:104AB000C001A39F700D811D1124911DB29F700D27
:0C4AC000811D1124911D0895F894FFCF72
:104ACC00FF5A010021007F2200032714101B2A1417
:104ADC002B144B1B01000810181810080032333728
:104AEC003436359060916192629363946495969795
:104AFC0007060500FF0100010000FFFF0000010098
:104B0C0001FF00E200E900EA00B500B600B700CDF5
:104B1C00008301CC008A019201940121022302241A
:104B2C00022502260227022A02B300B4006F00708D
:0E4B3C00009F01CB019F02A00203040296001D
:00000001FF
