:100000000C94130F0C94300F0C944B0F0C94300F76
:100010000C94300F0C94300F0C94300F0C94300F64
:100020000C94300F0C94300F0C947F300C94300FE4
:100030000C94300F0C94300F0C94300F0C94300F44
:100040000C94300F0C94300F0C94300F0C94300F34
:100050000C94300F00AF00AE07087F0807003E5B2E
:100060004F5B3E003E6B4F6B3E001C3E7C3E1C00D7
:10007000183C7E3C18001C577D571C001C5E7F5EA0
:100080001C0000183C180000FFE7C3E7FF00001841
:1000900024180000FFE7DBE7FF0030483A060E00B7
:1000A000262979292600407F05050700407F052580
:1000B0003F005A3CE73C5A007F3E1C1C0800081CCD
:1000C0001C3E7F0014227F2214005F5F005F5F00F0
:1000D00006097F017F00006689956A0060606060A4
:1000E000600094A2FFA2940008047E04080010207F
:1000F0007E20100008082A1C0800081C2A08080096
:100100001E10101010000C1E0C1E0C0030383E3853
:100110003000060E3E0E0600000000000000000049
:100120005F000000000700070000147F147F140028
:10013000242A7F2A120023130864620036495620BD
:100140005000000807030000001C2241000000418D
:10015000221C00002A1C7F1C2A0008083E080800F8
:100160000080703000000808080808000000606087
:1001700000002010080402003E5149453E000042A4
:100180007F4000007249494946002141494D3300F2
:100190001814127F10002745454539003C4A49494B
:1001A00031004121110907003649494936004649C5
:1001B00049291E0000001400000000403400000027
:1001C00000081422410014141414140000412214D5
:1001D00008000201590906003E415D594E007C129B
:1001E00011127C007F49494936003E4141412200BD
:1001F0007F4141413E007F49494941007F0909094A
:1002000001003E41415173007F0808087F00004112
:100210007F4100002040413F01007F08142241003F
:100220007F40404040007F021C027F007F04081096
:100230007F003E4141413E007F09090906003E41E1
:1002400051215E007F09192946002649494932009B
:1002500003017F0103003F4040403F001F2040203A
:100260001F003F4038403F0063140814630003043C
:10027000780403006159494D4300007F414141002A
:10028000020408102000004141417F0004020102E5
:100290000400404040404000000307080000205494
:1002A000547840007F2844443800384444442800AF
:1002B000384444287F0038545454180000087E09FC
:1002C000020018A4A49C78007F080404780000446D
:1002D0007D4000002040403D00007F102844000089
:1002E00000417F4000007C04780478007C0804040E
:1002F0007800384444443800FC182424180018249A
:100300002418FC007C0804040800485454542400B9
:1003100004043F4424003C4040207C001C2040203A
:100320001C003C4030403C004428102844004C90C5
:1003300090907C004464544C440000083641000016
:1003400000007700000000413608000002010204AE
:1003500002003C2623263C00000000000000404034
:1003600040F0F8F8FF38FFF8F83FF8F8FF38FFF8EA
:10037000F8F040404000000000000080C0C0C08095
:100380000000C0C08000000080C0C000C0C00000ED
:1003900080C0C00000000000C0C0C0C0C000C0C01D
:1003A000000000000000000000000000000000004D
:1003B000000000000000000000000000000000003D
:1003C000000000000000000000000000000000002D
:1003D00000000000000000C0F0F8FC3E1E06010016
:1003E00000007F4141417F007F4141417F0000800B
:1003F000C0E07E5B4F5BFEC00000C000DCD7DEDEED
:10040000DED7DC00C000000000000000000000009B
:10041000000000000000000000000000000049494A
:1004200049FFFFFFFFE0DFBFBF00BFBFDFE0FFFF0F
:10043000FFFF49494900000000001F3F6060E0BF26
:100440001F007F7F071E381E077F7F007F7F0E1FE4
:100450003B716000000000007F7F0C0C0C007E7E72
:10046000007F7E0303007F7E03037E7E03037F7E87
:10047000000F3E703C063C703E0F00327B49493F06
:100480007E007F7E0303001E3F69696F2600000027
:1004900000000000000000030F1F3F3C7870600068
:1004A00000007F4141417F007F4141417F00307B1F
:1004B0007F7830202030787F3B0003000F7F0F0FC4
:1004C0000F7F0F000300000000000000000000008C
:1004D000000000000000000000000000000001011A
:1004E00001070F0F7F0F7F0F0F7E0F0F7F0F7F0F03
:1004F0000F070101010000000000000000000001E2
:1005000001000000000000000000000000000000EA
:1005100000000000000000000000000000000000DB
:1005200000000000000000000000000000000000CB
:1005300000000000000000000000000000000000BB
:1005400000000000000000000000000000000000AB
:10055000000000000000000000000000000000009B
:10056000000000000000000000000000000000008B
:10057000000000000000000000000000000000007B
:10058000000000000000000000000000384650405D
:10059000403030404050463800000000000000006D
:1005A000000000000000000000000000000000004B
:1005B0000000000000000000000000007E0F00D4DA
:1005C000FFFFFFC7000000780000000000000000EF
:1005D0002A2B28000000000000000000000000009E
:1005E00000000029000000002C1E342021222434A9
:1005F0002627252E362D3738271E1F20212223247B
:1006000025263333362E37381F0405060708090A16
:100610000B0C0D0E0F101112131415161718191AB2
:100620001B1C1D2F3130232D350405060708090A30
:100630000B0C0D0E0F101112131415161718191A92
:100640001B1C1D2F3130354C05010980A10185038C
:1006500019012AB700150126B70095017510810010
:10066000C0050C0901A101850419012AA002150188
:1006700026A002950175108100C00660FF0961A1E6
:10068000010962150026FF009520750881020963A3
:10069000150026FF00952075089102C00501090686
:1006A000A101050719E029E7150025019508750145
:1006B00081029501750881030507190029FF1500BE
:1006C00026FF009506750881000508190129051502
:1006D000002501950575019102950175039103C0EF
:1006E0001C037600690061006C003A006600360069
:1006F0003400630032006200330063000000100326
:100700004C0043004B0037003500720032000000FF
:100710000C034C00790073006F00310000000403EB
:10072000090409025B00030100A0FA0904000001AA
:100730000301010009210101000122440007058194
:10074000030800010904010002030000000921015F
:1007500001000122220007058403080001070504A7
:10076000030800010904020001030000000921013F
:100770000100012232000705830308000112011065
:10078000010000000856786361020001020301299C
:10079000003A003B003C003D003E003F004000416D
:1007A00000420043004400450000004C00A8003512
:1007B000001E001F0020002100220023002400252D
:1007C00000260027002D002E0000002A00AE002B7E
:1007D0000014001A000800150017001C0018000C77
:1007E00000120013002F00300000003100AC00396F
:1007F0000004001600070009000A000B000D000E9F
:10080000000F0033003400000000002800AB00E1BE
:100810000000001D001B000600190005001100105B
:1008200000360037003800E500000052002152E099
:1008300000E300E2000000000000002C00000000C7
:10084000000000E600E4005000000051004F0001ED
:100850000001000100010001000100010001000190
:1008600000010001000100010000000100407401CE
:100870000001000100010001000100010001000170
:10088000000100010001000100000001004600011C
:1008900000010001000100007C01000100010001D5
:1008A00000010001000100010000000100490039C1
:1008B0000001000100010001000100010001000130
:1008C0000001000100010000000000010001000122
:1008D0000000000100010001000100010001000111
:1008E0000001000100010001000000010001000101
:1008F00000010001000000000000000100000000F5
:10090000000000E6000100010000000100010043BA
:100910006170730000DA0281FFD9F1DB20A4A62EFA
:10092000AF00A0C0D30000A1C8D30000AED580A8FE
:100930001F408D1420000100010051020E1B241BDA
:100940000000020002004D020E1B241B00000300E9
:10095000010052020E1B241B00000400020037029B
:100960000E1B241B53140500010053020E1B241BF5
:1009700000000600020039020E1B241B00000700C5
:1009800002004F020E1B241B00000800010054024D
:100990000E1B241B00001200020055020E1B241B1C
:1009A00000001300020057020E1B241B000014005D
:1009B000010059020E1B241B00001500000000005E
:1009C0005C147A190000FD377A585A000004E6D604
:1009D000B4460200210116000000742FE5A3E006D2
:1009E000D3021F5D003D8889C65436C3174FE4E229
:1009F0000379756402EFD43664627C8E4B197BC533
:100A000041E6BBD288B09F46B51DDCDC9A684AF34C
:100A1000EADA608C1D55FED4AF20FF7F5759025291
:100A200085A3FD8BD72271A7A068287E7D18BDAB5A
:100A30008B80931248F52E277008C95C65B06165FC
:100A4000DD8597A71C3C81E6F62BC86281F78910EB
:100A50006E611DFDDE10CBE90266F4E689A3EEFCB3
:100A60001E1C6C8C5B1B4032305F08FADE716E2BF3
:100A7000F80414092E78C740064623900118132560
:100A8000C4118469BA17B6DD227A6EA1CDA498AEDE
:100A900049AC1D47944FE5D871EFB44733675B838A
:100AA00071EB5C47D20009D1CFC3B34E48CD5FEFA5
:100AB00021050CBA43F599F3E55D88E0AA4259C3D4
:100AC0003D2BECAD7AE4174B10FA1AD86EA76A6D7D
:100AD0005DA0FBEC31689780E484044B26959E670B
:100AE0002B6D09DFC03514861DC584647D6D25C955
:100AF0007E13A3C35C93A14D86BF9DC507F81E500E
:100B000060BBCE6C20838C22A0B4B37AD51DB21703
:100B10008D2636E02D60B07B6D345C39B9722BEBDD
:100B200000B48FAC0B79ABA4A9356F78507ECBFDA8
:100B30002400788F03B8B74714D56042AD0F6D0914
:100B4000FA063D8C07B1816B084C21D30C641A1C4A
:100B5000D95A4A37D91AE3DDBA6A46498AAD9206AC
:100B6000F896D70E61D1E63D83CC1B7E881B0289A7
:100B7000B3E29BDC9ED77B44354B2FC52B7225A55A
:100B800044204CBA594BFCD006F430DB4D359E7AEC
:100B90005E47F77902E066D4FDA280DDCAFE6446B6
:100BA000619CF1FEA9DF84A7E3E034354C20E439F1
:100BB0004DF27A18689E316C5CCAD554CBC83CBBE8
:100BC000AF3FFE451B3F7F1DBC1F271DDBC1825F62
:100BD000659EC705D01C716B9E445C2FC58480E860
:100BE000A1828ABDC3B245123F3A3199316BE1EB24
:100BF000C13D21B3311A4B5E80B7BC2C9E3D594B91
:100C0000AC7A0D0000005D5BE520F855964A0001C6
:100C1000BB04D40D0000362C36E7B1C467FB0200DC
:100C200000000004595A000000000000000000000D
:100C300000000000000000000000000000000000B4
:100C40000000000000000000000000000000008024
:100C5000C0C060703070F8FE033E78C8880C0C0489
:100C60000603011C3C66C687030301010000808067
:100C7000C0C0616332361E1C0C0000000000000082
:100C80000080818386CC7C061EF0000000000000FE
:100C90000000000000000000000000000000000054
:100CA0000000000000000000000000000000000044
:100CB0000000000000000000000000000000000034
:100CC0000000000000000080C060785C56D793B13F
:100CD000A160404060F0FF1F0C0C3FE7C3C0C04064
:100CE000C0C0C0C0C0C0C183838686828383818127
:100CF0008080C0C0C0C0C0C0C0C0C0C0C0C0C080B4
:100D0000808F1B113018181C0CFF7E0000000000A3
:100D100000000000000000000000000000000000D3
:100D200000000000000000000000000000000000C3
:100D300000000000000000008080C0C0E060703053
:100D400018180C0C0606030100000000000000004B
:100D50000101010101FF038080F81C877773D6C46D
:100D6000083879696CC4C4C4848484848484C4C409
:100D7000C4C4C46C78301111191808084DADA78788
:100D8000478F8A1818F0F0F83F1F06000000000097
:100D90000000000000000000000000000000000053
:100DA0000000000000000000000000000000000043
:100DB0000080E070380C0603030100000000000012
:100DC00000000000000080E07818181018F8E0001B
:100DD000000000FCFFCFC141CA99FDFF0E1703E1DF
:100DE000A040408080C0E0C08101010101010000FD
:100DF000000000000000004040E000000000000093
:100E000003BAFDEFC703010000000000000000006E
:100E100000000000000000000000000000000000D2
:100E200000000000000000000000000000000000C2
:100E300000000000000000000000000000000000B2
:100E40000000000000000000000000000000008022
:100E5000C0C060703070F8FE033E78C8880C0C0487
:100E60000603011C3C66C687030301010000808065
:100E7000C0C0616332361E1C0C0000000000000080
:100E80000080818386CC7C061EF0000000000000FC
:100E90000000000000000000000000000000000052
:100EA0000000000000000000000000000000000042
:100EB0000000000000000000000000000000000032
:100EC0000000000000000080C060785C56D793B13D
:100ED000A160404060F0FF1F0C0C3FE7C3C0C04062
:100EE000C0C0C0C0C0C0C183838686828383818125
:100EF0008080C0C0C0C0C0C0C0C0C0C0C0C0C080B2
:100F0000808F1B113018181C0CFF7E0000000000A1
:100F100000000000000000000000000000000000D1
:100F200000000000000000000000000000000000C1
:100F300000000000000000008080C0C0E060703051
:100F400018180C0C06060301000000000000000049
:100F50000101010101FFC3E070F8EC6777F3F6D4FB
:100F6000083879696CC4C4C4848484848484C4C407
:100F7000C4C4C46C78301111191808086DAD2F87DE
:100F8000478F1A1870E0F8F83F1F060000000000B5
:100F90000000000000000000000000000000000051
:100FA0000000000000000000000000000000000041
:100FB0000080E070380C0603030100000000000010
:100FC00000000000000080E07818181018F8E00019
:100FD000000000FCFFC781F2C11CFEFE2C3F37E081
:100FE0006040008080C0E0C00101010101010000FB
:100FF00000000000000000000000000000000000F1
:101000000302BDFEE7030100000000000000000035
:1010100000000000000000000000000000000000D0
:1010200000000000000000000000000000000000C0
:1010300000000000000000000000000000000000B0
:1010400000000000000000000000000000000000A0
:1010500080C0C0E06070703838181C9C9CDC7C3C00
:101060000CECFCFC30D0F8780E077FFCC683010145
:101070000000000000060F0F1B191930306060E0FF
:10108000C0C08081030383C3E7763C3870E0C0C0F2
:10109000F07E07FE000000000000000000000000DD
:1010A0000000000000000000000000000000000040
:1010B0000000000000000000000000000000000030
:1010C0000000000000000080C0E060787C7E5E5779
:1010D000D3B1A1A0A0A0B098CC4E673311180E07D1
:1010E000FFFFFF000003070E0C1C181C0F878080F9
:1010F000808080808080C0404040404040404040F0
:10110000406161634347434340C0C04040C1FFFD6D
:101110007C06070300000000000000000000000043
:1011200000000000000000000000000000000000BF
:1011300000000000000000008080C0C0E06070304F
:1011400038181C0C0E060703010000000000000008
:1011500000000000C0FF03000000000000000000CD
:10116000010FFFF7E7C0E0703018181A5FDFDF1CCF
:1011700018181819595818183C3C34363636363673
:10118000766666C6C6C6C666ECBC3C5C1C060D1818
:10119000F0E080808080000000000000000000007F
:1011A000000000000000000000000000000000003F
:1011B00080C0E030180C06030101000000000000B0
:1011C00000000000000080E0781818181C0E06FED1
:1011D000F00000FEFF000000000000000000000022
:1011E000000003F3FFDF00E0F0787C7C773F1B1FFB
:1011F0001E1E0C000181C0C0800000000000000025
:10120000010505050101010000000000000080400B
:1012100020010000070FF87000000000000000002F
:1012200000000000000000000000000000000000BE
:1012300000000000000000000000000000000000AE
:10124000000000000000000000000000000000009E
:1012500080C0C0E06070703838181C9C9CDC7C3CFE
:101260000CECFCFC30D0F8780E077FFCC683010143
:101270000000000000060F0F1B191930306060E0FD
:10128000C0C08081030383C3E7763C3870E0C0C0F0
:10129000F07E07FE000000000000000000000000DB
:1012A000000000000000000000000000000000003E
:1012B000000000000000000000000000000000002E
:1012C0000000000000000080C0E060787C7E5E5777
:1012D000D3B1A1A0A0A0B098CC4E673311180E07CF
:1012E000FFFFFF000003070E0C1C181C0F878080F7
:1012F000808080808080C0404040404040404040EE
:10130000406161634347434340C0C04040C1FFFD6B
:101310007C06070300000000000000000000000041
:1013200000000000000000000000000000000000BD
:1013300000000000000000008080C0C0E06070304D
:1013400038181C0C0E060703010000000000000006
:1013500000000000C0FF03000000000000000000CB
:10136000010F3FD747E0C0F03018189ADF3F1F1C2D
:1013700018185859191818181C3CB4B6B636767691
:101380007666C6C6C6C6C6666C3C3C3C1C060D7876
:10139000F0C080000000000000000000000000001D
:1013A000000000000000000000000000000000003D
:1013B00080C0E030180C06030101000000000000AE
:1013C00000000000000080E0781818181C0E06FECF
:1013D000F00000FEFF000000000000000000000020
:1013E000000000E1F3FF0F070706CDF8F8DDEFF787
:1013F0001B9B0B0B05010080808000020000000099
:101400000001010501010000000000000000008053
:1014100000010107067CF800000000000000000049
:1014200000000000000000000000000000000000BC
:1014300000000000000000000000000000000000AC
:10144000000000000000000000000000000000009C
:1014500080C0C0E06070703838181C9C9CDC7C3CFC
:101460000CECFCFC30D0F8780E077FFCC683010141
:101470000000000000060F0F1B191930306060E0FB
:10148000C0C08081030383C3E7763C3870E0C0C0EE
:10149000F07E07FE000000000000000000000000D9
:1014A000000000000000000000000000000000003C
:1014B000000000000000000000000000000000002C
:1014C0000000000000000080C0E060787C7E5E5775
:1014D000D3B1A1A0A0A0B098CC4E673311180E07CD
:1014E000FFFFFF000003070E0C1C181C0F878080F5
:1014F000808080808080C0404040404040404040EC
:10150000406161634347434340C0C04040C1FFFD69
:101510007C0607030000000000000000000000003F
:1015200000000000000000000000000000000000BB
:1015300000000000000000008080C0C0E06070304B
:1015400038181C0C0E060703010000000000000004
:1015500000000000C0FF03000000000000000000C9
:10156000010FFF17C7A0C0703018189ADF3F1F1C6B
:1015700018181819591818181C3C343636363636CF
:101580007666C6C6C6C6C6666C3C3C3C1C060D7874
:10159000F0C080800000000000000000000000009B
:1015A000000000000000000000000000000000003B
:1015B00080C0E030180C06030101000000000000AC
:1015C00000000000000080E0781818181C0E06FECD
:1015D000F00000FEFF00000000000000000000001E
:1015E000000000E1FEFF2F0604E8F8B9CCFEF7FB8F
:1015F000FF1F0E01010080C0C0800000000000003D
:1016000000000505050100000000000000000000CA
:1016100000010103073CF000000000000000000092
:1016200000000000000000000000000000000000BA
:1016300000000000000000000000000000000000AA
:10164000000000000000000000000000000000009A
:1016500080C0C0E06070703838181C1C9CDCFC7CBA
:10166000BCFCFCFC1C0CFFFFF88C06020303010011
:10167000040E0E1A1A32337360C0C0808001030357
:10168000020686C6F43C0903030E1CF8E080E03C29
:101690000FFC00000000000000000000000000003F
:1016A000000000000000000000000000000000003A
:1016B000000000000000000000000000000000002A
:1016C0000000000000000080C0E060787C7E5E5773
:1016D000D3B1A1A0A0A0B098CC4E663331180E7F34
:1016E000FFE0870F0C1C1C1C0F8F838080C0C0C0C4
:1016F000C0C0C0C0C0C0C0C0C0C0C1C1C3C3C6C6D6
:10170000C6C7C3C1C0C0C0C0C0C0800FD9F0F80CEC
:1017100007010000000000000000000000000000C1
:1017200000000000000000000000000000000000B9
:1017300000000000000000008080C0C0E060703049
:1017400038181C0C0E060703010000000000000002
:1017500000000000C0FF03000000000000000000C7
:1017600001C1C3E3F73F1F1F4F070F0F8F8D0C0CF5
:10177000181818193938FC6C646464C6C6868686E5
:10178000C6C4C4E47C38391908080D0F0F1FF3E0F4
:101790000000000000000000000000000000000049
:1017A0000000000000000000000000000000000039
:1017B00080C0E030180C06030101000000000000AA
:1017C00000000000000080E0781818181C0E06FECB
:1017D000F00000FEFF00000000000000000000001C
:1017E0000003E7FFFFDDF6FF1DCEF7FBCF8780008C
:1017F0000080C080800000000000000000010101A6
:101800000100000000808000008000000000010353
:1018100006FCF800000000000000000000000000CE
:1018200000000000000000000000000000000000B8
:1018300000000000000000000000000000000000A8
:101840000000000000000000000000000000008018
:1018500080C0E0607030383818181898F8F8381CD4
:10186000063F7CE6C381010000000002060E1A322A
:101870007262C3C3800000000000030786C6E666EC
:10188000361E00000103070E9CF8F0603804FC00CF
:101890000000000000000000000000000000000048
:1018A0000000000000000000000000000000000038
:1018B0000000000000000000000000000000000028
:1018C0000000000000000080C0E0707C5E5F57D325
:1018D000B1A1A0A0A0A0F0787C3E1F0F073BFF8E17
:1018E000FC989888878780C0C0C0C0C0C0C0C0C0F6
:1018F000C0C0C0C14143464E4C4C4E47C3C1C0C09E
:10190000C0C0C0C0C0C0C0CFDF9910D8FC3E03002B
:1019100000000000000000000000000000000000C7
:1019200000000000000000000000000000000000B7
:1019300000000000000000008080C0C0C060603077
:101940003038181C0C0E07030100000000000000D6
:1019500000000000E0FF070000000000000120CBB5
:10196000CBCF06C4C487878C880808191918387823
:10197000646464E4C4C4C6C6C6C6C4C4E46464641F
:1019800038381909080404020F07FDFF1F0F000073
:101990000000000000000000000000000000000047
:1019A0000000000000000000000000000000000037
:1019B00000C0E070180C06030301010000000000E5
:1019C00000000000000080E0781818103C00FCE0E7
:1019D000000000FCFF0100000000000000000041CA
:1019E000F31FEE0EF7FBFFF7630000C0008000005E
:1019F00000000000000000000000000000000000E7
:101A000000808080800000000000070FF8F80000D0
:101A100000000000000000000000000000000000C6
:101A200000000000000000000000000000000000B6
:101A300000000000000000000000000000000000A6
:101A40000000000000000000000000000000008016
:101A500080C0C0607030381818FCFC3E031F7CF852
:101A6000888C0603010000000C1E3666C683030046
:101A700000000000000083C3E266343C0C04000058
:101A8000000001010386CEFCF81C0CFC00000000E5
:101A90000000000000000000000000000000000046
:101AA0000000000000000000000000000000000036
:101AB0000000000000000000000000000000000026
:101AC0000000000000000080E070785C5E5753D397
:101AD000B1A0A0A0A0F0F87C3F0B0F86FC8C8C0C72
:101AE000CF87808080C0C0C0C0C0C0C0C0C1C3C7D5
:101AF000C6CCCCC6C7C3C1C0C0C0C0C0C0C0C0C0B7
:101B0000C0C0C0C0C79F19101078FCCF00000000F3
:101B100000000000000000000000000000000000C5
:101B200000000000000000000000000000000000B5
:101B30000000000000000000808080C0C0606030B5
:101B400038181C0C0E060301000000000000000005
:101B500000010101F0FF03000000000101F7DFA513
:101B6000E7C7C7C70D0808187979E4C4C4C4C68696
:101B700086868686C6C6C4E464687838380909094A
:101B80000C04070707071DF8F0791F0F000000007D
:101B90000000000000000000000000000000000045
:101BA0000000000000000000000000000000000035
:101BB0000080E070180C0603010100000000000026
:101BC00000000000000080E03818181018F8F0003D
:101BD000000000FEFF010000000000F8EE73E2C309
:101BE000FDFE477320C0C00000000080000000011F
:101BF000010101010080808080000080C040000061
:101C00000000000000040FFFF100000000000000D1
:101C100000000000000000000000000000000000C4
:101C200000000000000000000000000000000000B4
:101C300000000000000000000000000000000000A4
:101C40000000000000000000000000000000008014
:101C5000C0C060703070F8FE033E78C8880C0C0479
:101C60000603011C3C66C687030301010000808057
:101C7000C0C0616332361E1C0C0000000000000072
:101C80000080818386CC7C061EF0000000000000EE
:101C90000000000000000000000000000000000044
:101CA0000000000000000000000000000000000034
:101CB0000000000000000000000000000000000024
:101CC0000000000000000080C060785C56D793B12F
:101CD000A160404060F0FF1F0C0C3FE7C3C0C04054
:101CE000C0C0C0C0C0C0C183838686828383818117
:101CF0008080C0C0C0C0C0C0C0C0C0C0C0C0C080A4
:101D0000808F1B113018181C0CFF7E000000000093
:101D100000000000000000000000000000000000C3
:101D200000000000000000000000000000000000B3
:101D300000000000000000008080C0C0E060703043
:101D400018180C0C0606030100000000000000003B
:101D500001010101F9FF0380C060BC6F27B3E66495
:101D6000083879696CC4C4C4848484848484C4C4F9
:101D7000C4C4C46C78301111191808080D0D070778
:101D8000070F1A38E0E0E0F87F1F060000000000AF
:101D90000000000000000000000000000000000043
:101DA0000000000000000000000000000000000033
:101DB0000080E070380C0603030100000000000002
:101DC00000000000000080E07818181018F8E0000B
:101DD000000000FE9F64FEFBFCF7DCBEF7E3402042
:101DE00060C060004080808001010101010180C06D
:101DF0004040000000804040400000000000000023
:101E0000009CFEFE07010100000000000000000031
:101E100000000000000000000000000000000000C2
:101E200000000000000011241FBECFE5D8E0DEBF97
:101E3000CDBF24E0AEEEB0E001C01D92AA3FB207D4
:101E4000E1F710E0A0E6B0E0EEE0F7E602C00590B2
:101E50000D92AE3EB107D9F70E940F290C9464335E
:101E60000C940000A82FB92F80E090E041E050EAE8
:101E7000609530E009C02D9182279795879510F0E5
:101E800084279527305EC8F36F5FA8F30895EADFD3
:101E90008D939D930895CF93CFB7CF93DF93C39541
:101EA000839BE9F7839B10C0839B0EC0839B0CC070
:101EB000839B0AC0839B08C0839B06C0C091D40447
:101EC000C395C093D4048EC06F93C091D304DD2713
:101ED000C852DB4F2F9365E5839B03C02F916F9111
:101EE000E1CF0F931F934F9320E040E15F9300B346
:101EF0000C7003FB27F93F9350E03BE039C01C70A6
:101F000040642F77012F5F5F1EC0406810B31C70C4
:101F10002F7752501FC0406400B32F770C70D1F15F
:101F20005F5F00C023C0406210B32F771C7091F137
:101F30005F5F00C025C00C701027515012F45D5F28
:101F40000000115027952C3F10B3C8F61C700127D4
:101F5000015027952C3FC8F64227499300B30C70D7
:101F600010274F73115027952C3FA8F6469546959C
:101F700010B31C7079F00127015027952C3F98F67B
:101F80006B5A60F3315000B3B0F600C010E81ABFCE
:101F900000271CC03B503195C31BD04010E81ABF2E
:101FA0000881033C21F10B3411F12091D1041981F6
:101FB000110F1213EDCF4A81441F093679F10D320A
:101FC00011F0013E29F74F7009F0042F0093D70458
:101FD0003F915F914F911F910F912F916F91CAB7D0
:101FE000C7FD5DCFDF91CF91CFBFCF9118952091E5
:101FF000D704222369F31091D504112309F049C0B5
:1020000034300AF448C03093D5042093D2041091A0
:10201000D3043BE0311B3093D3043DC00091D50481
:102020000130BCF50AE54F7049F43091610034FD90
:1020300033C000936100CEEAD4E032C0433059F09F
:10204000443091F03091B90434FD26C00093B904B6
:10205000CAEBD4E025C03091EE0434FD1DC00093DE
:10206000EE04CFEED4E01CC03091C50434FD14C0A2
:102070000093C504C6ECD4E013C0052710E000C0EF
:10208000000002BB1AC0052710E0221F1DC010E08F
:1020900021C04AE502C032ED432FC4E1D0E032E076
:1020A00011B31C60939A02B311BB5CE020E865E3B6
:1020B00020FF052702BB279517951C3FF0F6669574
:1020C000B8F7B1F720FF052702BB279517951C3FEE
:1020D000D0F62795179517FF052700001C3F02BB78
:1020E000B0F629913A9519F7037F1091D604110F94
:1020F000C651D04002BB11F01093D10410E81ABFB2
:10210000086011B3137F402F437F54E05A95F1F7D5
:1021100002BB11BB42BB5CCF0F931F93CF93DF93E6
:10212000DC01FB01EA018C9168810E945D329C9385
:10213000892F90E0222361F028812150330BA901DF
:10214000481B590BCA0157FF03C09195819591090E
:10215000982F8827990FE80FF91F2091AC04309130
:10216000AD04C9018C5A92402C5A30402130324083
:10217000D8F020E032E0281B390B4091AA025091A0
:10218000AB02280F391F01E010E08217930778F0A7
:102190005093AB024093AA028C918F5F8C93DF9196
:1021A000CF911F910F91089520E032E0E6CF649126
:1021B000EC01C455DD4F7881671779F06883BC0165
:1021C000C5E076956795CA95E1F7E80102C0CC0FA6
:1021D000DD1F6A95E2F74C2B5D2B01963196D5CF2A
:1021E0009C01FB019A9581159F4120F5D901AA27F1
:1021F000B270832F8170B90166277470A9014427DA
:10220000587034FF0DC08295807FAB2B09F080623F
:10221000672B09F08064452B09F0806809950895C3
:10222000AB2B09F08260672B09F08460452BB1F37A
:102230008860F4CF80E0F2CF282F92959F7096307F
:1022400091F060F4925F9F70923030F481E0203F13
:1022500079F030F4283E30F080E008959A5FF3CFB3
:10226000243FD1F7089581E0283EE0F3213FF9CFE4
:10227000089580933502089580933602089521E0F1
:1022800030E001C0220F8A95EAF780913602822B56
:102290000E943C11089521E030E0A90102C0440FE2
:1022A000551F8A95E2F7CA018095909136028923DD
:1022B0000E943C110895963088F5803178F540E110
:1022C000949F90011124280F311D877041E001C0B7
:1022D000440F8A95EAF783E0369527958A95E1F7CA
:1022E000F901EE0FFF1FE20FF31FEE52FE4F80E0E9
:1022F00090E070E05191DF0111979B01082E02C020
:10230000369527950A94E2F72170219525272423F5
:1023100025272C9301968330910561F70895963017
:1023200078F5803168F540E1949F90011124280FE1
:10233000311D982F977083E0369527958A95E1F7A0
:10234000F901EE0FFF1FE20FF31FEE52FE4F40E0C8
:1023500050E080E0219130E0092E02C036952795AB
:102360000A94E2F721703327042E01C0220F0A9449
:10237000EAF7822B4F5F5F4F4330510559F70895BD
:1023800080E008959091360221E030E0F90101C02B
:10239000EE0F8A95EAF7D90102C0AA0FBB1F6A9512
:1023A000E2F7EA2B01C0220F4A95EAF7892F8E2324
:1023B000E81305C0892F822B0E943C1108952095B7
:1023C000822F8923F9CF80915E0290915D0298134C
:1023D00001C008958F5F8770FACF80913402909189
:1023E0005C02892B8093F000E091D001F091D10143
:1023F000309731F00280F381E02D80EF90E0099575
:102400000895882339F090913402892B8093340207
:102410000E94ED110895882339F090915C02892B78
:1024200080935C020E94ED110895882341F080950D
:1024300090915C02892380935C020E94ED110895C3
:10244000982F9095809134028923809334020895C7
:10245000882321F00E9420120E94ED110895803EF1
:102460009105D1F1C8F48133910509F47FC048F496
:102470008932910509F46FC08A32910509F47DC053
:10248000089589339105E1F082389105C9F08533CB
:10249000910509F45BC00895843E9105D1F148F49B
:1024A000823E910531F1833E910541F181EE90E04C
:1024B0000895863E9105C1F1873E9105E1F10895A9
:1024C0002091C8012370211165C02091C90123FF0B
:1024D00014C089E290E008952091C80120FD43C016
:1024E0003091C90130FF09C024FF4EC080E090E068
:1024F00008952091C80122FDF7CF08952091C801C9
:1025000022FD45C03091C90130FD44C024FFF5CF04
:10251000EDCF2091C90121FFF0CF8091C80184FD4A
:10252000E5CF87EE90E008952091C80123FFE5CF25
:1025300024FDDCCFF6CF2091C80123FD2EC03091C1
:10254000C90131FFE3CF84EE90E008952091C801E6
:1025500025FFD3CFBECF2091C80125FD21C02091FA
:10256000C90123FFCACF89E390E008952091C801F3
:1025700026FFC3CF8AE290E008952091C80126FF8C
:10258000BCCF81E390E0089583EE90E0089582EE61
:1025900090E0089580EE90E0089586EE90E0089532
:1025A00085E390E0AACF9091C80192FF10C041E06E
:1025B000282F2471243009F040E031E0282F2871C1
:1025C000283009F030E0431711F02CE0822793FF08
:1025D00010C041E0282F2471243109F040E031E09F
:1025E000282F2871283109F030E0431711F02CE032
:1025F00082273091C90130FF10C051E0282F21718E
:10260000213009F050E041E0282F2871283009F0EE
:1026100040E0541711F029E0822731FF10C041E05B
:10262000282F2171213109F040E031E0282F287155
:10263000283109F030E0431711F029E0822794FD9A
:10264000877E08951F93CF93DF930E942F12EC0192
:10265000811520E5920708F048C0811540E49407F1
:1026600008F0C2C0803E9105E0F0811550E2950768
:1026700098F18D2F8F710E94D312182FCE019927B8
:102680000E942F12212F30E0322F222722273F7164
:10269000282B392BE901D062CE01DF91CF911F9118
:1026A00008958D3C910508F08BC0883A910560F43F
:1026B000853A910508F076C08130910569F3049759
:1026C000813A910548F305C0885A91094B9708F45F
:1026D0006CC0C0E0D0E0E0CF8F3F910511F008F072
:1026E00071C0805E91090797EDCFC03682E5D807AB
:1026F00038F5C03422E5D20708F093C0C03242E575
:10270000D40738F0CF71D0E0DC2FCC27C16FD06A6E
:10271000C3CF8C2FC11552E5D50708F06EC08F715D
:102720000E94D312282F30E084FD9CC085E0D6950E
:10273000C7958A95E1F7CF703C2BE901D069ACCF02
:10274000C03C82E5D80708F5C03A22E5D20708F078
:102750007EC0CE0180569245809708F0BACF8C2F6C
:1027600086958695877050E2859FC0011124C370BD
:1027700021E030E0A90102C0440F551FCA95E2F7DD
:10278000EA01C82BD92BDA6887CFCE01805C92454D
:10279000809708F09ECFDC2FCC27CC27DF71C06F4D
:1027A000D06A7ACFA497D06477CFC85AD0E0CC0F44
:1027B000DD1FCD54DF4F0990D881C02DD4646CCF7C
:1027C000D0656ACF8D2F0E94D312182FCE01992782
:1027D0000E942F12212F30E0322F2227E901CC272F
:1027E000DF71C82BD92B58CF99270E942F12CC27E5
:1027F000DF70C82BD92BD06A4FCF8695869540E2E3
:10280000849FC0011124C37021E030E0A90102C0FF
:10281000440F551FCA95E2F7EA01C82BD92BDD6892
:102820003BCF8C2F86958695877050E2859FC0019F
:102830001124C37021E030E0A90102C0440F551FEC
:10284000CA95E2F7EA01C82BD92BDC6825CF8C2F7B
:102850008F710E94D312C82FD0E0DC2FCC27CC2759
:10286000DF711ACF94E0220F331F9A95E1F75ECF04
:1028700080E00895F894E82FE295EF70F0E041A928
:102880008F7021E030E0B90102C0660F771F8A9592
:10289000E2F7CB01962F9095942391AB92A9892BC7
:1028A00082AB78940895809137029091380290938A
:1028B0007600809375000895A0E0B0E0E2E6F4E1D0
:1028C0000C942C32FB018FEF9FEF4430510508F43C
:1028D00065C04091C80141FB882780F990E0880FCE
:1028E000991F42FBAA24A0F8B12CAA0CBB1CAA0C6D
:1028F000BB1C8A299B2940FB882480F8912C8829BD
:10290000992943FBCC24C0F8D12C53E0CC0CDD1C1E
:102910005A95E1F78C299D2944FBEE24E0F8F12C2F
:1029200064E0EE0CFF1C6A95E1F78E299F2945FBB8
:10293000002700F910E075E0000F111F7A95E1F70C
:10294000802B912B46FB222720F9C22F20E0D22F8B
:10295000A6E0CC0FDD1FAA95E1F78C2B9D2B47FB42
:10296000442740F920E8429FA0011124842B952B95
:102970002091C901322F3170932B26952170B22FEF
:10298000BB0FA0E08A2B9B2B092E000CAA0BBB0BC4
:1029900080839183A283B38380E090E0CDB7DEB7DC
:1029A000ECE00C94483221B381E090E0AC0102C02D
:1029B000440F551F6A95E2F7842F8095822381BBCF
:1029C00082B3842B82BB089580B390E002C09595BA
:1029D00087956A95E2F781700895AC0123E096959A
:1029E00087952A95E1F78E719927FC01E75EFE4FE6
:1029F0000190F081E02D4F70552721E030E002C0BA
:102A0000220F331F4A95E2F7662341F0E22BF32BA6
:102A1000875E9E4FDC01ED93FC93089520953095E1
:102A2000E223F323F5CF80917700877F80937700AF
:102A300090915C029D7F90935C0284FF08C08F7E22
:102A40008093770080913402826080933402809179
:102A5000770085FF08C08F7D8093770080913402D6
:102A60008062809334020E94ED110895E091D001BC
:102A7000F091D101309729F00190F081E02D099576
:102A8000089580E00895A3E0B0E0E9E4F5E10C9456
:102A900036329C018091170190911801821793079B
:102AA000A1F03093180120931701E091D001F0912B
:102AB000D101309751F083E089833B832A830084DE
:102AC000F185E02DCE01019609952396E2E00C9464
:102AD0005232A3E0B0E0EFE6F5E10C9436329C010F
:102AE000809115019091160182179307A1F0309300
:102AF000160120931501E091D001F091D10130979A
:102B000051F084E089833B832A830084F185E02DA2
:102B1000CE01019609952396E2E00C9452320F9370
:102B20001F93CF93C82F882339F18CEF8C0F813AF4
:102B3000B0F502EF10E0F8018191C81709F120E02B
:102B4000E83FF207C9F7EFEF80E0D8019D918D01D2
:102B5000C91781F0EF3F19F4911101C0E82F8F5F81
:102B6000863099F7EF3F31F00E2E000CFF0BE0514D
:102B7000FF4FC2830E94ED11CF911F910F910895D5
:102B8000E2EFF0E08191C81303C0DF0111971C92BE
:102B900030E0E83FF307B1F70E94ED11D4CF80E2B7
:102BA0008C0F883068F4C77081E090E001C0880F16
:102BB000CA95EAF7C0913402C82BC0933402DACF29
:102BC0008BE58C0F833038F42C2F2452330BC90142
:102BD0000E944315D1CFC85ACB3170F6EC2FF0E0EC
:102BE000EE0FFF1FED54FF4F808191810E94691508
:102BF000C3CFCF93DF93EC01805E9109089720F05B
:102C00006BE072E1209711F461E072E1CE010E9465
:102C1000F0108C2F0E948F15DF91CF91089588239B
:102C200089F19CEF980F913A78F4E2EFF0E09191FE
:102C3000891303C0DF0111971C9290E0E83FF90768
:102C4000B1F70E94ED11089590E2980F983050F47A
:102C5000877091E001C0990F8A95EAF7892F0E9449
:102C60002012EFCF9BE5980F933028F480E090E09E
:102C70000E9443150895885A8B3120F480E090E03B
:102C80000E9469150895CF93DF93EC010E940F16FF
:102C9000CE01805E9109089720F065E172E12097EE
:102CA00011F468E272E1CE010E94F010DF91CF9141
:102CB0000895A4E0B0E0EFE5F6E10C9436328FB76A
:102CC000F89420911101309112014091130150911B
:102CD000140129833A834B835C838FBF69817A8196
:102CE0008B819C812496E2E00C9452320E9459160A
:102CF0006093A0027093A1028093A2029093A3021A
:102D00008091A9029091A402983200F58823A1F045
:102D100021E04AEE50E066E276E188EA92E00E9425
:102D20008C1081E09091A802943009F480E08093A7
:102D3000A9021092A602089520E049EE50E066E252
:102D400070E187EA92E00E948C10F3CF20E08111BD
:102D500015C04AEE50E066E276E188EA92E00E9411
:102D60008C1081E09091A802943009F080E080936B
:102D7000A9028093A5021092A70208954BEE50E09D
:102D800066E27CE086EA92E00E948C10F4CFA4E038
:102D9000B0E0EDECF6E10C943432462F572FBC0135
:102DA0002FB7F8948091110190911201A091130115
:102DB000B09114012FBF8C019D01041B150B260B34
:102DC000370BC901B8012496E4E00C94503288E135
:102DD00098E00FB6F894A89581BD0FBE91BDA89557
:102DE000F894D8E0CEE528E3299320E0299314BE97
:102DF000FFCF089580911001089508950895FC0172
:102E00008381833081F130F48130E9F0823019F12F
:102E100080E00895813209F44EC08232C9F72481DE
:102E200035812130310509F45FC02230310509F4C4
:102E300062C0232B69F78CE996E090930701809399
:102E4000060184E408958DE797E09093070180934D
:102E5000060182E1089582E297E090930701809352
:102E600006018BE5089582818230E9F050F48111EA
:102E700012C08EE197E0909307018093060184E0F1
:102E80000895833029F680EE96E0909307018093B1
:102E900006018CE1089580E197E09093070180930B
:102EA00006018CE008958EEF96E0909307018093E1
:102EB000060180E10895848195818130910571F04A
:102EC0008230910571F0892B09F0A2CF84E397E05D
:102ED000909307018093060189E008958DE497E0BF
:102EE000F7CF8DE697E0F4CF2AE736E0309307017D
:102EF00020930601089588E496E09093070180935B
:102F0000060182E30895662329F020915C02226085
:102F100020935C029C0130522115304308F499271C
:102F20000E94F91508959C012115310509F40895B1
:102F30008FE99FE00197F1F700C0000021503109AF
:102F4000F3CFCF92DF92FF920F931F93CF93DF9334
:102F5000EC018B01F42E8091770082FF66C0C09057
:102F60002B02D0902C02CC16DD0619F0209709F028
:102F70005CC0809177008B7F80937700C1E081FDFA
:102F800010C08091290290912A029801281B390BC8
:102F9000C1E080917500909176002817390708F4F8
:102FA000C0E0C17080917700C0FB81F98093770009
:102FB0006C2FC6010E94ED148091340281FF08C07D
:102FC0008091770080618093770082E00E942012D8
:102FD0008091340285FF08C08091770080628093E1
:102FE000770080E20E9420126C2FC6010E94831796
:102FF000FF2031F08091520285FF02C086FF29C078
:1030000080915502909156020E94931780912B0255
:1030100090912C029C0130522115304308F49927DD
:103020000E9443160E94131510C0CE0190528115C4
:103030009043B8F4CE0199270E94431680912B0249
:1030400090912C02C817D90769F310932A020093B4
:103050002902DF91CF911F910F91FF90DF90CF90C8
:103060000895CE01E9CF0F931F93CF93DF9307E32A
:1030700012E0C1EBD1E0CE010E94B032F8018193A1
:103080008F012196C53DF1E0DF07A9F7C0E4D9E043
:10309000FE0185919491009711F0FC0109952C9601
:1030A000F9E0C03DDF07A1F7DF91CF911F910F91AC
:1030B00008950F931F93CF93DF93823030F56630DE
:1030C00020F5403110F520E2629FE001112450E02C
:1030D000440F551FC40FD51F30EC839FC00DD11D69
:1030E0001124CE0189960E94B032082F10E0102FD3
:1030F0000027CE018A960E94B0329801282BC90180
:10310000DF91CF911F910F91089580E090E0F8CF6B
:10311000462F672F2091CC013091CD01232B91F4C4
:10312000703F39F4403F71F48091CA019091CB0116
:103130000895763038F4403128F4823018F40E9433
:103140005918089580E090E00895A0E0B0E0EBEA1F
:10315000F8E10C9431327C01009136028091350205
:10316000082BC1E0D0E010E0C8010C2E02C09595FC
:1031700087950A94E2F780FD09C02197A8F7D12C22
:103180008D2DCDB7DEB7E7E00C944D32DC2EB701C4
:103190008C2F0E9488180E942213019771F3F0CFA0
:1031A000CF93DF93D82FC92F0E94A5186D2F7C2FA6
:1031B0000E9488180E942213DF91CF910895FC018C
:1031C0008481882339F0808191810E94D0180E94E7
:1031D0001C11089580E008951F93CF93DF93182F5B
:1031E000D92F662399F0442389F00E94A518C82F8F
:1031F000682F812F9D2F0E945B11612F7D2F8C2FB7
:103200000E948818DF91CF911F9108950E948F111D
:10321000C82FF3CFFC01462F6581808191810E94E8
:10322000EC18089585E290E00E94B032803789F46E
:1032300086E290E00E94B032843059F487E290E058
:103240000E94B03291E0863909F090E0892F8170B8
:10325000089580E0FCCF1F93CF93DF93182FEB01ED
:103260000E948F15209739F4812F0E940F16DF914D
:10327000CF911F9108958FE99FE00197F1F700C06A
:1032800000002197EFCF6091570270915802893367
:1032900021F060915502709156020E942B190895F9
:1032A00010923402E2EFF0E086E0DF011D928A9591
:1032B000E9F780E090E00E94431580E090E00E94F2
:1032C000691510925C020E94ED1108950E94501938
:1032D0002FEF84E39CE0215080409040E1F700C054
:1032E000000088E198E00FB6F894A89581BD0FBE64
:1032F00091BDFFCFCF92DF92EF92FF92FB018FEF54
:103300009FEF4430510508F481C0C080D180E28035
:10331000F3800E945019D701C601B695A7959795DD
:1033200087958170282F220FD701C60181709927B8
:10333000AA27BB27822BB701A60132E076956795B5
:10334000579547953A95D1F74170440F440F842B18
:10335000B701A601E3E07695679557954795EA95FD
:10336000D1F74170440F440F440F842BB701A601DD
:10337000F4E07695679557954795FA95D1F74170A2
:103380004295407F842BB701A601A5E0769567950D
:1033900057954795AA95D1F741704295440F407EC5
:1033A000842BB701A601B6E07695679557954795AA
:1033B000BA95D1F741704295440F440F407C842B5D
:1033C000B701A60197E076956795579547959A9529
:1033D000D1F7479544274795842B8093C801D1FAAC
:1033E000882780F9880F9D2D9170892B9091C901B4
:1033F0009C7F892B8093C9016091C8017091C9019C
:1034000084E090E00E94EB3280E090E0FF90EF904B
:10341000DF90CF9008950F931F93CF93DF9307E32F
:1034200012E0C1EBD1E0CE010E94B032F80161910F
:103430008F01861719F0CE010E94CE322196C53D2C
:10344000F1E0DF0781F7DF91CF911F910F91089590
:10345000E7E3F2E0128E138E8FEA90E0918380838F
:1034600085E0848F28E833E13383228322E330E050
:10347000378B268B28EC30E0318F208F158E178EFE
:10348000168E20E530E031A320A382A30E940B1A00
:103490000E9450191092C9011092C80180E0846006
:1034A0008093C90160E074E084E090E00E94EB3218
:1034B0000E94331808951F93CF93DF93C62F122FC6
:1034C000632F8230D8F4C630C8F44031B8F490E2AB
:1034D000C99FE001112450E0440F551FC40FD51FB0
:1034E00090EC899FC00DD11D1124CE0189960E94B8
:1034F000CE32612FCE018A960E94CE32DF91CF91DB
:103500001F9108958F929F92BF92CF92DF92EF9278
:10351000FF920F931F93CF93DF938090A40190901D
:10352000A50181E090E09093A5018093A401C12CB6
:10353000D12CB12C760110E012C0FE0125913491FE
:10354000402F612F8B2D0E945B1A22960F5F003156
:10355000A1F780E1E80EF11C1F5F163039F0E7019A
:10356000CC0FDD1FC157D84F00E0E7CF80E6C80E73
:10357000D11CB11003C0BB24B394DCCF0E94281A25
:103580009092A5018092A401DF91CF911F910F919C
:10359000FF90EF90DF90CF90BF909F908F90089515
:1035A000CF93DF93C5EDD1E060E0CE010E94CE3233
:1035B0002196C11584E0D807B9F7DF91CF9108951E
:1035C000882381F060E785E290E00E94CE3264E0DB
:1035D00086E290E00E94CE3266E987E290E00E94A7
:1035E000CE3208956FEF85E290E00E94CE326FEF09
:1035F00086E290E00E94CE326FEFEFCF80E00E9433
:10360000E01A60E088E290E00E94CE320E94821AC6
:103610000E94D01A81E00E94E01A08959C01CB011B
:10362000BA01F9013296459154916417750748F033
:10363000F9013496659174910E94A03280E090E087
:1036400008958FEF9FEF08959C01DA010296FC0127
:1036500045915491FC0185919491A817B90758F0B0
:10366000F9013496859194910E94A0320E940B1A20
:1036700080E090E008958FEF9FEF0895AB0124E67E
:1036800030E0BC0188E70E9475319C0181E0232B6A
:1036900009F080E0089580916801882369F08091A5
:1036A0005B02882349F062E070E086E590E00E94CA
:1036B0003E1B811110925B020895A4E0B0E0E3E6A6
:1036C000FBE10C943632809168018823F9F00E9466
:1036D0005916DC01CB01805A9541AF4FBF4F809303
:1036E000690190936A01A0936B01B0936C01809182
:1036F0005B0281110BC062E070E084E590E00E9403
:103700003E1B882319F081E080935B022496E2E05F
:103710000C9452321F93CF93DF93782F162FEA0128
:10372000888184FF1CC0898128E882278983FE0163
:103730003296272F392FCF01710FD9012F5F3F4FBD
:103740004C914193472F421B1416BCF3612F0E94EA
:10375000470F1C5F1883DF91CF911F9108958AE571
:103760008883E5CFCF93DF938091D504835087FD85
:1037700014C09091D304CCE0D0E0C91BD109C85249
:10378000DB4F9091D204903108F06EC0883009F47C
:1037900058C01092C6011092D5048091610084FF38
:1037A00041C0809160008F3F09F43CC0C82F893030
:1037B00008F0C8E0982F9C1B909360009091AE0495
:1037C00028E892279093AE048823F1F080910601B7
:1037D000909107012091050126FF1BC1FC012FEAF2
:1037E00034E04C2F480F5491D9015C932F5F3F4F29
:1037F00031964E13F8CF01962FEF2C0F820F911DAB
:1038000090930701809306016C2F8FEA94E00E9449
:10381000470F84E08C0FC83019F09FEF9093600041
:103820008093610084E190B39C70911107C0815036
:103830008111F9CF1092D6041092D104DF91CF916B
:1038400008958091C601893108F0A3CFA82FB0E078
:10385000AA55BE4F98E0FE0101900D929A95E1F7AE
:10386000885F8093C60197CF9D3209F0B6C088303B
:1038700009F091CF93EC9093AE049AE59093610098
:103880001092050198819076992309F458C09032DE
:1038900051F49981993099F140F4923029F19330A3
:1038A00059F1913079F080E017C09A3009F443C0A3
:1038B0009B30C9F78C819D81892BA9F78A818093E0
:1038C0006200F1CF2C813D81232B69F728E031E0A4
:1038D00030930701209306019F81911129C09E8199
:1038E000981730F5892F24C081E091E0909307016B
:1038F0008093060181E0F0CF82E690E0F7CF8A81E5
:103900009B818115924069F48C819D81892B49F4BA
:1039100081E0809304018E819F81909303018093C5
:103920000201888187FF57C08E8190E8909305013E
:103930008093600030CF8B8180930101B4CF2A81C6
:103940001092B704898181110BC01092B80427EB43
:1039500034E092E03093070120930601892FBCCF19
:10396000853029F42093D60427EB34E0F3CF86305A
:10397000C1F48B81813049F4CE010E94FF1690E49E
:10398000909305018F3F69F2A7CF8230A9F383306E
:1039900099F3813289F3823279F380E480930501CF
:1039A00082CF883089F0893019F42093C701DCCFA9
:1039B0008A3071F08B30C1F68BE48093BA04809327
:1039C000EF048093C604D0CF27EC31E091E0C2CF62
:1039D00027EB34E0FBCF8FEFA8CF8091050187FF65
:1039E000DACE8091020190910301892B71F08091D0
:1039F0000401813051F488818093100110920301F9
:103A00001092020110926000C6CE8EE18093610098
:103A1000C2CEDC012C2F4FEA54E0FA013D913083F5
:103A20004F5F5F4F21502111F8CFE5CE0F931F93C9
:103A3000CF93DF93162F072FD42FC5E08330E9F102
:103A4000843049F1813059F48091B90484FF0CC06D
:103A500049EB54E06D2F812F902F0E948A1BDF913C
:103A6000CF911F910F9108950E94B21B8FE19EE4A8
:103A70000197F1F700C00000C150C111E5CFEFCFB1
:103A80000E94B21B8FE19EE40197F1F700C0000095
:103A9000C150CC2321F38091C50484FFF1CF45ECC4
:103AA00054E0D8CF0E94B21B8FE19EE40197F1F75A
:103AB00000C00000C150CC2391F28091EE0484FF3D
:103AC000F1CF4EEE54E0C6CFA0E0B0E0EAE6FDE173
:103AD0000C943032F82E8B01EA016A0183E0D6940F
:103AE000C7948A95E1F7E12C8E2D90E08C159D0509
:103AF00070F0C770CC2331F04C2F50E0B8018F2DFF
:103B00000E94161DCDB7DEB7E8E00C944C3248E0B9
:103B100050E0B8018F2D0E94161D085F1F4FE394DF
:103B2000E3CFCF93DF93D82FC92F48E050E0682F21
:103B3000792F81E00E94641D88E0ED2FFC2FA8E022
:103B4000B1E001900D928A95E1F7DF91CF91089550
:103B5000BC0143E050E083E00E94641D0895A0E0B2
:103B6000B0E0E5EBFDE10C942F32EC01088100237D
:103B700009F4A8C0013009F044C08981813049F4BA
:103B80008E010E5F1F4F8A810E944319E801219622
:103B9000EDCF823039F48E010E5F1F4F8A810E9473
:103BA0008F15F4CF833039F48E010E5F1F4F8A8159
:103BB0000E940F16EBCF843011F02196E8CF2A81B6
:103BC000229680E090E06AE0AE014F5F5F4F2053A5
:103BD000330B2A30310550F00097C9F2EFE9FFE0CE
:103BE0003197F1F700C000000197F6CF689FF00110
:103BF000699FF00D1124C9018E0F9F1F2981EA01D1
:103C0000E3CFE02FF0E0E853FA4FB490202F269551
:103C10002695269530E0F901E854FA4FE4900770B4
:103C2000F12C002E02C0F594E7940A94E2F7F1E03B
:103C3000EF22FF24F901E855FA4FC490D12C002E51
:103C400002C0D594C7940A94E2F781E0C822DD242B
:103C5000F901E856FA4F1491E114F104A9F4C114E2
:103C6000D10409F560E070E08B2D0E942B19E12F43
:103C7000F0E002C0F595E7950A95E2F7E0FF87CFFF
:103C80008CE20E94431983CF81EE0E948F15C114EC
:103C9000D10449F460E070E08B2D0E942B1981EE75
:103CA0000E940F16E4CF86EE0E948F1560E070E050
:103CB0008B2D0E942B1986EE0E940F16E114F10441
:103CC000B1F2EDCFCDB7DEB7E9E00C944B32CF9334
:103CD000DF93682F8091AC049091AD046A30B9F401
:103CE00020916D018C5A9240622F70E00E94123236
:103CF000281B822F66E00E945D32C82FC15018F445
:103D0000DF91CF91089580E20E94671EF7CF6D305A
:103D1000F9F49C012C5A324040916D01642F70E0FF
:103D2000C9010E941232481B842FA901480F511D5E
:103D30004115524018F080E020E030E0820F932FD0
:103D4000911D84559D4F9093AD048093AC04D8CFC2
:103D500026E0FC01ABEFB0E001900D922A95E1F76F
:103D6000603E08F458C026E0FC0111922A95E9F75C
:103D7000C091AC04D091AD0446E050E0BE018BEFA1
:103D800090E00E9493329E012C5A3240892B41F1DF
:103D9000C90145E0969587954A95E1F741E050E0E5
:103DA000BA0102C0660F771F8A95E2F7CB016091D6
:103DB000AA027091AB02862B972BB9016B5F7F4FE4
:103DC000E5E076956795EA95E1F702C0440F551F47
:103DD0006A95E2F7842B952B9093AB028093AA020D
:103DE0002A5F3F4F40916D01642F70E0C9010E942E
:103DF0001232481B463010F4240F311D211572E099
:103E0000370710F020E030E024553D4F3093AD04EB
:103E10002093AC0475CFF6E06F9FB0011124685A6F
:103E20007F4F46E050E00E948A32A2CF2F923F920D
:103E30005F926F927F928F929F92AF92BF92CF923A
:103E4000DF92EF92FF920F931F93CF93DF9300D0F7
:103E500000D000D0CDB7DEB780916801882309F487
:103E600055C08CEA92E09093AD048093AC0460E07E
:103E700070E0CB010E94C71669837A838B839C8391
:103E800061367A4E8105910508F458C00E944B1B9B
:103E90008091AA029091AB02892BA9F080916801D0
:103EA000882389F08091670181110DC00E945D1BFC
:103EB0002091AA023091AB0280E061E070E0211510
:103EC000310509F099C080915B028823F9F00E94C6
:103ED000591669837A838B839C83809169019091C1
:103EE0006A01A0916B01B0916C0129813A814B81EB
:103EF0005C81281B390B4A0B5B0BDA01C9018F3F30
:103F00009F4FAF4FBF4710F40E944B1B0F900F9075
:103F10000F900F900F900F90DF91CF911F910F9105
:103F2000FF90EF90DF90CF90BF90AF909F908F90D9
:103F30007F906F905F903F902F9008958091A002A6
:103F40009091A102A091A202B091A30289839A83C9
:103F5000AB83BC838091A402811126C069817A81E0
:103F60008B819C810E94C71669837A838B839C8393
:103F7000673971058105910510F00E9476160E943F
:103F8000361581FF85CFEFE0F9E08491FA83E9836C
:103F9000882309F47DCF0E94671EE981FA8131965A
:103FA000FA83E9838491F4CF69817A818B819C8142
:103FB0000E94C716462F572FBC018091A902882363
:103FC00031F08091A50225E030E0811102C021E0AE
:103FD00030E0E6E9E29FC001E39F900D1124092E35
:103FE000000CAA0BBB0B84179507A607B70738F67A
:103FF0001092A502C2CF8F5F082F10E01B01082E80
:1040000002C0220C331C0A94E2F7A101422353237D
:10401000452B89F390916E0190FD44C0980136952F
:10402000279536952795922F8295880F80763FE1C8
:10403000380F80936500209368003093660090935A
:10404000690024E630E047E050E063E670E088E78E
:104050000E942B31892B09F036CFA80125E0440FAF
:10406000551F2A95E1F780916E0180FD23C04455CC
:104070005D4F04E610E020E230E060E488E70E9453
:10408000C131892B09F01FCF910120953095809186
:10409000AA029091AB02282339233093AB022093DC
:1040A000AA0211CF880F880F880F37E0380F20E061
:1040B00093E0BFCFE9E3F1E080E2DF011D928A9552
:1040C000E9F7E9E8F0E0FE83ED8305E810E08DE82C
:1040D000C82E80E0D82E97E0592E77247394AD81B6
:1040E000BE818D91BE83AD83F80121918F01240F94
:1040F000352F311D24553D4FE82FF0E0E75CFE4F92
:1041000080E090E0652C681A872C082E01C0880C8E
:104110000A94EAF77901A12CD701BD907D01B8205E
:10412000662D6A19677070E0BB2D062E01C0BB0FAB
:104130000A94EAF79B2E719561957109677077274C
:1041400001C0B6946A95EAF79B286081962A90820E
:10415000A39468E0A612E0CF0196319688309105CD
:1041600089F68D819E81C816D90609F0B8CF04E67C
:1041700010E020E230E049E351E07FCF2FB7F89420
:104180008091110190911201A0911301B09114013D
:104190002FBF0895A6E0B0E0E0EDF0E20C943632D7
:1041A0009093CB018093CA01811520E2920730F4ED
:1041B0000E9443162696E2E00C94523280EF8983E7
:1041C0008A830E94BE208160BC0149815A8181E0BE
:1041D00090E00E945827EECFA4E0B0E0E2EFF0E2DA
:1041E0000C942E327C01FC018481882309F458C28E
:1041F00061E0C7010E940A198C01F70185818823BB
:1042000009F4EBC0C8019A9581159F4408F06CC071
:10421000C80199279C01245031092432310518F036
:104220008B970E9780F4E0912802F0E0EE0FFF1FCD
:10423000EA50FE4F808191818F3F2FE7920719F05E
:10424000019691838083C80197578038910508F0C3
:10425000C4C0F02E4FE0401708F422C28FEF93E065
:104260000E94B03281111CC205ED11E0F11043C073
:104270008091780090917900A0917A00B0917B00B4
:1042800089839A83AB83BC8378018FEFE81AF80A9D
:10429000C8010E94B03289831A82882309F400C2BF
:1042A000813009F094C0680192E0C90ED11CC701A9
:1042B0000E94B032E82E8A83882309F4F1C1C60136
:1042C0000E94B032F82E8FEF8E0D833010F5FB82F6
:1042D000FF2021F0CE0101960E94AF1D6801E3E0AE
:1042E000CE0ED11C8601D0CF0F3F110511F008F082
:1042F000AACFC8018FCF011554E0150709F4D0C12A
:10430000C8010E94B0320F5F1F4F8111F4CFFA94A1
:10431000ADCF8BEF8E0D833088F56801F3E0CF0EC3
:10432000D11CFB82FF20F1F2C6010E94B0328C83C7
:104330008823D9F0CB80DC8021E0C2162FEFD20693
:1043400010F0DC2CCC2446E0E416A1F057E0C601C6
:10435000E51649F00E940D28809155029091560271
:104360000E949317C6010E94CA20680184E0C80E0B
:10437000D11CB8CFC6010E940D28F7CF94E0E912F6
:10438000B1CF6801E4E0CE0ED11CC80103960E94B3
:10439000B032FF2009F484C1882309F481C181501F
:1043A000990B4FEF489F9001499F300D11244F2DDD
:1043B0004150550B240F351F2150310908F492CF7D
:1043C0008FE99FE00197F1F700C00000F5CFCE0123
:1043D00001960E94AF1D670185CF8091520280FF38
:1043E00016C10E94BE206C01F7018581882309F463
:1043F000E3C08091770082FF06C040E0B60180E014
:1044000090E00E94A1170431FCE71F0709F44AC09D
:1044100005312CE7120739F103314CE7140709F095
:1044200045C080917700816080937700F701858196
:10443000882321F010922C0210922B02F701858123
:10444000882309F478C00130FCE71F0751F00330DE
:104450001C4709F070C06FEF7FEF80E090E00E9492
:10446000EB320E94661990917700892F8E7F90FF22
:104470008160809377000E9413158091770080FF00
:104480005AC0F70185818111DCC00737FCE71F079F
:1044900071F581E00E944B1143E062E081E00E94EF
:1044A000C211FEC0809177008E7FE3CFC801905289
:1044B00081159043E0F1F70185819091770090FF9D
:1044C000A6C00832110508F08DC00E31110508F0A4
:1044D000C6C09801245031092A31310508F4AAC018
:1044E000882309F4ABCF10922C0210922B02F70113
:1044F0008581882301F10130FCE71F0709F4B1CF62
:1045000003302CE7120709F4A6CF01154CE7140776
:1045100091F40E9450195FEF84E39CE05150804079
:104520009040E1F700C000000E94E716B9C0109269
:104530002C0210922B02F7018581C080D180882344
:1045400009F40EC1C6010E94A518182F682FC601D4
:104550000E945B11B601812F0E9488180E942213CD
:10456000182F092FF701C580B680B2949FE0B922B9
:10457000902F92959F70983009F4C4C108F006C13D
:10458000943008F0F2C0802F8F70923008F40EC182
:10459000902F907F903211F08295807F113009F03A
:1045A00045C190915902CC2009F43AC19B1508F4F9
:1045B00044C10E940112DCC0809177008F7E013ED1
:1045C000110531F0053E110531F4809177008F7DA2
:1045D00080937700B0CFC80190528115904308F0C6
:1045E0006ACFA9CF09331105F8F40D32110520F473
:1045F0000B32110509F01CCF9091520292FF37C087
:10460000882309F474CF10922C0210922B02F70128
:1046100085810737FCE71F07C1F4882309F439CFE8
:1046200081E00E943F1138CF0436110529F3811132
:10463000EACFEDCF9091520294FF19C0882309F47C
:104640007ACF10922C0210922B0208372CE7120717
:1046500009F04DCF882309F481C082E0E2CF909128
:10466000520293FF04C0882309F465CF3CCF88230E
:1046700009F46EC080913402982F9D7F9923A1F098
:1046800010922C0210922B029091520291FD0CC0BC
:1046900060E0C8010E94ED1460E0C8010E94831729
:1046A0002496EAE00C944A3297E0F701ADE2B2E0DA
:1046B00001900D929A95E1F71092300210922F021C
:1046C000A0902B02B0902C020A151B0581F5909149
:1046D000520295FF2CC0F0907700F1FAFF24F0F819
:1046E000FF2011F096FF23C02091290230912A0269
:1046F000A601421B530B483C5105C8F481FF08C07A
:104700008091770080618093770082E00E94201280
:104710008091340285FF08C0809177008062809389
:10472000770080E20E9420126F2DC501B7CF109351
:104730002C0200932B02D0922A02C092290282708E
:10474000846090917700997F892B80937700A8CF20
:1047500040E0B601C8010E94A117A2CF82E09ACE24
:10476000C6010E948F11182FF5CE943009F4ADC008
:10477000812F902F0E941C11882309F45EC0CC2049
:1047800009F497C1BB2009F465C057C0993009F4FA
:104790002AC19A5F9F70923058F7123F09F036C1D4
:1047A000802F8F71CC2009F460C12DC1D82E00312B
:1047B00018F0D29480EFD822CC20C9F0DD2069F027
:1047C00080E2810F883010F011110BC0809134020B
:1047D0008D29809334020E94ED11812F0E948F1544
:1047E000C7CF80915C028D2980935C02F4CF812F2A
:1047F0000E940F16DD2009F4BBCF80E2810F8830C4
:1048000010F0111106C08D2D0E9420120E94ED1192
:10481000AFCFD09480915C028D2180935C02F6CF63
:10482000B91608F0A5CF0E942812A2CFCC20E9F03B
:10483000BB2041F0812F0E948F1510929F02109291
:104840009E0208C00E940112812F902F0E941C110D
:10485000882399F360E0C7010E940A1980915B02E6
:1048600081111ECF0E945D1B1BCFBB2081F0809168
:10487000570290915802193321F08091550290917E
:1048800056020E949317812F0E940F16D6CF0E94C6
:104890002812812F902F0E941C11882371F240E072
:1048A000F7016581808191810E94EC18809154020A
:1048B00083FFC3CF80919E0290919F02029709F0DF
:1048C000BCCF812F0E944319B8CF802F8695869543
:1048D0008370882369F0813009F04ACF812F902FAF
:1048E0009370C11002C080E090E00E94691540CF33
:1048F000812F902F9370C11002C080E090E00E9441
:10490000431536CF802F8370811135C0C11028C068
:10491000412F429546954770440F440F812F8F7069
:10492000042E01C0880F0A94EAF7212F2071222358
:1049300039F02FE030E001C0220F4A95EAF72095C8
:10494000302F369536953370323081F0333061F048
:1049500040913502313039F0822B84230E94391185
:104960000E94361505CF842B822BF8CF822B909195
:1049700035028927F3CFCC2059F100FFF1CF412F29
:10498000429546954770440F440F812F8F70042E37
:1049900001C0880F0A94EAF7212F2071222339F0F1
:1049A0002FE030E001C0220F4A95EAF72095302F22
:1049B000369536953370323089F0333069F0409156
:1049C0003602313041F0822B84230E943C11C8CF43
:1049D000823030F2D4CF842B822BF7CF822B909170
:1049E00036028927F2CFF02FFF70DF2ECC2039F06E
:1049F0008F2F0E943F11812F0E940112B1CF812F72
:104A00000E9428128D2D0E944B11AACF133F60F4F3
:104A1000103F99F0113F29F1CC20C9F1BB20A1F141
:104A2000812F0E948F159CCF133F11F1C110F6CF3B
:104A3000B11035C0802F8F71E6CF80915902CC2004
:104A400061F0B81608F08CCF202F2F7181E090E034
:104A500001C0880F2A95EAF7C2CF8B1508F480CFE2
:104A6000F3CF802F8F71CC2071F20E943F1178CF4D
:104A700080E0CC2009F4A9CF81E0902F9F7101C084
:104A8000880F9A95EAF7A1CF802F8F71EECFBB20C8
:104A900089F28091570290915802193321F0809148
:104AA0005502909156020E949317812F0E940F1673
:104AB00057CFB110C2CEF3CE80919D02803178F4F1
:104AC00080919C02882359F0E0915E0220915D0262
:104AD000309198024091970257E02E1301C008953B
:104AE0006E2F70E05E9FF0011124DF01A15ABD4FCF
:104AF00014968C911497882361F111968C911197DB
:104B0000831327C08C91841324C015968C9115971C
:104B100081111FC012968D919C91A0919902B09124
:104B20009A028A1B9B0B883C910598F480919D0208
:104B30008F70806180939D02EB59FD4F80818F7053
:104B40008061808387E992E00E94EC200E94E3115B
:104B50000895FB013196E770C0CFADE0B0E0E3EB24
:104B6000F5E20C942B328C0186E0F801DE011896F8
:104B700001900D928A95E1F7D801DC901196CC90C6
:104B8000119715967C9015971296AD90BC9013973F
:104B90001496FC9087E9882E82E0982E80919B02E3
:104BA000811118C0FF2099F0772009F475C1C80160
:104BB0000E94DF18882309F46FC187E0F801A7E994
:104BC000B2E001900D928A95E1F70E945C25FF24E6
:104BD000F3943CC060E087E992E00E940A19E090FB
:104BE0009C028091990290919A02EE2009F420C1D2
:104BF000F501E81BF90BE83CF10508F0DDC0FF20EA
:104C000031F390919802D80111968C9190909D0269
:104C1000BFE0B91508F498C0F72C98131CC0909108
:104C20009702F8018081981316C0711078C0892D01
:104C30008F70806180939D0287E992E00E94EC2052
:104C400080919D02D80116968C93F12C8F2D2D9674
:104C5000EDE00C944732711062C0E0915E028091E9
:104C60005D02AE2F97E0A81302C097E02AC02A2F5A
:104C700030E09A9FD0011124A15ABD4F11964C915A
:104C80001197C41207C04C91D41204C015964C91D0
:104C9000411109C1D9011196A770E5CF2E2F30E03F
:104CA0009E9FF0011124E15AFD4F4181C41206C0BC
:104CB0004081D41203C045814111C7CFF90131961B
:104CC000E7708E13EBCF888599850E94D018292F25
:104CD00022952F70903448F02A5F2F702230C8F050
:104CE000C8010E94EC20FE2CB1CF9F70223038F01A
:104CF000992351F0F8019681903130F4A7CF992390
:104D000019F0882309F4A2CF805E883008F49ECF82
:104D1000E7CF803F08F49ACF815F8230F7CF809150
:104D20009D02816080939D028091540281FD8DCF10
:104D300087E992E00E94EC2087E0E7E9F2E0DF01FA
:104D40001D928A95E9F781CF981316C0909197022A
:104D5000D8018C91981310C071100EC016969C92B9
:104D6000C8010E94EC2087E0F801A7E9B2E00190B9
:104D70000D928A95E1F72BCFC8010E94DF18882396
:104D800009F48AC0772009F487C080919D0280329F
:104D900008F413CF80919702909198029A838983A7
:104DA000BC82AB8280919B028D831E829F82CE014A
:104DB00001960E94EC2001CFE0909D02BFE0BE155D
:104DC00008F0B6CFFF2009F402CF90919802F801C5
:104DD0008181981311C090919702808198130CC023
:104DE00071100AC0E682C8010E94EC2087E0D4015D
:104DF0001D928A95E9F7EBCEC8010E94DF1888233F
:104E000009F44AC0772009F447C080919D0280329E
:104E100008F4D3CE80919702909198029A83898367
:104E2000BC82AB8280919B028D831E82EF82BFCFBA
:104E3000A81AB90AB8ECAB16B10490F5FF2009F432
:104E4000C6CE772049F190919802F801818198139C
:104E500019C0909197028081981314C080919D028F
:104E600080FD81CF803108F47ECF8683807F803FB4
:104E700009F476CF8681982F907F905F8F70892B71
:104E800086836ECFC8010E94DF18811196CE809173
:104E90009D02816080939D02C8010E94EC2097CE04
:104EA00087E0D4014DCF9091540290FFDECE40CFE9
:104EB000ABE1B0E0EEE5F7E20C9435324E8B5F8B60
:104EC000688F798F8A8F9B8F882349F080919E020B
:104ED00090919F02019690939F0280939E028B8DEA
:104EE000811110925C021D8A86E0FE017696DE0139
:104EF0001F9601900D928A95E1F78B89882329F0FE
:104F000061E0CE010F960E940A1987E0FE013F96EC
:104F1000DE01189601900D928A95E1F7CE01089670
:104F20000E94AD2581112BC087E0FE013896DE017D
:104F3000119601900D928A95E1F720915D024091C2
:104F40005E028C858823D9F030E0C9010196877014
:104F5000992750E084179507E9F097E0929FD001D8
:104F6000939FB00D1124A15ABD4FFE0131960190BF
:104F70000D929A95E1F780935D020E94E31117E08C
:104F800080915E0290915D02891312C06B96E3E0FE
:104F90000C9451320E94501910925D0210925E02E0
:104FA00087E0E7E9F2E0DF011D928A95E9F7E7CFB4
:104FB000189FC0011124815A9D4F0E94AD2588235E
:104FC00029F380915E0290E0019687709927809383
:104FD0005E02D6CFA6E0B0E0E0EFF7E20C94343208
:104FE0000E94BE208C018091CE019091CF0180174C
:104FF000910779F019821A820E94BE20BC01498172
:105000005A8180E090E00E9458271093CF010093CE
:10501000CE012696E4E00C945032A6E0B0E0E3E145
:10502000F8E20C9436329093CB018093CA0181153B
:1050300020E2920730F40E94F9152696E2E00C94E3
:10504000523280EF89838A830E94BE208160BC0136
:1050500049815A8181E091E00E945827EECF9C015E
:105060004FB7F8948091110190911201A091130112
:10507000B09114014FBF821B930B08958091D4040B
:10508000882369F01092D4040E94BE2090935A01A4
:105090008093590110926F0180916F010895809162
:1050A0006F018111F9CF8091590190915A010E94AD
:1050B0002F28069788F381E080936F01EDCFACE055
:1050C000B0E0E5E6F8E20C942A32FE0131968CE07D
:1050D000DF011D928A95E9F79DE8A92E90E0B92E8F
:1050E0008F0123E9E22E20E0F22E3F01CC24C3946D
:1050F000D12CF50181915F018F3F09F447C0F894ED
:10510000E82FE295EF70F0E021A98F70A60102C0B0
:10511000440F551F8A95E2F7CA01922F982B91AB45
:1051200092A98095892382AB789400C0E3E9F0E0EE
:1051300021E030E0812C912C41914F3F09F44AC08D
:10514000A42FA295AF70A05DB0E08C9190E04F705D
:1051500002C0959587954A95E2F7817081113AC012
:10516000C901882A992A220F331F50E0E33AF50734
:1051700019F7F501319780818F3F11F00E943A14A1
:1051800080EA8A95F1F7D8018D929C920E5F1F4FAD
:10519000EA14FB0409F0ADCF4CE050E0B3018BE51D
:1051A00091E00E949332892BC1F08CE0F301ABE5D2
:1051B000B1E001900D928A95E1F781E08093FA00C9
:1051C0000E94BE209093F9008093F8002C96EEE0A8
:1051D0000C94463280E090E0C4CF8091FA0088239E
:1051E000A9F38091F8009091F9000E942F2805976B
:1051F00068F34CE050E06BE571E088E991E00E94D3
:105200009332892B49F08CE0EBE5F1E0A8E9B1E0BD
:1052100001900D928A95E1F71092FA00D7CFCDB7A1
:10522000DEB760970FB6F894DEBF0FBECDBF84B770
:10523000806884BF84B7806884BF0E94BE2090933A
:105240005A018093590188E394E19093EF00809391
:10525000EE000E94331885B7886085BF8BB78068E1
:105260008BBF8BE48093BA048093EF048093C604D1
:105270008AE58093B9048093EE048093C5048B9AE9
:105280008FEFA895AFE9BFE01197F1F700C00000DC
:1052900081508111F6CF8B9878948BE083BF8AEF91
:1052A0008CBF82E089BF0E941219811102C00E9446
:1052B000FE1AEAE8F1E088E0DF011D928A95E9F73D
:1052C00081E08093890160E080E00E94D31461E076
:1052D00080E00E94D314EFE8F1E03197F1F700C0CD
:1052E000000010E080918901181708F494C10DE8BE
:1052F00010E0D8018D918D018F3F11F00E943A147A
:10530000B0E003391B07A9F703E910E0F801819128
:105310008F018F3F11F00E943A14F0E0033A1F070B
:10532000A9F78CE0E8E9F1E0DF01282F1D922A952A
:10533000E9F7EBE5F1E0DF011D928A95E9F780E0FE
:1053400090E00E94B832863E9E4F21F40E941219CE
:10535000811168C066EE7EEF80E090E00E94EB3243
:1053600060E082E090E00E94CE3281E080933502DE
:1053700061E083E090E00E94CE3260E074E184E07E
:1053800090E00E94EB3260E086E090E00E94CE3236
:1053900060E087E090E00E94CE3240E050E0BA0149
:1053A00088E090E00E94DF3260E084E290E00E94BA
:1053B000CE3260E087E190E00E94CE3260E08CE087
:1053C00090E00E94CE3260E08DE090E00E94CE320C
:1053D00019821A821B821C821D821E821F821886DD
:1053E00048E050E068E170E0CE0101960E94BE32D4
:1053F00040E050E0BA0180E290E00E94DF3280E0BD
:105400000E94E01A0E94FE1A40E050E0BA018FE0CC
:1054100090E00E94DF3240E050E0BA0183E190E08A
:105420000E94DF3282E090E00E94B03280937001EF
:1054300084E090E00E94B8329093C9018093C80143
:105440000E945F28EFE3FCE93197F1F700C000000C
:105450000E945F288091980180FF08C06FEF7FEF66
:1054600080E090E00E94EB320E94E71683E090E03B
:105470000E94B0320E94391182E080936E0180E870
:1054800080936D010E94EF306BE070E08BE299E059
:105490000E943E1B882309F443C080916E0165E0A1
:1054A00070E081FDCAC086E299E00E943E1B88231D
:1054B000B9F16DE070E084E199E00E943E1B882321
:1054C00079F10E94591669877A878B879C87DC015E
:1054D000CB01805A9541AF4FBF4F809369019093A4
:1054E0006A01A0936B01B0936C01ECEAF2E080E0FA
:1054F00092E0DF019C011D9221503040E1F7F093D2
:10550000AD04E093AC048FEF9FEF9093AB028093D8
:10551000AA0281E08093680180935B021092670188
:105520008AE690E09093D1018093D0013FEF40E76D
:1055300052E0315040405040E1F700C0000004EA22
:10554000202E01E0302E0E943E28811189C00E9449
:10555000B21B8091C701882309F458C28091B90415
:1055600084FF54C20E945F28B1E7AB2EB1E0BB2E8E
:1055700018E9812E11E0912ED401F501219131918C
:105580008D919D914DE751E04E175F0709F48BC057
:105590002817390799F3712CD4010D911D914D01F4
:1055A000F501C190D1905F01C016D10661F1C0260E
:1055B000D126612CEE24E394F12CC6018E219F218B
:1055C000892BB9F069827A820E94BE209C838B83EA
:1055D000F1E0FD8391E098012E213F21232B09F476
:1055E00090E09E8349815A816B817C818D810E94EC
:1055F00058276394EE0CFF1C20E16212DECFF50108
:10560000329711830083739436E07312C5CF0E94E2
:10561000591601E04FC060E0812F0E94E414082F6A
:1056200061E0812F0E94E414E12FF0E0E857FE4F83
:10563000880F802B80831F5F55CE81E299E035CFA4
:1056400080916F0181110E944B1B0E945F28E8E945
:10565000F1E081919191892B61F42E163F06C9F7F3
:105660000E943E288111ECCF0E9450190E943615ED
:105670006ECFF89491B3939A892F8C6081BB82B3DB
:105680002CE0822782BB8FE7A8E3B1E08150A040E5
:10569000B040E1F700C0000082B3822782BB91BB1B
:1056A00093987894DDCF2817390709F074CF0E94BA
:1056B000EA2700E08090F6019090F701092C000C99
:1056C000AA08BB0810917400E12EF12CE6EFF1E07E
:1056D00081E090E03296E816F9060CF016C1809150
:1056E000830190918401A0918501B0918601BC0154
:1056F000CD010E94C7162B013C019401A501B7FE04
:1057000004C020E030E040E050E0A0E6BAEE0E94A5
:10571000203369877A878B879C8788EC8E9D9001E0
:105720008F9D300D1124032E000C440B550B240DBE
:10573000351D461D571DA5E0B0E00E9420336D8742
:105740007E878F87988B69857A858B859C852D854B
:105750003E854F8558890E94333369017A01213F84
:1057600031054105510510F0E0EFCE2EA9EC4A16A7
:105770005104610471040CF18091280290E00196BB
:1057800069E170E00E94693280932802880F991FB6
:10579000FC01EA50FE4F11821082183108F017E127
:1057A0001F5F109374000E945916609383017093D9
:1057B00084018093850190938601B2E08B16910459
:1057C000A104B10474F48A9489288A288B2841F0B2
:1057D00010922802109274001092F7011092F601B4
:1057E000C12C20917F013091800140918101509125
:1057F0008201CA01B9010E94C7164B015C0135E65E
:1058000083169104A104B10484F00E945916609398
:105810007F01709380018093810190938201809138
:10582000A40280937E01C0927D0110917E01A0911F
:105830007D01A11BBB0BA50194010E942B3369873D
:105840007A878B879C8724E630E040E050E00E9416
:105850000133120F1093A4028091520280FF1CC0EA
:105860008091770082FF18C00E94BE20BC01809109
:10587000290290912A029B01281B390B8091750007
:10588000909176002817390738F041E080912B027B
:1058900090912C020E94A11780919201882351F0CF
:1058A00080918C011092920180938D0180918A01E8
:1058B00080938B01E12C10918C01F0908D018091EF
:1058C0008901E81670F190E080918D0120918C01A2
:1058D000281709F484C0E82FF0E0E257FE4F9081CA
:1058E0008F5F837080938D0180918B018F5F809398
:1058F0008B016AE070E089EA97FD03C06AE070E01E
:105900008AEA0E942B1991E0DFCF40815181052E58
:10591000000C660B770B840E951EA61EB71E019613
:10592000D9CE61E08E2D0E94E414D82E60E08E2D39
:105930000E94E414DD0CD82A2E2D30E0D901A8579E
:10594000BE4FEC918E2F8370D816A9F1EE0FEE0F9B
:10595000ED29EC93EF70F0E0ED55FF4F29573E4FE6
:105960008081D9019C91890F8C93823034F1412F31
:1059700050E0EF2DE150FF0BBF0163707727461712
:10598000570781F046575E4F9E2D9F77DA01149698
:105990009C931F5F137010938C0190918A019F5FFD
:1059A00090938A01082E000C990B62E070E00E942F
:1059B0006932F9018083E3947ECF8F3F9CF7412FBA
:1059C00050E0EF2DE150FF0BBF01637077274617C2
:1059D000570741F346575E4F9E2D9068D7CF9923C6
:1059E00039F00E9459160E94161F0E945D1B04C0C8
:1059F0000E94161F0111F9CF0E9436159091930154
:105A0000891721F0809393010E9459160E94B21BBE
:105A10008091C701882309F496CD8091C50484FF45
:105A200092CD8091C601803209F08DCD0091CC01DC
:105A30001091CD01E091A6010115110591F0EE3F05
:105A4000D1F58091A701833018F08550833098F507
:105A5000E091A701EE3078F5F0E0EA59FC4C0C94A7
:105A60007D32E43150F4EE2351F0E150E33138F46B
:105A7000F0E0EC58FC4C0C947D32EE3F49F38FEF94
:105A8000EDC21092A70189E08093A80114C0809113
:105A9000A7018230D1F0833029F1813081F70E9453
:105AA00059160E9483326093A8017093A9018093D4
:105AB000AA019093AB0140E250E066EA71E084E015
:105AC0000E94641D1092C6013ECD88E290E00E94C3
:105AD000B0321092A8011092A9011092AA018093ED
